{
	"data": {
		"bytecode": {
			"linkReferences": {
				"remix_tests.sol": {
					"Assert": [
						{
							"length": 20,
							"start": 2076
						},
						{
							"length": 20,
							"start": 2202
						},
						{
							"length": 20,
							"start": 2328
						},
						{
							"length": 20,
							"start": 2512
						}
					]
				}
			},
			"object": "608060405234801561000f575f80fd5b50620f4240336040518060400160405280601281526020017120b23b32b73a3ab932aa34b6b2aa37b5b2b760711b815250604051806040016040528060058152602001644154494d4560d81b815250816003908161006d9190610321565b50600461007a8282610321565b5050506001600160a01b0381166100ab57604051631e4fbdf760e01b81525f60048201526024015b60405180910390fd5b6100b4816100da565b506100d4336100c56012600a6104d4565b6100cf90846104e9565b61012b565b50610513565b600580546001600160a01b038381166001600160a01b0319831681179093556040519116919082907f8be0079c531659141344cd1fd0a4f28419497f9722a3daafe3b4186f6b6457e0905f90a35050565b6001600160a01b0382166101545760405163ec442f0560e01b81525f60048201526024016100a2565b61015f5f8383610163565b5050565b6001600160a01b03831661018d578060025f8282546101829190610500565b909155506101fd9050565b6001600160a01b0383165f90815260208190526040902054818110156101df5760405163391434e360e21b81526001600160a01b038516600482015260248101829052604481018390526064016100a2565b6001600160a01b0384165f9081526020819052604090209082900390555b6001600160a01b03821661021957600280548290039055610237565b6001600160a01b0382165f9081526020819052604090208054820190555b816001600160a01b0316836001600160a01b03167fddf252ad1be2c89b69c2b068fc378daa952ba7f163c4a11628f55a4df523b3ef8360405161027c91815260200190565b60405180910390a3505050565b634e487b7160e01b5f52604160045260245ffd5b600181811c908216806102b157607f821691505b6020821081036102cf57634e487b7160e01b5f52602260045260245ffd5b50919050565b601f82111561031c57805f5260205f20601f840160051c810160208510156102fa5750805b601f840160051c820191505b81811015610319575f8155600101610306565b50505b505050565b81516001600160401b0381111561033a5761033a610289565b61034e81610348845461029d565b846102d5565b6020601f821160018114610380575f83156103695750848201515b5f19600385901b1c1916600184901b178455610319565b5f84815260208120601f198516915b828110156103af578785015182556020948501946001909201910161038f565b50848210156103cc57868401515f19600387901b60f8161c191681555b50505050600190811b01905550565b634e487b7160e01b5f52601160045260245ffd5b6001815b600184111561042a5780850481111561040e5761040e6103db565b600184161561041c57908102905b60019390931c9280026103f3565b935093915050565b5f82610440575060016104ce565b8161044c57505f6104ce565b8160018114610462576002811461046c57610488565b60019150506104ce565b60ff84111561047d5761047d6103db565b50506001821b6104ce565b5060208310610133831016604e8410600b84101617156104ab575081810a6104ce565b6104b75f1984846103ef565b805f19048211156104ca576104ca6103db565b0290505b92915050565b5f6104e260ff841683610432565b9392505050565b80820281158282048414176104ce576104ce6103db565b808201808211156104ce576104ce6103db565b610cf1806105205f395ff3fe608060405234801561000f575f80fd5b50600436106100cb575f3560e01c8063715018a611610088578063a9059cbb11610063578063a9059cbb14610199578063dc881d1c146101ac578063dd62ed3e146101b4578063f2fde38b146101ec575f80fd5b8063715018a61461016c5780638da5cb5b1461017657806395d89b4114610191575f80fd5b806306fdde03146100cf578063095ea7b3146100ed57806318160ddd1461011057806323b872dd14610122578063313ce5671461013557806370a0823114610144575b5f80fd5b6100d76101ff565b6040516100e49190610966565b60405180910390f35b6101006100fb36600461099a565b61028f565b60405190151581526020016100e4565b6002545b6040519081526020016100e4565b6101006101303660046109c2565b6102a8565b604051601281526020016100e4565b6101146101523660046109fc565b6001600160a01b03165f9081526020819052604090205490565b6101746102cb565b005b6005546040516001600160a01b0390911681526020016100e4565b6100d76102de565b6101006101a736600461099a565b6102ed565b6101746102fa565b6101146101c2366004610a15565b6001600160a01b039182165f90815260016020908152604080832093909416825291909152205490565b6101746101fa3660046109fc565b610599565b60606003805461020e90610a46565b80601f016020809104026020016040519081016040528092919081815260200182805461023a90610a46565b80156102855780601f1061025c57610100808354040283529160200191610285565b820191905f5260205f20905b81548152906001019060200180831161026857829003601f168201915b5050505050905090565b5f3361029c8185856105d8565b60019150505b92915050565b5f336102b58582856105ea565b6102c0858585610665565b506001949350505050565b6102d36106c2565b6102dc5f6106ef565b565b60606004805461020e90610a46565b5f3361029c818585610665565b73__$acbfb1c35000d78352310b16a054a6b106$__63e8c2cb1661031c6101ff565b6040518263ffffffff1660e01b81526004016103389190610a7e565b602060405180830381865af4158015610353573d5f803e3d5ffd5b505050506040513d601f19601f820116820180604052508101906103779190610afc565b5073__$acbfb1c35000d78352310b16a054a6b106$__63e8c2cb1661039a6102de565b6040518263ffffffff1660e01b81526004016103b69190610b1b565b602060405180830381865af41580156103d1573d5f803e3d5ffd5b505050506040513d601f19601f820116820180604052508101906103f59190610afc565b5073__$acbfb1c35000d78352310b16a054a6b106$__63abcd796060126040516001600160e01b031960e084901b16815260ff90911660048201526012602482015260606044820152601c60648201527f546f6b656e20646563696d616c7320646964206e6f74206d6174636800000000608482015260a401602060405180830381865af4158015610489573d5f803e3d5ffd5b505050506040513d601f19601f820116820180604052508101906104ad9190610afc565b5073__$acbfb1c35000d78352310b16a054a6b106$__63abcd79606104d160025490565b6104dd6012600a610c83565b6104ea90620f4240610c91565b6040516001600160e01b031960e085901b1681526004810192909252602482015260606044820152602c60648201527f546f6b656e20737570706c792073686f756c64206d617463682074686520696e60848201526b697469616c20737570706c7960a01b60a482015260c401602060405180830381865af4158015610572573d5f803e3d5ffd5b505050506040513d601f19601f820116820180604052508101906105969190610afc565b50565b6105a16106c2565b6001600160a01b0381166105cf57604051631e4fbdf760e01b81525f60048201526024015b60405180910390fd5b610596816106ef565b6105e58383836001610740565b505050565b6001600160a01b038381165f908152600160209081526040808320938616835292905220545f19811461065f578181101561065157604051637dc7a0d960e11b81526001600160a01b038416600482015260248101829052604481018390526064016105c6565b61065f84848484035f610740565b50505050565b6001600160a01b03831661068e57604051634b637e8f60e11b81525f60048201526024016105c6565b6001600160a01b0382166106b75760405163ec442f0560e01b81525f60048201526024016105c6565b6105e5838383610812565b6005546001600160a01b031633146102dc5760405163118cdaa760e01b81523360048201526024016105c6565b600580546001600160a01b038381166001600160a01b0319831681179093556040519116919082907f8be0079c531659141344cd1fd0a4f28419497f9722a3daafe3b4186f6b6457e0905f90a35050565b6001600160a01b0384166107695760405163e602df0560e01b81525f60048201526024016105c6565b6001600160a01b03831661079257604051634a1406b160e11b81525f60048201526024016105c6565b6001600160a01b038085165f908152600160209081526040808320938716835292905220829055801561065f57826001600160a01b0316846001600160a01b03167f8c5be1e5ebec7d5bd14f71427d1e84f3dd0314c0f7b2291e5b200ac8c7c3b9258460405161080491815260200190565b60405180910390a350505050565b6001600160a01b03831661083c578060025f8282546108319190610ca8565b909155506108ac9050565b6001600160a01b0383165f908152602081905260409020548181101561088e5760405163391434e360e21b81526001600160a01b038516600482015260248101829052604481018390526064016105c6565b6001600160a01b0384165f9081526020819052604090209082900390555b6001600160a01b0382166108c8576002805482900390556108e6565b6001600160a01b0382165f9081526020819052604090208054820190555b816001600160a01b0316836001600160a01b03167fddf252ad1be2c89b69c2b068fc378daa952ba7f163c4a11628f55a4df523b3ef8360405161092b91815260200190565b60405180910390a3505050565b5f81518084528060208401602086015e5f602082860101526020601f19601f83011685010191505092915050565b602081525f6109786020830184610938565b9392505050565b80356001600160a01b0381168114610995575f80fd5b919050565b5f80604083850312156109ab575f80fd5b6109b48361097f565b946020939093013593505050565b5f805f606084860312156109d4575f80fd5b6109dd8461097f565b92506109eb6020850161097f565b929592945050506040919091013590565b5f60208284031215610a0c575f80fd5b6109788261097f565b5f8060408385031215610a26575f80fd5b610a2f8361097f565b9150610a3d6020840161097f565b90509250929050565b600181811c90821680610a5a57607f821691505b602082108103610a7857634e487b7160e01b5f52602260045260245ffd5b50919050565b606081525f610a906060830184610938565b828103806020850152601282527120b23b32b73a3ab932aa34b6b2aa37b5b2b760711b602083015260408101604085015250601860408201527f546f6b656e206e616d6520646964206e6f74206d61746368000000000000000060608201526080810191505092915050565b5f60208284031215610b0c575f80fd5b81518015158114610978575f80fd5b606081525f610b2d6060830184610938565b82810380602085015260058252644154494d4560d81b602083015260408101604085015250601a60408201527f546f6b656e2073796d626f6c20646964206e6f74206d6174636800000000000060608201526080810191505092915050565b634e487b7160e01b5f52601160045260245ffd5b6001815b6001841115610bdb57808504811115610bbf57610bbf610b8c565b6001841615610bcd57908102905b60019390931c928002610ba4565b935093915050565b5f82610bf1575060016102a2565b81610bfd57505f6102a2565b8160018114610c135760028114610c1d57610c39565b60019150506102a2565b60ff841115610c2e57610c2e610b8c565b50506001821b6102a2565b5060208310610133831016604e8410600b8410161715610c5c575081810a6102a2565b610c685f198484610ba0565b805f1904821115610c7b57610c7b610b8c565b029392505050565b5f61097860ff841683610be3565b80820281158282048414176102a2576102a2610b8c565b808201808211156102a2576102a2610b8c56fea264697066735822122052b1899bdfc34abbf7c88237b4dd9c9f53dbfec5101750bfbcb4e9a0d815964064736f6c634300081a0033",
			"opcodes": "PUSH1 0x80 PUSH1 0x40 MSTORE CALLVALUE DUP1 ISZERO PUSH2 0xF JUMPI PUSH0 DUP1 REVERT JUMPDEST POP PUSH3 0xF4240 CALLER PUSH1 0x40 MLOAD DUP1 PUSH1 0x40 ADD PUSH1 0x40 MSTORE DUP1 PUSH1 0x12 DUP2 MSTORE PUSH1 0x20 ADD PUSH18 0x20B23B32B73A3AB932AA34B6B2AA37B5B2B7 PUSH1 0x71 SHL DUP2 MSTORE POP PUSH1 0x40 MLOAD DUP1 PUSH1 0x40 ADD PUSH1 0x40 MSTORE DUP1 PUSH1 0x5 DUP2 MSTORE PUSH1 0x20 ADD PUSH5 0x4154494D45 PUSH1 0xD8 SHL DUP2 MSTORE POP DUP2 PUSH1 0x3 SWAP1 DUP2 PUSH2 0x6D SWAP2 SWAP1 PUSH2 0x321 JUMP JUMPDEST POP PUSH1 0x4 PUSH2 0x7A DUP3 DUP3 PUSH2 0x321 JUMP JUMPDEST POP POP POP PUSH1 0x1 PUSH1 0x1 PUSH1 0xA0 SHL SUB DUP2 AND PUSH2 0xAB JUMPI PUSH1 0x40 MLOAD PUSH4 0x1E4FBDF7 PUSH1 0xE0 SHL DUP2 MSTORE PUSH0 PUSH1 0x4 DUP3 ADD MSTORE PUSH1 0x24 ADD JUMPDEST PUSH1 0x40 MLOAD DUP1 SWAP2 SUB SWAP1 REVERT JUMPDEST PUSH2 0xB4 DUP2 PUSH2 0xDA JUMP JUMPDEST POP PUSH2 0xD4 CALLER PUSH2 0xC5 PUSH1 0x12 PUSH1 0xA PUSH2 0x4D4 JUMP JUMPDEST PUSH2 0xCF SWAP1 DUP5 PUSH2 0x4E9 JUMP JUMPDEST PUSH2 0x12B JUMP JUMPDEST POP PUSH2 0x513 JUMP JUMPDEST PUSH1 0x5 DUP1 SLOAD PUSH1 0x1 PUSH1 0x1 PUSH1 0xA0 SHL SUB DUP4 DUP2 AND PUSH1 0x1 PUSH1 0x1 PUSH1 0xA0 SHL SUB NOT DUP4 AND DUP2 OR SWAP1 SWAP4 SSTORE PUSH1 0x40 MLOAD SWAP2 AND SWAP2 SWAP1 DUP3 SWAP1 PUSH32 0x8BE0079C531659141344CD1FD0A4F28419497F9722A3DAAFE3B4186F6B6457E0 SWAP1 PUSH0 SWAP1 LOG3 POP POP JUMP JUMPDEST PUSH1 0x1 PUSH1 0x1 PUSH1 0xA0 SHL SUB DUP3 AND PUSH2 0x154 JUMPI PUSH1 0x40 MLOAD PUSH4 0xEC442F05 PUSH1 0xE0 SHL DUP2 MSTORE PUSH0 PUSH1 0x4 DUP3 ADD MSTORE PUSH1 0x24 ADD PUSH2 0xA2 JUMP JUMPDEST PUSH2 0x15F PUSH0 DUP4 DUP4 PUSH2 0x163 JUMP JUMPDEST POP POP JUMP JUMPDEST PUSH1 0x1 PUSH1 0x1 PUSH1 0xA0 SHL SUB DUP4 AND PUSH2 0x18D JUMPI DUP1 PUSH1 0x2 PUSH0 DUP3 DUP3 SLOAD PUSH2 0x182 SWAP2 SWAP1 PUSH2 0x500 JUMP JUMPDEST SWAP1 SWAP2 SSTORE POP PUSH2 0x1FD SWAP1 POP JUMP JUMPDEST PUSH1 0x1 PUSH1 0x1 PUSH1 0xA0 SHL SUB DUP4 AND PUSH0 SWAP1 DUP2 MSTORE PUSH1 0x20 DUP2 SWAP1 MSTORE PUSH1 0x40 SWAP1 KECCAK256 SLOAD DUP2 DUP2 LT ISZERO PUSH2 0x1DF JUMPI PUSH1 0x40 MLOAD PUSH4 0x391434E3 PUSH1 0xE2 SHL DUP2 MSTORE PUSH1 0x1 PUSH1 0x1 PUSH1 0xA0 SHL SUB DUP6 AND PUSH1 0x4 DUP3 ADD MSTORE PUSH1 0x24 DUP2 ADD DUP3 SWAP1 MSTORE PUSH1 0x44 DUP2 ADD DUP4 SWAP1 MSTORE PUSH1 0x64 ADD PUSH2 0xA2 JUMP JUMPDEST PUSH1 0x1 PUSH1 0x1 PUSH1 0xA0 SHL SUB DUP5 AND PUSH0 SWAP1 DUP2 MSTORE PUSH1 0x20 DUP2 SWAP1 MSTORE PUSH1 0x40 SWAP1 KECCAK256 SWAP1 DUP3 SWAP1 SUB SWAP1 SSTORE JUMPDEST PUSH1 0x1 PUSH1 0x1 PUSH1 0xA0 SHL SUB DUP3 AND PUSH2 0x219 JUMPI PUSH1 0x2 DUP1 SLOAD DUP3 SWAP1 SUB SWAP1 SSTORE PUSH2 0x237 JUMP JUMPDEST PUSH1 0x1 PUSH1 0x1 PUSH1 0xA0 SHL SUB DUP3 AND PUSH0 SWAP1 DUP2 MSTORE PUSH1 0x20 DUP2 SWAP1 MSTORE PUSH1 0x40 SWAP1 KECCAK256 DUP1 SLOAD DUP3 ADD SWAP1 SSTORE JUMPDEST DUP2 PUSH1 0x1 PUSH1 0x1 PUSH1 0xA0 SHL SUB AND DUP4 PUSH1 0x1 PUSH1 0x1 PUSH1 0xA0 SHL SUB AND PUSH32 0xDDF252AD1BE2C89B69C2B068FC378DAA952BA7F163C4A11628F55A4DF523B3EF DUP4 PUSH1 0x40 MLOAD PUSH2 0x27C SWAP2 DUP2 MSTORE PUSH1 0x20 ADD SWAP1 JUMP JUMPDEST PUSH1 0x40 MLOAD DUP1 SWAP2 SUB SWAP1 LOG3 POP POP POP JUMP JUMPDEST PUSH4 0x4E487B71 PUSH1 0xE0 SHL PUSH0 MSTORE PUSH1 0x41 PUSH1 0x4 MSTORE PUSH1 0x24 PUSH0 REVERT JUMPDEST PUSH1 0x1 DUP2 DUP2 SHR SWAP1 DUP3 AND DUP1 PUSH2 0x2B1 JUMPI PUSH1 0x7F DUP3 AND SWAP2 POP JUMPDEST PUSH1 0x20 DUP3 LT DUP2 SUB PUSH2 0x2CF JUMPI PUSH4 0x4E487B71 PUSH1 0xE0 SHL PUSH0 MSTORE PUSH1 0x22 PUSH1 0x4 MSTORE PUSH1 0x24 PUSH0 REVERT JUMPDEST POP SWAP2 SWAP1 POP JUMP JUMPDEST PUSH1 0x1F DUP3 GT ISZERO PUSH2 0x31C JUMPI DUP1 PUSH0 MSTORE PUSH1 0x20 PUSH0 KECCAK256 PUSH1 0x1F DUP5 ADD PUSH1 0x5 SHR DUP2 ADD PUSH1 0x20 DUP6 LT ISZERO PUSH2 0x2FA JUMPI POP DUP1 JUMPDEST PUSH1 0x1F DUP5 ADD PUSH1 0x5 SHR DUP3 ADD SWAP2 POP JUMPDEST DUP2 DUP2 LT ISZERO PUSH2 0x319 JUMPI PUSH0 DUP2 SSTORE PUSH1 0x1 ADD PUSH2 0x306 JUMP JUMPDEST POP POP JUMPDEST POP POP POP JUMP JUMPDEST DUP2 MLOAD PUSH1 0x1 PUSH1 0x1 PUSH1 0x40 SHL SUB DUP2 GT ISZERO PUSH2 0x33A JUMPI PUSH2 0x33A PUSH2 0x289 JUMP JUMPDEST PUSH2 0x34E DUP2 PUSH2 0x348 DUP5 SLOAD PUSH2 0x29D JUMP JUMPDEST DUP5 PUSH2 0x2D5 JUMP JUMPDEST PUSH1 0x20 PUSH1 0x1F DUP3 GT PUSH1 0x1 DUP2 EQ PUSH2 0x380 JUMPI PUSH0 DUP4 ISZERO PUSH2 0x369 JUMPI POP DUP5 DUP3 ADD MLOAD JUMPDEST PUSH0 NOT PUSH1 0x3 DUP6 SWAP1 SHL SHR NOT AND PUSH1 0x1 DUP5 SWAP1 SHL OR DUP5 SSTORE PUSH2 0x319 JUMP JUMPDEST PUSH0 DUP5 DUP2 MSTORE PUSH1 0x20 DUP2 KECCAK256 PUSH1 0x1F NOT DUP6 AND SWAP2 JUMPDEST DUP3 DUP2 LT ISZERO PUSH2 0x3AF JUMPI DUP8 DUP6 ADD MLOAD DUP3 SSTORE PUSH1 0x20 SWAP5 DUP6 ADD SWAP5 PUSH1 0x1 SWAP1 SWAP3 ADD SWAP2 ADD PUSH2 0x38F JUMP JUMPDEST POP DUP5 DUP3 LT ISZERO PUSH2 0x3CC JUMPI DUP7 DUP5 ADD MLOAD PUSH0 NOT PUSH1 0x3 DUP8 SWAP1 SHL PUSH1 0xF8 AND SHR NOT AND DUP2 SSTORE JUMPDEST POP POP POP POP PUSH1 0x1 SWAP1 DUP2 SHL ADD SWAP1 SSTORE POP JUMP JUMPDEST PUSH4 0x4E487B71 PUSH1 0xE0 SHL PUSH0 MSTORE PUSH1 0x11 PUSH1 0x4 MSTORE PUSH1 0x24 PUSH0 REVERT JUMPDEST PUSH1 0x1 DUP2 JUMPDEST PUSH1 0x1 DUP5 GT ISZERO PUSH2 0x42A JUMPI DUP1 DUP6 DIV DUP2 GT ISZERO PUSH2 0x40E JUMPI PUSH2 0x40E PUSH2 0x3DB JUMP JUMPDEST PUSH1 0x1 DUP5 AND ISZERO PUSH2 0x41C JUMPI SWAP1 DUP2 MUL SWAP1 JUMPDEST PUSH1 0x1 SWAP4 SWAP1 SWAP4 SHR SWAP3 DUP1 MUL PUSH2 0x3F3 JUMP JUMPDEST SWAP4 POP SWAP4 SWAP2 POP POP JUMP JUMPDEST PUSH0 DUP3 PUSH2 0x440 JUMPI POP PUSH1 0x1 PUSH2 0x4CE JUMP JUMPDEST DUP2 PUSH2 0x44C JUMPI POP PUSH0 PUSH2 0x4CE JUMP JUMPDEST DUP2 PUSH1 0x1 DUP2 EQ PUSH2 0x462 JUMPI PUSH1 0x2 DUP2 EQ PUSH2 0x46C JUMPI PUSH2 0x488 JUMP JUMPDEST PUSH1 0x1 SWAP2 POP POP PUSH2 0x4CE JUMP JUMPDEST PUSH1 0xFF DUP5 GT ISZERO PUSH2 0x47D JUMPI PUSH2 0x47D PUSH2 0x3DB JUMP JUMPDEST POP POP PUSH1 0x1 DUP3 SHL PUSH2 0x4CE JUMP JUMPDEST POP PUSH1 0x20 DUP4 LT PUSH2 0x133 DUP4 LT AND PUSH1 0x4E DUP5 LT PUSH1 0xB DUP5 LT AND OR ISZERO PUSH2 0x4AB JUMPI POP DUP2 DUP2 EXP PUSH2 0x4CE JUMP JUMPDEST PUSH2 0x4B7 PUSH0 NOT DUP5 DUP5 PUSH2 0x3EF JUMP JUMPDEST DUP1 PUSH0 NOT DIV DUP3 GT ISZERO PUSH2 0x4CA JUMPI PUSH2 0x4CA PUSH2 0x3DB JUMP JUMPDEST MUL SWAP1 POP JUMPDEST SWAP3 SWAP2 POP POP JUMP JUMPDEST PUSH0 PUSH2 0x4E2 PUSH1 0xFF DUP5 AND DUP4 PUSH2 0x432 JUMP JUMPDEST SWAP4 SWAP3 POP POP POP JUMP JUMPDEST DUP1 DUP3 MUL DUP2 ISZERO DUP3 DUP3 DIV DUP5 EQ OR PUSH2 0x4CE JUMPI PUSH2 0x4CE PUSH2 0x3DB JUMP JUMPDEST DUP1 DUP3 ADD DUP1 DUP3 GT ISZERO PUSH2 0x4CE JUMPI PUSH2 0x4CE PUSH2 0x3DB JUMP JUMPDEST PUSH2 0xCF1 DUP1 PUSH2 0x520 PUSH0 CODECOPY PUSH0 RETURN INVALID PUSH1 0x80 PUSH1 0x40 MSTORE CALLVALUE DUP1 ISZERO PUSH2 0xF JUMPI PUSH0 DUP1 REVERT JUMPDEST POP PUSH1 0x4 CALLDATASIZE LT PUSH2 0xCB JUMPI PUSH0 CALLDATALOAD PUSH1 0xE0 SHR DUP1 PUSH4 0x715018A6 GT PUSH2 0x88 JUMPI DUP1 PUSH4 0xA9059CBB GT PUSH2 0x63 JUMPI DUP1 PUSH4 0xA9059CBB EQ PUSH2 0x199 JUMPI DUP1 PUSH4 0xDC881D1C EQ PUSH2 0x1AC JUMPI DUP1 PUSH4 0xDD62ED3E EQ PUSH2 0x1B4 JUMPI DUP1 PUSH4 0xF2FDE38B EQ PUSH2 0x1EC JUMPI PUSH0 DUP1 REVERT JUMPDEST DUP1 PUSH4 0x715018A6 EQ PUSH2 0x16C JUMPI DUP1 PUSH4 0x8DA5CB5B EQ PUSH2 0x176 JUMPI DUP1 PUSH4 0x95D89B41 EQ PUSH2 0x191 JUMPI PUSH0 DUP1 REVERT JUMPDEST DUP1 PUSH4 0x6FDDE03 EQ PUSH2 0xCF JUMPI DUP1 PUSH4 0x95EA7B3 EQ PUSH2 0xED JUMPI DUP1 PUSH4 0x18160DDD EQ PUSH2 0x110 JUMPI DUP1 PUSH4 0x23B872DD EQ PUSH2 0x122 JUMPI DUP1 PUSH4 0x313CE567 EQ PUSH2 0x135 JUMPI DUP1 PUSH4 0x70A08231 EQ PUSH2 0x144 JUMPI JUMPDEST PUSH0 DUP1 REVERT JUMPDEST PUSH2 0xD7 PUSH2 0x1FF JUMP JUMPDEST PUSH1 0x40 MLOAD PUSH2 0xE4 SWAP2 SWAP1 PUSH2 0x966 JUMP JUMPDEST PUSH1 0x40 MLOAD DUP1 SWAP2 SUB SWAP1 RETURN JUMPDEST PUSH2 0x100 PUSH2 0xFB CALLDATASIZE PUSH1 0x4 PUSH2 0x99A JUMP JUMPDEST PUSH2 0x28F JUMP JUMPDEST PUSH1 0x40 MLOAD SWAP1 ISZERO ISZERO DUP2 MSTORE PUSH1 0x20 ADD PUSH2 0xE4 JUMP JUMPDEST PUSH1 0x2 SLOAD JUMPDEST PUSH1 0x40 MLOAD SWAP1 DUP2 MSTORE PUSH1 0x20 ADD PUSH2 0xE4 JUMP JUMPDEST PUSH2 0x100 PUSH2 0x130 CALLDATASIZE PUSH1 0x4 PUSH2 0x9C2 JUMP JUMPDEST PUSH2 0x2A8 JUMP JUMPDEST PUSH1 0x40 MLOAD PUSH1 0x12 DUP2 MSTORE PUSH1 0x20 ADD PUSH2 0xE4 JUMP JUMPDEST PUSH2 0x114 PUSH2 0x152 CALLDATASIZE PUSH1 0x4 PUSH2 0x9FC JUMP JUMPDEST PUSH1 0x1 PUSH1 0x1 PUSH1 0xA0 SHL SUB AND PUSH0 SWAP1 DUP2 MSTORE PUSH1 0x20 DUP2 SWAP1 MSTORE PUSH1 0x40 SWAP1 KECCAK256 SLOAD SWAP1 JUMP JUMPDEST PUSH2 0x174 PUSH2 0x2CB JUMP JUMPDEST STOP JUMPDEST PUSH1 0x5 SLOAD PUSH1 0x40 MLOAD PUSH1 0x1 PUSH1 0x1 PUSH1 0xA0 SHL SUB SWAP1 SWAP2 AND DUP2 MSTORE PUSH1 0x20 ADD PUSH2 0xE4 JUMP JUMPDEST PUSH2 0xD7 PUSH2 0x2DE JUMP JUMPDEST PUSH2 0x100 PUSH2 0x1A7 CALLDATASIZE PUSH1 0x4 PUSH2 0x99A JUMP JUMPDEST PUSH2 0x2ED JUMP JUMPDEST PUSH2 0x174 PUSH2 0x2FA JUMP JUMPDEST PUSH2 0x114 PUSH2 0x1C2 CALLDATASIZE PUSH1 0x4 PUSH2 0xA15 JUMP JUMPDEST PUSH1 0x1 PUSH1 0x1 PUSH1 0xA0 SHL SUB SWAP2 DUP3 AND PUSH0 SWAP1 DUP2 MSTORE PUSH1 0x1 PUSH1 0x20 SWAP1 DUP2 MSTORE PUSH1 0x40 DUP1 DUP4 KECCAK256 SWAP4 SWAP1 SWAP5 AND DUP3 MSTORE SWAP2 SWAP1 SWAP2 MSTORE KECCAK256 SLOAD SWAP1 JUMP JUMPDEST PUSH2 0x174 PUSH2 0x1FA CALLDATASIZE PUSH1 0x4 PUSH2 0x9FC JUMP JUMPDEST PUSH2 0x599 JUMP JUMPDEST PUSH1 0x60 PUSH1 0x3 DUP1 SLOAD PUSH2 0x20E SWAP1 PUSH2 0xA46 JUMP JUMPDEST DUP1 PUSH1 0x1F ADD PUSH1 0x20 DUP1 SWAP2 DIV MUL PUSH1 0x20 ADD PUSH1 0x40 MLOAD SWAP1 DUP2 ADD PUSH1 0x40 MSTORE DUP1 SWAP3 SWAP2 SWAP1 DUP2 DUP2 MSTORE PUSH1 0x20 ADD DUP3 DUP1 SLOAD PUSH2 0x23A SWAP1 PUSH2 0xA46 JUMP JUMPDEST DUP1 ISZERO PUSH2 0x285 JUMPI DUP1 PUSH1 0x1F LT PUSH2 0x25C JUMPI PUSH2 0x100 DUP1 DUP4 SLOAD DIV MUL DUP4 MSTORE SWAP2 PUSH1 0x20 ADD SWAP2 PUSH2 0x285 JUMP JUMPDEST DUP3 ADD SWAP2 SWAP1 PUSH0 MSTORE PUSH1 0x20 PUSH0 KECCAK256 SWAP1 JUMPDEST DUP2 SLOAD DUP2 MSTORE SWAP1 PUSH1 0x1 ADD SWAP1 PUSH1 0x20 ADD DUP1 DUP4 GT PUSH2 0x268 JUMPI DUP3 SWAP1 SUB PUSH1 0x1F AND DUP3 ADD SWAP2 JUMPDEST POP POP POP POP POP SWAP1 POP SWAP1 JUMP JUMPDEST PUSH0 CALLER PUSH2 0x29C DUP2 DUP6 DUP6 PUSH2 0x5D8 JUMP JUMPDEST PUSH1 0x1 SWAP2 POP POP JUMPDEST SWAP3 SWAP2 POP POP JUMP JUMPDEST PUSH0 CALLER PUSH2 0x2B5 DUP6 DUP3 DUP6 PUSH2 0x5EA JUMP JUMPDEST PUSH2 0x2C0 DUP6 DUP6 DUP6 PUSH2 0x665 JUMP JUMPDEST POP PUSH1 0x1 SWAP5 SWAP4 POP POP POP POP JUMP JUMPDEST PUSH2 0x2D3 PUSH2 0x6C2 JUMP JUMPDEST PUSH2 0x2DC PUSH0 PUSH2 0x6EF JUMP JUMPDEST JUMP JUMPDEST PUSH1 0x60 PUSH1 0x4 DUP1 SLOAD PUSH2 0x20E SWAP1 PUSH2 0xA46 JUMP JUMPDEST PUSH0 CALLER PUSH2 0x29C DUP2 DUP6 DUP6 PUSH2 0x665 JUMP JUMPDEST PUSH20 0x0 PUSH4 0xE8C2CB16 PUSH2 0x31C PUSH2 0x1FF JUMP JUMPDEST PUSH1 0x40 MLOAD DUP3 PUSH4 0xFFFFFFFF AND PUSH1 0xE0 SHL DUP2 MSTORE PUSH1 0x4 ADD PUSH2 0x338 SWAP2 SWAP1 PUSH2 0xA7E JUMP JUMPDEST PUSH1 0x20 PUSH1 0x40 MLOAD DUP1 DUP4 SUB DUP2 DUP7 GAS DELEGATECALL ISZERO DUP1 ISZERO PUSH2 0x353 JUMPI RETURNDATASIZE PUSH0 DUP1 RETURNDATACOPY RETURNDATASIZE PUSH0 REVERT JUMPDEST POP POP POP POP PUSH1 0x40 MLOAD RETURNDATASIZE PUSH1 0x1F NOT PUSH1 0x1F DUP3 ADD AND DUP3 ADD DUP1 PUSH1 0x40 MSTORE POP DUP2 ADD SWAP1 PUSH2 0x377 SWAP2 SWAP1 PUSH2 0xAFC JUMP JUMPDEST POP PUSH20 0x0 PUSH4 0xE8C2CB16 PUSH2 0x39A PUSH2 0x2DE JUMP JUMPDEST PUSH1 0x40 MLOAD DUP3 PUSH4 0xFFFFFFFF AND PUSH1 0xE0 SHL DUP2 MSTORE PUSH1 0x4 ADD PUSH2 0x3B6 SWAP2 SWAP1 PUSH2 0xB1B JUMP JUMPDEST PUSH1 0x20 PUSH1 0x40 MLOAD DUP1 DUP4 SUB DUP2 DUP7 GAS DELEGATECALL ISZERO DUP1 ISZERO PUSH2 0x3D1 JUMPI RETURNDATASIZE PUSH0 DUP1 RETURNDATACOPY RETURNDATASIZE PUSH0 REVERT JUMPDEST POP POP POP POP PUSH1 0x40 MLOAD RETURNDATASIZE PUSH1 0x1F NOT PUSH1 0x1F DUP3 ADD AND DUP3 ADD DUP1 PUSH1 0x40 MSTORE POP DUP2 ADD SWAP1 PUSH2 0x3F5 SWAP2 SWAP1 PUSH2 0xAFC JUMP JUMPDEST POP PUSH20 0x0 PUSH4 0xABCD7960 PUSH1 0x12 PUSH1 0x40 MLOAD PUSH1 0x1 PUSH1 0x1 PUSH1 0xE0 SHL SUB NOT PUSH1 0xE0 DUP5 SWAP1 SHL AND DUP2 MSTORE PUSH1 0xFF SWAP1 SWAP2 AND PUSH1 0x4 DUP3 ADD MSTORE PUSH1 0x12 PUSH1 0x24 DUP3 ADD MSTORE PUSH1 0x60 PUSH1 0x44 DUP3 ADD MSTORE PUSH1 0x1C PUSH1 0x64 DUP3 ADD MSTORE PUSH32 0x546F6B656E20646563696D616C7320646964206E6F74206D6174636800000000 PUSH1 0x84 DUP3 ADD MSTORE PUSH1 0xA4 ADD PUSH1 0x20 PUSH1 0x40 MLOAD DUP1 DUP4 SUB DUP2 DUP7 GAS DELEGATECALL ISZERO DUP1 ISZERO PUSH2 0x489 JUMPI RETURNDATASIZE PUSH0 DUP1 RETURNDATACOPY RETURNDATASIZE PUSH0 REVERT JUMPDEST POP POP POP POP PUSH1 0x40 MLOAD RETURNDATASIZE PUSH1 0x1F NOT PUSH1 0x1F DUP3 ADD AND DUP3 ADD DUP1 PUSH1 0x40 MSTORE POP DUP2 ADD SWAP1 PUSH2 0x4AD SWAP2 SWAP1 PUSH2 0xAFC JUMP JUMPDEST POP PUSH20 0x0 PUSH4 0xABCD7960 PUSH2 0x4D1 PUSH1 0x2 SLOAD SWAP1 JUMP JUMPDEST PUSH2 0x4DD PUSH1 0x12 PUSH1 0xA PUSH2 0xC83 JUMP JUMPDEST PUSH2 0x4EA SWAP1 PUSH3 0xF4240 PUSH2 0xC91 JUMP JUMPDEST PUSH1 0x40 MLOAD PUSH1 0x1 PUSH1 0x1 PUSH1 0xE0 SHL SUB NOT PUSH1 0xE0 DUP6 SWAP1 SHL AND DUP2 MSTORE PUSH1 0x4 DUP2 ADD SWAP3 SWAP1 SWAP3 MSTORE PUSH1 0x24 DUP3 ADD MSTORE PUSH1 0x60 PUSH1 0x44 DUP3 ADD MSTORE PUSH1 0x2C PUSH1 0x64 DUP3 ADD MSTORE PUSH32 0x546F6B656E20737570706C792073686F756C64206D617463682074686520696E PUSH1 0x84 DUP3 ADD MSTORE PUSH12 0x697469616C20737570706C79 PUSH1 0xA0 SHL PUSH1 0xA4 DUP3 ADD MSTORE PUSH1 0xC4 ADD PUSH1 0x20 PUSH1 0x40 MLOAD DUP1 DUP4 SUB DUP2 DUP7 GAS DELEGATECALL ISZERO DUP1 ISZERO PUSH2 0x572 JUMPI RETURNDATASIZE PUSH0 DUP1 RETURNDATACOPY RETURNDATASIZE PUSH0 REVERT JUMPDEST POP POP POP POP PUSH1 0x40 MLOAD RETURNDATASIZE PUSH1 0x1F NOT PUSH1 0x1F DUP3 ADD AND DUP3 ADD DUP1 PUSH1 0x40 MSTORE POP DUP2 ADD SWAP1 PUSH2 0x596 SWAP2 SWAP1 PUSH2 0xAFC JUMP JUMPDEST POP JUMP JUMPDEST PUSH2 0x5A1 PUSH2 0x6C2 JUMP JUMPDEST PUSH1 0x1 PUSH1 0x1 PUSH1 0xA0 SHL SUB DUP2 AND PUSH2 0x5CF JUMPI PUSH1 0x40 MLOAD PUSH4 0x1E4FBDF7 PUSH1 0xE0 SHL DUP2 MSTORE PUSH0 PUSH1 0x4 DUP3 ADD MSTORE PUSH1 0x24 ADD JUMPDEST PUSH1 0x40 MLOAD DUP1 SWAP2 SUB SWAP1 REVERT JUMPDEST PUSH2 0x596 DUP2 PUSH2 0x6EF JUMP JUMPDEST PUSH2 0x5E5 DUP4 DUP4 DUP4 PUSH1 0x1 PUSH2 0x740 JUMP JUMPDEST POP POP POP JUMP JUMPDEST PUSH1 0x1 PUSH1 0x1 PUSH1 0xA0 SHL SUB DUP4 DUP2 AND PUSH0 SWAP1 DUP2 MSTORE PUSH1 0x1 PUSH1 0x20 SWAP1 DUP2 MSTORE PUSH1 0x40 DUP1 DUP4 KECCAK256 SWAP4 DUP7 AND DUP4 MSTORE SWAP3 SWAP1 MSTORE KECCAK256 SLOAD PUSH0 NOT DUP2 EQ PUSH2 0x65F JUMPI DUP2 DUP2 LT ISZERO PUSH2 0x651 JUMPI PUSH1 0x40 MLOAD PUSH4 0x7DC7A0D9 PUSH1 0xE1 SHL DUP2 MSTORE PUSH1 0x1 PUSH1 0x1 PUSH1 0xA0 SHL SUB DUP5 AND PUSH1 0x4 DUP3 ADD MSTORE PUSH1 0x24 DUP2 ADD DUP3 SWAP1 MSTORE PUSH1 0x44 DUP2 ADD DUP4 SWAP1 MSTORE PUSH1 0x64 ADD PUSH2 0x5C6 JUMP JUMPDEST PUSH2 0x65F DUP5 DUP5 DUP5 DUP5 SUB PUSH0 PUSH2 0x740 JUMP JUMPDEST POP POP POP POP JUMP JUMPDEST PUSH1 0x1 PUSH1 0x1 PUSH1 0xA0 SHL SUB DUP4 AND PUSH2 0x68E JUMPI PUSH1 0x40 MLOAD PUSH4 0x4B637E8F PUSH1 0xE1 SHL DUP2 MSTORE PUSH0 PUSH1 0x4 DUP3 ADD MSTORE PUSH1 0x24 ADD PUSH2 0x5C6 JUMP JUMPDEST PUSH1 0x1 PUSH1 0x1 PUSH1 0xA0 SHL SUB DUP3 AND PUSH2 0x6B7 JUMPI PUSH1 0x40 MLOAD PUSH4 0xEC442F05 PUSH1 0xE0 SHL DUP2 MSTORE PUSH0 PUSH1 0x4 DUP3 ADD MSTORE PUSH1 0x24 ADD PUSH2 0x5C6 JUMP JUMPDEST PUSH2 0x5E5 DUP4 DUP4 DUP4 PUSH2 0x812 JUMP JUMPDEST PUSH1 0x5 SLOAD PUSH1 0x1 PUSH1 0x1 PUSH1 0xA0 SHL SUB AND CALLER EQ PUSH2 0x2DC JUMPI PUSH1 0x40 MLOAD PUSH4 0x118CDAA7 PUSH1 0xE0 SHL DUP2 MSTORE CALLER PUSH1 0x4 DUP3 ADD MSTORE PUSH1 0x24 ADD PUSH2 0x5C6 JUMP JUMPDEST PUSH1 0x5 DUP1 SLOAD PUSH1 0x1 PUSH1 0x1 PUSH1 0xA0 SHL SUB DUP4 DUP2 AND PUSH1 0x1 PUSH1 0x1 PUSH1 0xA0 SHL SUB NOT DUP4 AND DUP2 OR SWAP1 SWAP4 SSTORE PUSH1 0x40 MLOAD SWAP2 AND SWAP2 SWAP1 DUP3 SWAP1 PUSH32 0x8BE0079C531659141344CD1FD0A4F28419497F9722A3DAAFE3B4186F6B6457E0 SWAP1 PUSH0 SWAP1 LOG3 POP POP JUMP JUMPDEST PUSH1 0x1 PUSH1 0x1 PUSH1 0xA0 SHL SUB DUP5 AND PUSH2 0x769 JUMPI PUSH1 0x40 MLOAD PUSH4 0xE602DF05 PUSH1 0xE0 SHL DUP2 MSTORE PUSH0 PUSH1 0x4 DUP3 ADD MSTORE PUSH1 0x24 ADD PUSH2 0x5C6 JUMP JUMPDEST PUSH1 0x1 PUSH1 0x1 PUSH1 0xA0 SHL SUB DUP4 AND PUSH2 0x792 JUMPI PUSH1 0x40 MLOAD PUSH4 0x4A1406B1 PUSH1 0xE1 SHL DUP2 MSTORE PUSH0 PUSH1 0x4 DUP3 ADD MSTORE PUSH1 0x24 ADD PUSH2 0x5C6 JUMP JUMPDEST PUSH1 0x1 PUSH1 0x1 PUSH1 0xA0 SHL SUB DUP1 DUP6 AND PUSH0 SWAP1 DUP2 MSTORE PUSH1 0x1 PUSH1 0x20 SWAP1 DUP2 MSTORE PUSH1 0x40 DUP1 DUP4 KECCAK256 SWAP4 DUP8 AND DUP4 MSTORE SWAP3 SWAP1 MSTORE KECCAK256 DUP3 SWAP1 SSTORE DUP1 ISZERO PUSH2 0x65F JUMPI DUP3 PUSH1 0x1 PUSH1 0x1 PUSH1 0xA0 SHL SUB AND DUP5 PUSH1 0x1 PUSH1 0x1 PUSH1 0xA0 SHL SUB AND PUSH32 0x8C5BE1E5EBEC7D5BD14F71427D1E84F3DD0314C0F7B2291E5B200AC8C7C3B925 DUP5 PUSH1 0x40 MLOAD PUSH2 0x804 SWAP2 DUP2 MSTORE PUSH1 0x20 ADD SWAP1 JUMP JUMPDEST PUSH1 0x40 MLOAD DUP1 SWAP2 SUB SWAP1 LOG3 POP POP POP POP JUMP JUMPDEST PUSH1 0x1 PUSH1 0x1 PUSH1 0xA0 SHL SUB DUP4 AND PUSH2 0x83C JUMPI DUP1 PUSH1 0x2 PUSH0 DUP3 DUP3 SLOAD PUSH2 0x831 SWAP2 SWAP1 PUSH2 0xCA8 JUMP JUMPDEST SWAP1 SWAP2 SSTORE POP PUSH2 0x8AC SWAP1 POP JUMP JUMPDEST PUSH1 0x1 PUSH1 0x1 PUSH1 0xA0 SHL SUB DUP4 AND PUSH0 SWAP1 DUP2 MSTORE PUSH1 0x20 DUP2 SWAP1 MSTORE PUSH1 0x40 SWAP1 KECCAK256 SLOAD DUP2 DUP2 LT ISZERO PUSH2 0x88E JUMPI PUSH1 0x40 MLOAD PUSH4 0x391434E3 PUSH1 0xE2 SHL DUP2 MSTORE PUSH1 0x1 PUSH1 0x1 PUSH1 0xA0 SHL SUB DUP6 AND PUSH1 0x4 DUP3 ADD MSTORE PUSH1 0x24 DUP2 ADD DUP3 SWAP1 MSTORE PUSH1 0x44 DUP2 ADD DUP4 SWAP1 MSTORE PUSH1 0x64 ADD PUSH2 0x5C6 JUMP JUMPDEST PUSH1 0x1 PUSH1 0x1 PUSH1 0xA0 SHL SUB DUP5 AND PUSH0 SWAP1 DUP2 MSTORE PUSH1 0x20 DUP2 SWAP1 MSTORE PUSH1 0x40 SWAP1 KECCAK256 SWAP1 DUP3 SWAP1 SUB SWAP1 SSTORE JUMPDEST PUSH1 0x1 PUSH1 0x1 PUSH1 0xA0 SHL SUB DUP3 AND PUSH2 0x8C8 JUMPI PUSH1 0x2 DUP1 SLOAD DUP3 SWAP1 SUB SWAP1 SSTORE PUSH2 0x8E6 JUMP JUMPDEST PUSH1 0x1 PUSH1 0x1 PUSH1 0xA0 SHL SUB DUP3 AND PUSH0 SWAP1 DUP2 MSTORE PUSH1 0x20 DUP2 SWAP1 MSTORE PUSH1 0x40 SWAP1 KECCAK256 DUP1 SLOAD DUP3 ADD SWAP1 SSTORE JUMPDEST DUP2 PUSH1 0x1 PUSH1 0x1 PUSH1 0xA0 SHL SUB AND DUP4 PUSH1 0x1 PUSH1 0x1 PUSH1 0xA0 SHL SUB AND PUSH32 0xDDF252AD1BE2C89B69C2B068FC378DAA952BA7F163C4A11628F55A4DF523B3EF DUP4 PUSH1 0x40 MLOAD PUSH2 0x92B SWAP2 DUP2 MSTORE PUSH1 0x20 ADD SWAP1 JUMP JUMPDEST PUSH1 0x40 MLOAD DUP1 SWAP2 SUB SWAP1 LOG3 POP POP POP JUMP JUMPDEST PUSH0 DUP2 MLOAD DUP1 DUP5 MSTORE DUP1 PUSH1 0x20 DUP5 ADD PUSH1 0x20 DUP7 ADD MCOPY PUSH0 PUSH1 0x20 DUP3 DUP7 ADD ADD MSTORE PUSH1 0x20 PUSH1 0x1F NOT PUSH1 0x1F DUP4 ADD AND DUP6 ADD ADD SWAP2 POP POP SWAP3 SWAP2 POP POP JUMP JUMPDEST PUSH1 0x20 DUP2 MSTORE PUSH0 PUSH2 0x978 PUSH1 0x20 DUP4 ADD DUP5 PUSH2 0x938 JUMP JUMPDEST SWAP4 SWAP3 POP POP POP JUMP JUMPDEST DUP1 CALLDATALOAD PUSH1 0x1 PUSH1 0x1 PUSH1 0xA0 SHL SUB DUP2 AND DUP2 EQ PUSH2 0x995 JUMPI PUSH0 DUP1 REVERT JUMPDEST SWAP2 SWAP1 POP JUMP JUMPDEST PUSH0 DUP1 PUSH1 0x40 DUP4 DUP6 SUB SLT ISZERO PUSH2 0x9AB JUMPI PUSH0 DUP1 REVERT JUMPDEST PUSH2 0x9B4 DUP4 PUSH2 0x97F JUMP JUMPDEST SWAP5 PUSH1 0x20 SWAP4 SWAP1 SWAP4 ADD CALLDATALOAD SWAP4 POP POP POP JUMP JUMPDEST PUSH0 DUP1 PUSH0 PUSH1 0x60 DUP5 DUP7 SUB SLT ISZERO PUSH2 0x9D4 JUMPI PUSH0 DUP1 REVERT JUMPDEST PUSH2 0x9DD DUP5 PUSH2 0x97F JUMP JUMPDEST SWAP3 POP PUSH2 0x9EB PUSH1 0x20 DUP6 ADD PUSH2 0x97F JUMP JUMPDEST SWAP3 SWAP6 SWAP3 SWAP5 POP POP POP PUSH1 0x40 SWAP2 SWAP1 SWAP2 ADD CALLDATALOAD SWAP1 JUMP JUMPDEST PUSH0 PUSH1 0x20 DUP3 DUP5 SUB SLT ISZERO PUSH2 0xA0C JUMPI PUSH0 DUP1 REVERT JUMPDEST PUSH2 0x978 DUP3 PUSH2 0x97F JUMP JUMPDEST PUSH0 DUP1 PUSH1 0x40 DUP4 DUP6 SUB SLT ISZERO PUSH2 0xA26 JUMPI PUSH0 DUP1 REVERT JUMPDEST PUSH2 0xA2F DUP4 PUSH2 0x97F JUMP JUMPDEST SWAP2 POP PUSH2 0xA3D PUSH1 0x20 DUP5 ADD PUSH2 0x97F JUMP JUMPDEST SWAP1 POP SWAP3 POP SWAP3 SWAP1 POP JUMP JUMPDEST PUSH1 0x1 DUP2 DUP2 SHR SWAP1 DUP3 AND DUP1 PUSH2 0xA5A JUMPI PUSH1 0x7F DUP3 AND SWAP2 POP JUMPDEST PUSH1 0x20 DUP3 LT DUP2 SUB PUSH2 0xA78 JUMPI PUSH4 0x4E487B71 PUSH1 0xE0 SHL PUSH0 MSTORE PUSH1 0x22 PUSH1 0x4 MSTORE PUSH1 0x24 PUSH0 REVERT JUMPDEST POP SWAP2 SWAP1 POP JUMP JUMPDEST PUSH1 0x60 DUP2 MSTORE PUSH0 PUSH2 0xA90 PUSH1 0x60 DUP4 ADD DUP5 PUSH2 0x938 JUMP JUMPDEST DUP3 DUP2 SUB DUP1 PUSH1 0x20 DUP6 ADD MSTORE PUSH1 0x12 DUP3 MSTORE PUSH18 0x20B23B32B73A3AB932AA34B6B2AA37B5B2B7 PUSH1 0x71 SHL PUSH1 0x20 DUP4 ADD MSTORE PUSH1 0x40 DUP2 ADD PUSH1 0x40 DUP6 ADD MSTORE POP PUSH1 0x18 PUSH1 0x40 DUP3 ADD MSTORE PUSH32 0x546F6B656E206E616D6520646964206E6F74206D617463680000000000000000 PUSH1 0x60 DUP3 ADD MSTORE PUSH1 0x80 DUP2 ADD SWAP2 POP POP SWAP3 SWAP2 POP POP JUMP JUMPDEST PUSH0 PUSH1 0x20 DUP3 DUP5 SUB SLT ISZERO PUSH2 0xB0C JUMPI PUSH0 DUP1 REVERT JUMPDEST DUP2 MLOAD DUP1 ISZERO ISZERO DUP2 EQ PUSH2 0x978 JUMPI PUSH0 DUP1 REVERT JUMPDEST PUSH1 0x60 DUP2 MSTORE PUSH0 PUSH2 0xB2D PUSH1 0x60 DUP4 ADD DUP5 PUSH2 0x938 JUMP JUMPDEST DUP3 DUP2 SUB DUP1 PUSH1 0x20 DUP6 ADD MSTORE PUSH1 0x5 DUP3 MSTORE PUSH5 0x4154494D45 PUSH1 0xD8 SHL PUSH1 0x20 DUP4 ADD MSTORE PUSH1 0x40 DUP2 ADD PUSH1 0x40 DUP6 ADD MSTORE POP PUSH1 0x1A PUSH1 0x40 DUP3 ADD MSTORE PUSH32 0x546F6B656E2073796D626F6C20646964206E6F74206D61746368000000000000 PUSH1 0x60 DUP3 ADD MSTORE PUSH1 0x80 DUP2 ADD SWAP2 POP POP SWAP3 SWAP2 POP POP JUMP JUMPDEST PUSH4 0x4E487B71 PUSH1 0xE0 SHL PUSH0 MSTORE PUSH1 0x11 PUSH1 0x4 MSTORE PUSH1 0x24 PUSH0 REVERT JUMPDEST PUSH1 0x1 DUP2 JUMPDEST PUSH1 0x1 DUP5 GT ISZERO PUSH2 0xBDB JUMPI DUP1 DUP6 DIV DUP2 GT ISZERO PUSH2 0xBBF JUMPI PUSH2 0xBBF PUSH2 0xB8C JUMP JUMPDEST PUSH1 0x1 DUP5 AND ISZERO PUSH2 0xBCD JUMPI SWAP1 DUP2 MUL SWAP1 JUMPDEST PUSH1 0x1 SWAP4 SWAP1 SWAP4 SHR SWAP3 DUP1 MUL PUSH2 0xBA4 JUMP JUMPDEST SWAP4 POP SWAP4 SWAP2 POP POP JUMP JUMPDEST PUSH0 DUP3 PUSH2 0xBF1 JUMPI POP PUSH1 0x1 PUSH2 0x2A2 JUMP JUMPDEST DUP2 PUSH2 0xBFD JUMPI POP PUSH0 PUSH2 0x2A2 JUMP JUMPDEST DUP2 PUSH1 0x1 DUP2 EQ PUSH2 0xC13 JUMPI PUSH1 0x2 DUP2 EQ PUSH2 0xC1D JUMPI PUSH2 0xC39 JUMP JUMPDEST PUSH1 0x1 SWAP2 POP POP PUSH2 0x2A2 JUMP JUMPDEST PUSH1 0xFF DUP5 GT ISZERO PUSH2 0xC2E JUMPI PUSH2 0xC2E PUSH2 0xB8C JUMP JUMPDEST POP POP PUSH1 0x1 DUP3 SHL PUSH2 0x2A2 JUMP JUMPDEST POP PUSH1 0x20 DUP4 LT PUSH2 0x133 DUP4 LT AND PUSH1 0x4E DUP5 LT PUSH1 0xB DUP5 LT AND OR ISZERO PUSH2 0xC5C JUMPI POP DUP2 DUP2 EXP PUSH2 0x2A2 JUMP JUMPDEST PUSH2 0xC68 PUSH0 NOT DUP5 DUP5 PUSH2 0xBA0 JUMP JUMPDEST DUP1 PUSH0 NOT DIV DUP3 GT ISZERO PUSH2 0xC7B JUMPI PUSH2 0xC7B PUSH2 0xB8C JUMP JUMPDEST MUL SWAP4 SWAP3 POP POP POP JUMP JUMPDEST PUSH0 PUSH2 0x978 PUSH1 0xFF DUP5 AND DUP4 PUSH2 0xBE3 JUMP JUMPDEST DUP1 DUP3 MUL DUP2 ISZERO DUP3 DUP3 DIV DUP5 EQ OR PUSH2 0x2A2 JUMPI PUSH2 0x2A2 PUSH2 0xB8C JUMP JUMPDEST DUP1 DUP3 ADD DUP1 DUP3 GT ISZERO PUSH2 0x2A2 JUMPI PUSH2 0x2A2 PUSH2 0xB8C JUMP INVALID LOG2 PUSH5 0x6970667358 0x22 SLT KECCAK256 MSTORE 0xB1 DUP10 SWAP12 0xDF 0xC3 BLOBBASEFEE 0xBB 0xF7 0xC8 DUP3 CALLDATACOPY 0xB4 0xDD SWAP13 SWAP16 MSTORE8 0xDB INVALID 0xC5 LT OR POP 0xBF 0xBC 0xB4 0xE9 LOG0 0xD8 ISZERO SWAP7 BLOCKHASH PUSH5 0x736F6C6343 STOP ADDMOD BYTE STOP CALLER "
		},
		"gasEstimates": {
			"creation": {
				"codeDepositCost": "662600",
				"executionCost": "infinite",
				"totalCost": "infinite"
			},
			"external": {
				"allowance(address,address)": "infinite",
				"approve(address,uint256)": "24735",
				"balanceOf(address)": "2648",
				"decimals()": "265",
				"name()": "infinite",
				"owner()": "2345",
				"renounceOwnership()": "infinite",
				"symbol()": "infinite",
				"testTokenInitialValues()": "infinite",
				"totalSupply()": "2325",
				"transfer(address,uint256)": "51238",
				"transferFrom(address,address,uint256)": "infinite",
				"transferOwnership(address)": "28421"
			}
		},
		"methodIdentifiers": {
			"allowance(address,address)": "dd62ed3e",
			"approve(address,uint256)": "095ea7b3",
			"balanceOf(address)": "70a08231",
			"decimals()": "313ce567",
			"name()": "06fdde03",
			"owner()": "8da5cb5b",
			"renounceOwnership()": "715018a6",
			"symbol()": "95d89b41",
			"testTokenInitialValues()": "dc881d1c",
			"totalSupply()": "18160ddd",
			"transfer(address,uint256)": "a9059cbb",
			"transferFrom(address,address,uint256)": "23b872dd",
			"transferOwnership(address)": "f2fde38b"
		}
	},
	"abi": [
		{
			"inputs": [],
			"stateMutability": "nonpayable",
			"type": "constructor"
		},
		{
			"inputs": [
				{
					"internalType": "address",
					"name": "spender",
					"type": "address"
				},
				{
					"internalType": "uint256",
					"name": "allowance",
					"type": "uint256"
				},
				{
					"internalType": "uint256",
					"name": "needed",
					"type": "uint256"
				}
			],
			"name": "ERC20InsufficientAllowance",
			"type": "error"
		},
		{
			"inputs": [
				{
					"internalType": "address",
					"name": "sender",
					"type": "address"
				},
				{
					"internalType": "uint256",
					"name": "balance",
					"type": "uint256"
				},
				{
					"internalType": "uint256",
					"name": "needed",
					"type": "uint256"
				}
			],
			"name": "ERC20InsufficientBalance",
			"type": "error"
		},
		{
			"inputs": [
				{
					"internalType": "address",
					"name": "approver",
					"type": "address"
				}
			],
			"name": "ERC20InvalidApprover",
			"type": "error"
		},
		{
			"inputs": [
				{
					"internalType": "address",
					"name": "receiver",
					"type": "address"
				}
			],
			"name": "ERC20InvalidReceiver",
			"type": "error"
		},
		{
			"inputs": [
				{
					"internalType": "address",
					"name": "sender",
					"type": "address"
				}
			],
			"name": "ERC20InvalidSender",
			"type": "error"
		},
		{
			"inputs": [
				{
					"internalType": "address",
					"name": "spender",
					"type": "address"
				}
			],
			"name": "ERC20InvalidSpender",
			"type": "error"
		},
		{
			"inputs": [
				{
					"internalType": "address",
					"name": "owner",
					"type": "address"
				}
			],
			"name": "OwnableInvalidOwner",
			"type": "error"
		},
		{
			"inputs": [
				{
					"internalType": "address",
					"name": "account",
					"type": "address"
				}
			],
			"name": "OwnableUnauthorizedAccount",
			"type": "error"
		},
		{
			"anonymous": false,
			"inputs": [
				{
					"indexed": true,
					"internalType": "address",
					"name": "owner",
					"type": "address"
				},
				{
					"indexed": true,
					"internalType": "address",
					"name": "spender",
					"type": "address"
				},
				{
					"indexed": false,
					"internalType": "uint256",
					"name": "value",
					"type": "uint256"
				}
			],
			"name": "Approval",
			"type": "event"
		},
		{
			"anonymous": false,
			"inputs": [
				{
					"indexed": true,
					"internalType": "address",
					"name": "previousOwner",
					"type": "address"
				},
				{
					"indexed": true,
					"internalType": "address",
					"name": "newOwner",
					"type": "address"
				}
			],
			"name": "OwnershipTransferred",
			"type": "event"
		},
		{
			"anonymous": false,
			"inputs": [
				{
					"indexed": true,
					"internalType": "address",
					"name": "from",
					"type": "address"
				},
				{
					"indexed": true,
					"internalType": "address",
					"name": "to",
					"type": "address"
				},
				{
					"indexed": false,
					"internalType": "uint256",
					"name": "value",
					"type": "uint256"
				}
			],
			"name": "Transfer",
			"type": "event"
		},
		{
			"inputs": [
				{
					"internalType": "address",
					"name": "owner",
					"type": "address"
				},
				{
					"internalType": "address",
					"name": "spender",
					"type": "address"
				}
			],
			"name": "allowance",
			"outputs": [
				{
					"internalType": "uint256",
					"name": "",
					"type": "uint256"
				}
			],
			"stateMutability": "view",
			"type": "function"
		},
		{
			"inputs": [
				{
					"internalType": "address",
					"name": "spender",
					"type": "address"
				},
				{
					"internalType": "uint256",
					"name": "value",
					"type": "uint256"
				}
			],
			"name": "approve",
			"outputs": [
				{
					"internalType": "bool",
					"name": "",
					"type": "bool"
				}
			],
			"stateMutability": "nonpayable",
			"type": "function"
		},
		{
			"inputs": [
				{
					"internalType": "address",
					"name": "account",
					"type": "address"
				}
			],
			"name": "balanceOf",
			"outputs": [
				{
					"internalType": "uint256",
					"name": "",
					"type": "uint256"
				}
			],
			"stateMutability": "view",
			"type": "function"
		},
		{
			"inputs": [],
			"name": "decimals",
			"outputs": [
				{
					"internalType": "uint8",
					"name": "",
					"type": "uint8"
				}
			],
			"stateMutability": "view",
			"type": "function"
		},
		{
			"inputs": [],
			"name": "name",
			"outputs": [
				{
					"internalType": "string",
					"name": "",
					"type": "string"
				}
			],
			"stateMutability": "view",
			"type": "function"
		},
		{
			"inputs": [],
			"name": "owner",
			"outputs": [
				{
					"internalType": "address",
					"name": "",
					"type": "address"
				}
			],
			"stateMutability": "view",
			"type": "function"
		},
		{
			"inputs": [],
			"name": "renounceOwnership",
			"outputs": [],
			"stateMutability": "nonpayable",
			"type": "function"
		},
		{
			"inputs": [],
			"name": "symbol",
			"outputs": [
				{
					"internalType": "string",
					"name": "",
					"type": "string"
				}
			],
			"stateMutability": "view",
			"type": "function"
		},
		{
			"inputs": [],
			"name": "testTokenInitialValues",
			"outputs": [],
			"stateMutability": "nonpayable",
			"type": "function"
		},
		{
			"inputs": [],
			"name": "totalSupply",
			"outputs": [
				{
					"internalType": "uint256",
					"name": "",
					"type": "uint256"
				}
			],
			"stateMutability": "view",
			"type": "function"
		},
		{
			"inputs": [
				{
					"internalType": "address",
					"name": "to",
					"type": "address"
				},
				{
					"internalType": "uint256",
					"name": "value",
					"type": "uint256"
				}
			],
			"name": "transfer",
			"outputs": [
				{
					"internalType": "bool",
					"name": "",
					"type": "bool"
				}
			],
			"stateMutability": "nonpayable",
			"type": "function"
		},
		{
			"inputs": [
				{
					"internalType": "address",
					"name": "from",
					"type": "address"
				},
				{
					"internalType": "address",
					"name": "to",
					"type": "address"
				},
				{
					"internalType": "uint256",
					"name": "value",
					"type": "uint256"
				}
			],
			"name": "transferFrom",
			"outputs": [
				{
					"internalType": "bool",
					"name": "",
					"type": "bool"
				}
			],
			"stateMutability": "nonpayable",
			"type": "function"
		},
		{
			"inputs": [
				{
					"internalType": "address",
					"name": "newOwner",
					"type": "address"
				}
			],
			"name": "transferOwnership",
			"outputs": [],
			"stateMutability": "nonpayable",
			"type": "function"
		}
	]
}