{
	"tests/MyToken_test.sol": {
		"AdventureTimeTokenTest": {
			"abi": [
				{
					"inputs": [],
					"stateMutability": "nonpayable",
					"type": "constructor"
				},
				{
					"inputs": [
						{
							"internalType": "address",
							"name": "spender",
							"type": "address"
						},
						{
							"internalType": "uint256",
							"name": "allowance",
							"type": "uint256"
						},
						{
							"internalType": "uint256",
							"name": "needed",
							"type": "uint256"
						}
					],
					"name": "ERC20InsufficientAllowance",
					"type": "error"
				},
				{
					"inputs": [
						{
							"internalType": "address",
							"name": "sender",
							"type": "address"
						},
						{
							"internalType": "uint256",
							"name": "balance",
							"type": "uint256"
						},
						{
							"internalType": "uint256",
							"name": "needed",
							"type": "uint256"
						}
					],
					"name": "ERC20InsufficientBalance",
					"type": "error"
				},
				{
					"inputs": [
						{
							"internalType": "address",
							"name": "approver",
							"type": "address"
						}
					],
					"name": "ERC20InvalidApprover",
					"type": "error"
				},
				{
					"inputs": [
						{
							"internalType": "address",
							"name": "receiver",
							"type": "address"
						}
					],
					"name": "ERC20InvalidReceiver",
					"type": "error"
				},
				{
					"inputs": [
						{
							"internalType": "address",
							"name": "sender",
							"type": "address"
						}
					],
					"name": "ERC20InvalidSender",
					"type": "error"
				},
				{
					"inputs": [
						{
							"internalType": "address",
							"name": "spender",
							"type": "address"
						}
					],
					"name": "ERC20InvalidSpender",
					"type": "error"
				},
				{
					"inputs": [
						{
							"internalType": "address",
							"name": "owner",
							"type": "address"
						}
					],
					"name": "OwnableInvalidOwner",
					"type": "error"
				},
				{
					"inputs": [
						{
							"internalType": "address",
							"name": "account",
							"type": "address"
						}
					],
					"name": "OwnableUnauthorizedAccount",
					"type": "error"
				},
				{
					"anonymous": false,
					"inputs": [
						{
							"indexed": true,
							"internalType": "address",
							"name": "owner",
							"type": "address"
						},
						{
							"indexed": true,
							"internalType": "address",
							"name": "spender",
							"type": "address"
						},
						{
							"indexed": false,
							"internalType": "uint256",
							"name": "value",
							"type": "uint256"
						}
					],
					"name": "Approval",
					"type": "event"
				},
				{
					"anonymous": false,
					"inputs": [
						{
							"indexed": true,
							"internalType": "address",
							"name": "previousOwner",
							"type": "address"
						},
						{
							"indexed": true,
							"internalType": "address",
							"name": "newOwner",
							"type": "address"
						}
					],
					"name": "OwnershipTransferred",
					"type": "event"
				},
				{
					"anonymous": false,
					"inputs": [
						{
							"indexed": true,
							"internalType": "address",
							"name": "from",
							"type": "address"
						},
						{
							"indexed": true,
							"internalType": "address",
							"name": "to",
							"type": "address"
						},
						{
							"indexed": false,
							"internalType": "uint256",
							"name": "value",
							"type": "uint256"
						}
					],
					"name": "Transfer",
					"type": "event"
				},
				{
					"inputs": [
						{
							"internalType": "address",
							"name": "owner",
							"type": "address"
						},
						{
							"internalType": "address",
							"name": "spender",
							"type": "address"
						}
					],
					"name": "allowance",
					"outputs": [
						{
							"internalType": "uint256",
							"name": "",
							"type": "uint256"
						}
					],
					"stateMutability": "view",
					"type": "function"
				},
				{
					"inputs": [
						{
							"internalType": "address",
							"name": "spender",
							"type": "address"
						},
						{
							"internalType": "uint256",
							"name": "value",
							"type": "uint256"
						}
					],
					"name": "approve",
					"outputs": [
						{
							"internalType": "bool",
							"name": "",
							"type": "bool"
						}
					],
					"stateMutability": "nonpayable",
					"type": "function"
				},
				{
					"inputs": [
						{
							"internalType": "address",
							"name": "account",
							"type": "address"
						}
					],
					"name": "balanceOf",
					"outputs": [
						{
							"internalType": "uint256",
							"name": "",
							"type": "uint256"
						}
					],
					"stateMutability": "view",
					"type": "function"
				},
				{
					"inputs": [],
					"name": "decimals",
					"outputs": [
						{
							"internalType": "uint8",
							"name": "",
							"type": "uint8"
						}
					],
					"stateMutability": "view",
					"type": "function"
				},
				{
					"inputs": [],
					"name": "name",
					"outputs": [
						{
							"internalType": "string",
							"name": "",
							"type": "string"
						}
					],
					"stateMutability": "view",
					"type": "function"
				},
				{
					"inputs": [],
					"name": "owner",
					"outputs": [
						{
							"internalType": "address",
							"name": "",
							"type": "address"
						}
					],
					"stateMutability": "view",
					"type": "function"
				},
				{
					"inputs": [],
					"name": "renounceOwnership",
					"outputs": [],
					"stateMutability": "nonpayable",
					"type": "function"
				},
				{
					"inputs": [],
					"name": "symbol",
					"outputs": [
						{
							"internalType": "string",
							"name": "",
							"type": "string"
						}
					],
					"stateMutability": "view",
					"type": "function"
				},
				{
					"inputs": [],
					"name": "testTokenInitialValues",
					"outputs": [],
					"stateMutability": "nonpayable",
					"type": "function"
				},
				{
					"inputs": [],
					"name": "totalSupply",
					"outputs": [
						{
							"internalType": "uint256",
							"name": "",
							"type": "uint256"
						}
					],
					"stateMutability": "view",
					"type": "function"
				},
				{
					"inputs": [
						{
							"internalType": "address",
							"name": "to",
							"type": "address"
						},
						{
							"internalType": "uint256",
							"name": "value",
							"type": "uint256"
						}
					],
					"name": "transfer",
					"outputs": [
						{
							"internalType": "bool",
							"name": "",
							"type": "bool"
						}
					],
					"stateMutability": "nonpayable",
					"type": "function"
				},
				{
					"inputs": [
						{
							"internalType": "address",
							"name": "from",
							"type": "address"
						},
						{
							"internalType": "address",
							"name": "to",
							"type": "address"
						},
						{
							"internalType": "uint256",
							"name": "value",
							"type": "uint256"
						}
					],
					"name": "transferFrom",
					"outputs": [
						{
							"internalType": "bool",
							"name": "",
							"type": "bool"
						}
					],
					"stateMutability": "nonpayable",
					"type": "function"
				},
				{
					"inputs": [
						{
							"internalType": "address",
							"name": "newOwner",
							"type": "address"
						}
					],
					"name": "transferOwnership",
					"outputs": [],
					"stateMutability": "nonpayable",
					"type": "function"
				}
			],
			"devdoc": {
				"errors": {
					"ERC20InsufficientAllowance(address,uint256,uint256)": [
						{
							"details": "Indicates a failure with the `spender`’s `allowance`. Used in transfers.",
							"params": {
								"allowance": "Amount of tokens a `spender` is allowed to operate with.",
								"needed": "Minimum amount required to perform a transfer.",
								"spender": "Address that may be allowed to operate on tokens without being their owner."
							}
						}
					],
					"ERC20InsufficientBalance(address,uint256,uint256)": [
						{
							"details": "Indicates an error related to the current `balance` of a `sender`. Used in transfers.",
							"params": {
								"balance": "Current balance for the interacting account.",
								"needed": "Minimum amount required to perform a transfer.",
								"sender": "Address whose tokens are being transferred."
							}
						}
					],
					"ERC20InvalidApprover(address)": [
						{
							"details": "Indicates a failure with the `approver` of a token to be approved. Used in approvals.",
							"params": {
								"approver": "Address initiating an approval operation."
							}
						}
					],
					"ERC20InvalidReceiver(address)": [
						{
							"details": "Indicates a failure with the token `receiver`. Used in transfers.",
							"params": {
								"receiver": "Address to which tokens are being transferred."
							}
						}
					],
					"ERC20InvalidSender(address)": [
						{
							"details": "Indicates a failure with the token `sender`. Used in transfers.",
							"params": {
								"sender": "Address whose tokens are being transferred."
							}
						}
					],
					"ERC20InvalidSpender(address)": [
						{
							"details": "Indicates a failure with the `spender` to be approved. Used in approvals.",
							"params": {
								"spender": "Address that may be allowed to operate on tokens without being their owner."
							}
						}
					],
					"OwnableInvalidOwner(address)": [
						{
							"details": "The owner is not a valid owner account. (eg. `address(0)`)"
						}
					],
					"OwnableUnauthorizedAccount(address)": [
						{
							"details": "The caller account is not authorized to perform an operation."
						}
					]
				},
				"events": {
					"Approval(address,address,uint256)": {
						"details": "Emitted when the allowance of a `spender` for an `owner` is set by a call to {approve}. `value` is the new allowance."
					},
					"Transfer(address,address,uint256)": {
						"details": "Emitted when `value` tokens are moved from one account (`from`) to another (`to`). Note that `value` may be zero."
					}
				},
				"kind": "dev",
				"methods": {
					"allowance(address,address)": {
						"details": "See {IERC20-allowance}."
					},
					"approve(address,uint256)": {
						"details": "See {IERC20-approve}. NOTE: If `value` is the maximum `uint256`, the allowance is not updated on `transferFrom`. This is semantically equivalent to an infinite approval. Requirements: - `spender` cannot be the zero address."
					},
					"balanceOf(address)": {
						"details": "See {IERC20-balanceOf}."
					},
					"decimals()": {
						"details": "Returns the number of decimals used to get its user representation. For example, if `decimals` equals `2`, a balance of `505` tokens should be displayed to a user as `5.05` (`505 / 10 ** 2`). Tokens usually opt for a value of 18, imitating the relationship between Ether and Wei. This is the default value returned by this function, unless it's overridden. NOTE: This information is only used for _display_ purposes: it in no way affects any of the arithmetic of the contract, including {IERC20-balanceOf} and {IERC20-transfer}."
					},
					"name()": {
						"details": "Returns the name of the token."
					},
					"owner()": {
						"details": "Returns the address of the current owner."
					},
					"renounceOwnership()": {
						"details": "Leaves the contract without owner. It will not be possible to call `onlyOwner` functions. Can only be called by the current owner. NOTE: Renouncing ownership will leave the contract without an owner, thereby disabling any functionality that is only available to the owner."
					},
					"symbol()": {
						"details": "Returns the symbol of the token, usually a shorter version of the name."
					},
					"totalSupply()": {
						"details": "See {IERC20-totalSupply}."
					},
					"transfer(address,uint256)": {
						"details": "See {IERC20-transfer}. Requirements: - `to` cannot be the zero address. - the caller must have a balance of at least `value`."
					},
					"transferFrom(address,address,uint256)": {
						"details": "See {IERC20-transferFrom}. Skips emitting an {Approval} event indicating an allowance update. This is not required by the ERC. See {xref-ERC20-_approve-address-address-uint256-bool-}[_approve]. NOTE: Does not update the allowance if the current allowance is the maximum `uint256`. Requirements: - `from` and `to` cannot be the zero address. - `from` must have a balance of at least `value`. - the caller must have allowance for ``from``'s tokens of at least `value`."
					},
					"transferOwnership(address)": {
						"details": "Transfers ownership of the contract to a new account (`newOwner`). Can only be called by the current owner."
					}
				},
				"version": 1
			},
			"evm": {
				"assembly": "    /* \"tests/MyToken_test.sol\":142:699  contract AdventureTimeTokenTest is AdventureTimeToken {... */\n  mstore(0x40, 0x80)\n    /* \"tests/MyToken_test.sol\":203:247  constructor() AdventureTimeToken(1000000) {} */\n  callvalue\n  dup1\n  iszero\n  tag_1\n  jumpi\n  0x00\n  dup1\n  revert\ntag_1:\n  pop\n    /* \"tests/MyToken_test.sol\":236:243  1000000 */\n  0x0f4240\n    /* \"contracts/AdventureTimeToken.sol\":299:309  msg.sender */\n  caller\n    /* \"@openzeppelin/contracts/token/ERC20/ERC20.sol\":1601:1714  constructor(string memory name_, string memory symbol_) {... */\n  mload(0x40)\n  dup1\n  0x40\n  add\n  0x40\n  mstore\n  dup1\n  0x12\n  dup2\n  mstore\n  0x20\n  add\n  shl(0x71, 0x20b23b32b73a3ab932aa34b6b2aa37b5b2b7)\n  dup2\n  mstore\n  pop\n  mload(0x40)\n  dup1\n  0x40\n  add\n  0x40\n  mstore\n  dup1\n  0x05\n  dup2\n  mstore\n  0x20\n  add\n  shl(0xd8, 0x4154494d45)\n  dup2\n  mstore\n  pop\n    /* \"@openzeppelin/contracts/token/ERC20/ERC20.sol\":1675:1680  name_ */\n  dup2\n    /* \"@openzeppelin/contracts/token/ERC20/ERC20.sol\":1667:1672  _name */\n  0x03\n    /* \"@openzeppelin/contracts/token/ERC20/ERC20.sol\":1667:1680  _name = name_ */\n  swap1\n  dup2\n  tag_7\n  swap2\n  swap1\n  tag_8\n  jump\t// in\ntag_7:\n  pop\n    /* \"@openzeppelin/contracts/token/ERC20/ERC20.sol\":1690:1697  _symbol */\n  0x04\n    /* \"@openzeppelin/contracts/token/ERC20/ERC20.sol\":1690:1707  _symbol = symbol_ */\n  tag_9\n    /* \"@openzeppelin/contracts/token/ERC20/ERC20.sol\":1700:1707  symbol_ */\n  dup3\n    /* \"@openzeppelin/contracts/token/ERC20/ERC20.sol\":1690:1697  _symbol */\n  dup3\n    /* \"@openzeppelin/contracts/token/ERC20/ERC20.sol\":1690:1707  _symbol = symbol_ */\n  tag_8\n  jump\t// in\ntag_9:\n  pop\n  pop\n  pop\n  sub(shl(0xa0, 0x01), 0x01)\n    /* \"@openzeppelin/contracts/access/Ownable.sol\":1273:1299  initialOwner == address(0) */\n  dup2\n  and\n    /* \"@openzeppelin/contracts/access/Ownable.sol\":1269:1364  if (initialOwner == address(0)) {... */\n  tag_11\n  jumpi\n    /* \"@openzeppelin/contracts/access/Ownable.sol\":1322:1353  OwnableInvalidOwner(address(0)) */\n  mload(0x40)\n  shl(0xe0, 0x1e4fbdf7)\n  dup2\n  mstore\n    /* \"@openzeppelin/contracts/access/Ownable.sol\":1350:1351  0 */\n  0x00\n    /* \"@openzeppelin/contracts/access/Ownable.sol\":1322:1353  OwnableInvalidOwner(address(0)) */\n  0x04\n  dup3\n  add\n    /* \"#utility.yul\":2801:2852   */\n  mstore\n    /* \"#utility.yul\":2774:2792   */\n  0x24\n  add\n    /* \"@openzeppelin/contracts/access/Ownable.sol\":1322:1353  OwnableInvalidOwner(address(0)) */\ntag_12:\n  mload(0x40)\n  dup1\n  swap2\n  sub\n  swap1\n  revert\n    /* \"@openzeppelin/contracts/access/Ownable.sol\":1269:1364  if (initialOwner == address(0)) {... */\ntag_11:\n    /* \"@openzeppelin/contracts/access/Ownable.sol\":1373:1405  _transferOwnership(initialOwner) */\n  tag_14\n    /* \"@openzeppelin/contracts/access/Ownable.sol\":1392:1404  initialOwner */\n  dup2\n    /* \"@openzeppelin/contracts/access/Ownable.sol\":1373:1391  _transferOwnership */\n  tag_15\n    /* \"@openzeppelin/contracts/access/Ownable.sol\":1373:1405  _transferOwnership(initialOwner) */\n  jump\t// in\ntag_14:\n  pop\n    /* \"contracts/AdventureTimeToken.sol\":321:374  _mint(msg.sender, initialSupply * (10 ** decimals())) */\n  tag_17\n    /* \"contracts/AdventureTimeToken.sol\":327:337  msg.sender */\n  caller\n    /* \"contracts/AdventureTimeToken.sol\":356:372  10 ** decimals() */\n  tag_20\n    /* \"@openzeppelin/contracts/token/ERC20/ERC20.sol\":2780:2782  18 */\n  0x12\n    /* \"contracts/AdventureTimeToken.sol\":356:358  10 */\n  0x0a\n    /* \"contracts/AdventureTimeToken.sol\":356:372  10 ** decimals() */\n  tag_21\n  jump\t// in\ntag_20:\n    /* \"contracts/AdventureTimeToken.sol\":339:373  initialSupply * (10 ** decimals()) */\n  tag_22\n  swap1\n    /* \"contracts/AdventureTimeToken.sol\":339:352  initialSupply */\n  dup5\n    /* \"contracts/AdventureTimeToken.sol\":339:373  initialSupply * (10 ** decimals()) */\n  tag_23\n  jump\t// in\ntag_22:\n    /* \"contracts/AdventureTimeToken.sol\":321:326  _mint */\n  tag_24\n    /* \"contracts/AdventureTimeToken.sol\":321:374  _mint(msg.sender, initialSupply * (10 ** decimals())) */\n  jump\t// in\ntag_17:\n    /* \"contracts/AdventureTimeToken.sol\":219:381  constructor(uint256 initialSupply) ERC20(\"AdventureTimeToken\", \"ATIME\") Ownable(msg.sender) {... */\n  pop\n    /* \"tests/MyToken_test.sol\":142:699  contract AdventureTimeTokenTest is AdventureTimeToken {... */\n  jump(tag_54)\n    /* \"@openzeppelin/contracts/access/Ownable.sol\":2912:3099  function _transferOwnership(address newOwner) internal virtual {... */\ntag_15:\n    /* \"@openzeppelin/contracts/access/Ownable.sol\":3004:3010  _owner */\n  0x05\n  dup1\n  sload\n  sub(shl(0xa0, 0x01), 0x01)\n    /* \"@openzeppelin/contracts/access/Ownable.sol\":3020:3037  _owner = newOwner */\n  dup4\n  dup2\n  and\n  not(sub(shl(0xa0, 0x01), 0x01))\n  dup4\n  and\n  dup2\n  or\n  swap1\n  swap4\n  sstore\n    /* \"@openzeppelin/contracts/access/Ownable.sol\":3052:3092  OwnershipTransferred(oldOwner, newOwner) */\n  mload(0x40)\n    /* \"@openzeppelin/contracts/access/Ownable.sol\":3004:3010  _owner */\n  swap2\n  and\n  swap2\n    /* \"@openzeppelin/contracts/access/Ownable.sol\":3020:3037  _owner = newOwner */\n  swap1\n    /* \"@openzeppelin/contracts/access/Ownable.sol\":3004:3010  _owner */\n  dup3\n  swap1\n    /* \"@openzeppelin/contracts/access/Ownable.sol\":3052:3092  OwnershipTransferred(oldOwner, newOwner) */\n  0x8be0079c531659141344cd1fd0a4f28419497f9722a3daafe3b4186f6b6457e0\n  swap1\n    /* \"@openzeppelin/contracts/access/Ownable.sol\":2985:3001  address oldOwner */\n  0x00\n  swap1\n    /* \"@openzeppelin/contracts/access/Ownable.sol\":3052:3092  OwnershipTransferred(oldOwner, newOwner) */\n  log3\n    /* \"@openzeppelin/contracts/access/Ownable.sol\":2975:3099  {... */\n  pop\n    /* \"@openzeppelin/contracts/access/Ownable.sol\":2912:3099  function _transferOwnership(address newOwner) internal virtual {... */\n  pop\n  jump\t// out\n    /* \"@openzeppelin/contracts/token/ERC20/ERC20.sol\":7458:7666  function _mint(address account, uint256 value) internal {... */\ntag_24:\n  sub(shl(0xa0, 0x01), 0x01)\n    /* \"@openzeppelin/contracts/token/ERC20/ERC20.sol\":7528:7549  account == address(0) */\n  dup3\n  and\n    /* \"@openzeppelin/contracts/token/ERC20/ERC20.sol\":7524:7615  if (account == address(0)) {... */\n  tag_30\n  jumpi\n    /* \"@openzeppelin/contracts/token/ERC20/ERC20.sol\":7572:7604  ERC20InvalidReceiver(address(0)) */\n  mload(0x40)\n  shl(0xe0, 0xec442f05)\n  dup2\n  mstore\n    /* \"@openzeppelin/contracts/token/ERC20/ERC20.sol\":7601:7602  0 */\n  0x00\n    /* \"@openzeppelin/contracts/token/ERC20/ERC20.sol\":7572:7604  ERC20InvalidReceiver(address(0)) */\n  0x04\n  dup3\n  add\n    /* \"#utility.yul\":2801:2852   */\n  mstore\n    /* \"#utility.yul\":2774:2792   */\n  0x24\n  add\n    /* \"@openzeppelin/contracts/token/ERC20/ERC20.sol\":7572:7604  ERC20InvalidReceiver(address(0)) */\n  tag_12\n    /* \"#utility.yul\":2655:2858   */\n  jump\n    /* \"@openzeppelin/contracts/token/ERC20/ERC20.sol\":7524:7615  if (account == address(0)) {... */\ntag_30:\n    /* \"@openzeppelin/contracts/token/ERC20/ERC20.sol\":7624:7659  _update(address(0), account, value) */\n  tag_32\n    /* \"@openzeppelin/contracts/token/ERC20/ERC20.sol\":7640:7641  0 */\n  0x00\n    /* \"@openzeppelin/contracts/token/ERC20/ERC20.sol\":7644:7651  account */\n  dup4\n    /* \"@openzeppelin/contracts/token/ERC20/ERC20.sol\":7653:7658  value */\n  dup4\n    /* \"@openzeppelin/contracts/token/ERC20/ERC20.sol\":7624:7631  _update */\n  tag_33\n    /* \"@openzeppelin/contracts/token/ERC20/ERC20.sol\":7624:7659  _update(address(0), account, value) */\n  jump\t// in\ntag_32:\n    /* \"@openzeppelin/contracts/token/ERC20/ERC20.sol\":7458:7666  function _mint(address account, uint256 value) internal {... */\n  pop\n  pop\n  jump\t// out\n    /* \"@openzeppelin/contracts/token/ERC20/ERC20.sol\":6008:7115  function _update(address from, address to, uint256 value) internal virtual {... */\ntag_33:\n  sub(shl(0xa0, 0x01), 0x01)\n    /* \"@openzeppelin/contracts/token/ERC20/ERC20.sol\":6097:6115  from == address(0) */\n  dup4\n  and\n    /* \"@openzeppelin/contracts/token/ERC20/ERC20.sol\":6093:6633  if (from == address(0)) {... */\n  tag_35\n  jumpi\n    /* \"@openzeppelin/contracts/token/ERC20/ERC20.sol\":6249:6254  value */\n  dup1\n    /* \"@openzeppelin/contracts/token/ERC20/ERC20.sol\":6233:6245  _totalSupply */\n  0x02\n  0x00\n    /* \"@openzeppelin/contracts/token/ERC20/ERC20.sol\":6233:6254  _totalSupply += value */\n  dup3\n  dup3\n  sload\n  tag_36\n  swap2\n  swap1\n  tag_37\n  jump\t// in\ntag_36:\n  swap1\n  swap2\n  sstore\n  pop\n    /* \"@openzeppelin/contracts/token/ERC20/ERC20.sol\":6093:6633  if (from == address(0)) {... */\n  tag_38\n  swap1\n  pop\n  jump\ntag_35:\n  sub(shl(0xa0, 0x01), 0x01)\n    /* \"@openzeppelin/contracts/token/ERC20/ERC20.sol\":6307:6322  _balances[from] */\n  dup4\n  and\n    /* \"@openzeppelin/contracts/token/ERC20/ERC20.sol\":6285:6304  uint256 fromBalance */\n  0x00\n    /* \"@openzeppelin/contracts/token/ERC20/ERC20.sol\":6307:6322  _balances[from] */\n  swap1\n  dup2\n  mstore\n  0x20\n  dup2\n  swap1\n  mstore\n  0x40\n  swap1\n  keccak256\n  sload\n    /* \"@openzeppelin/contracts/token/ERC20/ERC20.sol\":6340:6359  fromBalance < value */\n  dup2\n  dup2\n  lt\n    /* \"@openzeppelin/contracts/token/ERC20/ERC20.sol\":6336:6451  if (fromBalance < value) {... */\n  iszero\n  tag_39\n  jumpi\n    /* \"@openzeppelin/contracts/token/ERC20/ERC20.sol\":6386:6436  ERC20InsufficientBalance(from, fromBalance, value) */\n  mload(0x40)\n  shl(0xe2, 0x391434e3)\n  dup2\n  mstore\n  sub(shl(0xa0, 0x01), 0x01)\n    /* \"#utility.yul\":4950:4982   */\n  dup6\n  and\n    /* \"@openzeppelin/contracts/token/ERC20/ERC20.sol\":6386:6436  ERC20InsufficientBalance(from, fromBalance, value) */\n  0x04\n  dup3\n  add\n    /* \"#utility.yul\":4932:4983   */\n  mstore\n    /* \"#utility.yul\":4999:5017   */\n  0x24\n  dup2\n  add\n    /* \"#utility.yul\":4992:5026   */\n  dup3\n  swap1\n  mstore\n    /* \"#utility.yul\":5042:5060   */\n  0x44\n  dup2\n  add\n    /* \"#utility.yul\":5035:5069   */\n  dup4\n  swap1\n  mstore\n    /* \"#utility.yul\":4905:4923   */\n  0x64\n  add\n    /* \"@openzeppelin/contracts/token/ERC20/ERC20.sol\":6386:6436  ERC20InsufficientBalance(from, fromBalance, value) */\n  tag_12\n    /* \"#utility.yul\":4730:5075   */\n  jump\n    /* \"@openzeppelin/contracts/token/ERC20/ERC20.sol\":6336:6451  if (fromBalance < value) {... */\ntag_39:\n  sub(shl(0xa0, 0x01), 0x01)\n    /* \"@openzeppelin/contracts/token/ERC20/ERC20.sol\":6571:6586  _balances[from] */\n  dup5\n  and\n    /* \"@openzeppelin/contracts/token/ERC20/ERC20.sol\":6571:6580  _balances */\n  0x00\n    /* \"@openzeppelin/contracts/token/ERC20/ERC20.sol\":6571:6586  _balances[from] */\n  swap1\n  dup2\n  mstore\n  0x20\n  dup2\n  swap1\n  mstore\n  0x40\n  swap1\n  keccak256\n    /* \"@openzeppelin/contracts/token/ERC20/ERC20.sol\":6589:6608  fromBalance - value */\n  swap1\n  dup3\n  swap1\n  sub\n    /* \"@openzeppelin/contracts/token/ERC20/ERC20.sol\":6571:6608  _balances[from] = fromBalance - value */\n  swap1\n  sstore\n    /* \"@openzeppelin/contracts/token/ERC20/ERC20.sol\":6093:6633  if (from == address(0)) {... */\ntag_38:\n  sub(shl(0xa0, 0x01), 0x01)\n    /* \"@openzeppelin/contracts/token/ERC20/ERC20.sol\":6647:6663  to == address(0) */\n  dup3\n  and\n    /* \"@openzeppelin/contracts/token/ERC20/ERC20.sol\":6643:7068  if (to == address(0)) {... */\n  tag_42\n  jumpi\n    /* \"@openzeppelin/contracts/token/ERC20/ERC20.sol\":6810:6822  _totalSupply */\n  0x02\n    /* \"@openzeppelin/contracts/token/ERC20/ERC20.sol\":6810:6831  _totalSupply -= value */\n  dup1\n  sload\n  dup3\n  swap1\n  sub\n  swap1\n  sstore\n    /* \"@openzeppelin/contracts/token/ERC20/ERC20.sol\":6643:7068  if (to == address(0)) {... */\n  jump(tag_43)\ntag_42:\n  sub(shl(0xa0, 0x01), 0x01)\n    /* \"@openzeppelin/contracts/token/ERC20/ERC20.sol\":7021:7034  _balances[to] */\n  dup3\n  and\n    /* \"@openzeppelin/contracts/token/ERC20/ERC20.sol\":7021:7030  _balances */\n  0x00\n    /* \"@openzeppelin/contracts/token/ERC20/ERC20.sol\":7021:7034  _balances[to] */\n  swap1\n  dup2\n  mstore\n  0x20\n  dup2\n  swap1\n  mstore\n  0x40\n  swap1\n  keccak256\n    /* \"@openzeppelin/contracts/token/ERC20/ERC20.sol\":7021:7043  _balances[to] += value */\n  dup1\n  sload\n  dup3\n  add\n  swap1\n  sstore\n    /* \"@openzeppelin/contracts/token/ERC20/ERC20.sol\":6643:7068  if (to == address(0)) {... */\ntag_43:\n    /* \"@openzeppelin/contracts/token/ERC20/ERC20.sol\":7098:7100  to */\n  dup2\n  sub(shl(0xa0, 0x01), 0x01)\n    /* \"@openzeppelin/contracts/token/ERC20/ERC20.sol\":7083:7108  Transfer(from, to, value) */\n  and\n    /* \"@openzeppelin/contracts/token/ERC20/ERC20.sol\":7092:7096  from */\n  dup4\n  sub(shl(0xa0, 0x01), 0x01)\n    /* \"@openzeppelin/contracts/token/ERC20/ERC20.sol\":7083:7108  Transfer(from, to, value) */\n  and\n  0xddf252ad1be2c89b69c2b068fc378daa952ba7f163c4a11628f55a4df523b3ef\n    /* \"@openzeppelin/contracts/token/ERC20/ERC20.sol\":7102:7107  value */\n  dup4\n    /* \"@openzeppelin/contracts/token/ERC20/ERC20.sol\":7083:7108  Transfer(from, to, value) */\n  mload(0x40)\n  tag_44\n  swap2\n    /* \"#utility.yul\":5226:5251   */\n  dup2\n  mstore\n    /* \"#utility.yul\":5214:5216   */\n  0x20\n    /* \"#utility.yul\":5199:5217   */\n  add\n  swap1\n    /* \"#utility.yul\":5080:5257   */\n  jump\n    /* \"@openzeppelin/contracts/token/ERC20/ERC20.sol\":7083:7108  Transfer(from, to, value) */\ntag_44:\n  mload(0x40)\n  dup1\n  swap2\n  sub\n  swap1\n  log3\n    /* \"@openzeppelin/contracts/token/ERC20/ERC20.sol\":6008:7115  function _update(address from, address to, uint256 value) internal virtual {... */\n  pop\n  pop\n  pop\n  jump\t// out\n    /* \"#utility.yul\":14:141   */\ntag_46:\n    /* \"#utility.yul\":75:85   */\n  0x4e487b71\n    /* \"#utility.yul\":70:73   */\n  0xe0\n    /* \"#utility.yul\":66:86   */\n  shl\n    /* \"#utility.yul\":63:64   */\n  0x00\n    /* \"#utility.yul\":56:87   */\n  mstore\n    /* \"#utility.yul\":106:110   */\n  0x41\n    /* \"#utility.yul\":103:104   */\n  0x04\n    /* \"#utility.yul\":96:111   */\n  mstore\n    /* \"#utility.yul\":130:134   */\n  0x24\n    /* \"#utility.yul\":127:128   */\n  0x00\n    /* \"#utility.yul\":120:135   */\n  revert\n    /* \"#utility.yul\":146:526   */\ntag_47:\n    /* \"#utility.yul\":225:226   */\n  0x01\n    /* \"#utility.yul\":221:233   */\n  dup2\n  dup2\n  shr\n  swap1\n    /* \"#utility.yul\":268:280   */\n  dup3\n  and\n  dup1\n    /* \"#utility.yul\":289:350   */\n  tag_57\n  jumpi\n    /* \"#utility.yul\":343:347   */\n  0x7f\n    /* \"#utility.yul\":335:341   */\n  dup3\n    /* \"#utility.yul\":331:348   */\n  and\n    /* \"#utility.yul\":321:348   */\n  swap2\n  pop\n    /* \"#utility.yul\":289:350   */\ntag_57:\n    /* \"#utility.yul\":396:398   */\n  0x20\n    /* \"#utility.yul\":388:394   */\n  dup3\n    /* \"#utility.yul\":385:399   */\n  lt\n    /* \"#utility.yul\":365:383   */\n  dup2\n    /* \"#utility.yul\":362:400   */\n  sub\n    /* \"#utility.yul\":359:520   */\n  tag_58\n  jumpi\n    /* \"#utility.yul\":442:452   */\n  0x4e487b71\n    /* \"#utility.yul\":437:440   */\n  0xe0\n    /* \"#utility.yul\":433:453   */\n  shl\n    /* \"#utility.yul\":430:431   */\n  0x00\n    /* \"#utility.yul\":423:454   */\n  mstore\n    /* \"#utility.yul\":477:481   */\n  0x22\n    /* \"#utility.yul\":474:475   */\n  0x04\n    /* \"#utility.yul\":467:482   */\n  mstore\n    /* \"#utility.yul\":505:509   */\n  0x24\n    /* \"#utility.yul\":502:503   */\n  0x00\n    /* \"#utility.yul\":495:510   */\n  revert\n    /* \"#utility.yul\":359:520   */\ntag_58:\n  pop\n    /* \"#utility.yul\":146:526   */\n  swap2\n  swap1\n  pop\n  jump\t// out\n    /* \"#utility.yul\":657:1175   */\ntag_49:\n    /* \"#utility.yul\":759:761   */\n  0x1f\n    /* \"#utility.yul\":754:757   */\n  dup3\n    /* \"#utility.yul\":751:762   */\n  gt\n    /* \"#utility.yul\":748:1169   */\n  iszero\n  tag_61\n  jumpi\n    /* \"#utility.yul\":795:800   */\n  dup1\n    /* \"#utility.yul\":792:793   */\n  0x00\n    /* \"#utility.yul\":785:801   */\n  mstore\n    /* \"#utility.yul\":839:843   */\n  0x20\n    /* \"#utility.yul\":836:837   */\n  0x00\n    /* \"#utility.yul\":826:844   */\n  keccak256\n    /* \"#utility.yul\":909:911   */\n  0x1f\n    /* \"#utility.yul\":897:907   */\n  dup5\n    /* \"#utility.yul\":893:912   */\n  add\n    /* \"#utility.yul\":890:891   */\n  0x05\n    /* \"#utility.yul\":886:913   */\n  shr\n    /* \"#utility.yul\":880:884   */\n  dup2\n    /* \"#utility.yul\":876:914   */\n  add\n    /* \"#utility.yul\":945:949   */\n  0x20\n    /* \"#utility.yul\":933:943   */\n  dup6\n    /* \"#utility.yul\":930:950   */\n  lt\n    /* \"#utility.yul\":927:974   */\n  iszero\n  tag_62\n  jumpi\n  pop\n    /* \"#utility.yul\":968:972   */\n  dup1\n    /* \"#utility.yul\":927:974   */\ntag_62:\n    /* \"#utility.yul\":1023:1025   */\n  0x1f\n    /* \"#utility.yul\":1018:1021   */\n  dup5\n    /* \"#utility.yul\":1014:1026   */\n  add\n    /* \"#utility.yul\":1011:1012   */\n  0x05\n    /* \"#utility.yul\":1007:1027   */\n  shr\n    /* \"#utility.yul\":1001:1005   */\n  dup3\n    /* \"#utility.yul\":997:1028   */\n  add\n    /* \"#utility.yul\":987:1028   */\n  swap2\n  pop\n    /* \"#utility.yul\":1078:1159   */\ntag_63:\n    /* \"#utility.yul\":1096:1098   */\n  dup2\n    /* \"#utility.yul\":1089:1094   */\n  dup2\n    /* \"#utility.yul\":1086:1099   */\n  lt\n    /* \"#utility.yul\":1078:1159   */\n  iszero\n  tag_65\n  jumpi\n    /* \"#utility.yul\":1155:1156   */\n  0x00\n    /* \"#utility.yul\":1141:1157   */\n  dup2\n  sstore\n    /* \"#utility.yul\":1122:1123   */\n  0x01\n    /* \"#utility.yul\":1111:1124   */\n  add\n    /* \"#utility.yul\":1078:1159   */\n  jump(tag_63)\ntag_65:\n    /* \"#utility.yul\":1082:1085   */\n  pop\n  pop\n    /* \"#utility.yul\":748:1169   */\ntag_61:\n    /* \"#utility.yul\":657:1175   */\n  pop\n  pop\n  pop\n  jump\t// out\n    /* \"#utility.yul\":1351:2650   */\ntag_8:\n    /* \"#utility.yul\":1471:1481   */\n  dup2\n  mload\n  sub(shl(0x40, 0x01), 0x01)\n    /* \"#utility.yul\":1493:1523   */\n  dup2\n  gt\n    /* \"#utility.yul\":1490:1546   */\n  iszero\n  tag_69\n  jumpi\n    /* \"#utility.yul\":1526:1544   */\n  tag_69\n  tag_46\n  jump\t// in\ntag_69:\n    /* \"#utility.yul\":1555:1652   */\n  tag_70\n    /* \"#utility.yul\":1645:1651   */\n  dup2\n    /* \"#utility.yul\":1605:1643   */\n  tag_71\n    /* \"#utility.yul\":1637:1641   */\n  dup5\n    /* \"#utility.yul\":1631:1642   */\n  sload\n    /* \"#utility.yul\":1605:1643   */\n  tag_47\n  jump\t// in\ntag_71:\n    /* \"#utility.yul\":1599:1603   */\n  dup5\n    /* \"#utility.yul\":1555:1652   */\n  tag_49\n  jump\t// in\ntag_70:\n    /* \"#utility.yul\":1701:1705   */\n  0x20\n    /* \"#utility.yul\":1732:1734   */\n  0x1f\n    /* \"#utility.yul\":1721:1735   */\n  dup3\n  gt\n    /* \"#utility.yul\":1749:1750   */\n  0x01\n    /* \"#utility.yul\":1744:2393   */\n  dup2\n  eq\n  tag_73\n  jumpi\n    /* \"#utility.yul\":2437:2438   */\n  0x00\n    /* \"#utility.yul\":2454:2460   */\n  dup4\n    /* \"#utility.yul\":2451:2540   */\n  iszero\n  tag_74\n  jumpi\n  pop\n    /* \"#utility.yul\":2506:2525   */\n  dup5\n  dup3\n  add\n    /* \"#utility.yul\":2500:2526   */\n  mload\n    /* \"#utility.yul\":2451:2540   */\ntag_74:\n  not(0x00)\n    /* \"#utility.yul\":1308:1309   */\n  0x03\n    /* \"#utility.yul\":1304:1315   */\n  dup6\n  swap1\n  shl\n    /* \"#utility.yul\":1300:1324   */\n  shr\n    /* \"#utility.yul\":1296:1325   */\n  not\n    /* \"#utility.yul\":1286:1326   */\n  and\n    /* \"#utility.yul\":1332:1333   */\n  0x01\n    /* \"#utility.yul\":1328:1339   */\n  dup5\n  swap1\n  shl\n    /* \"#utility.yul\":1283:1340   */\n  or\n    /* \"#utility.yul\":2553:2634   */\n  dup5\n  sstore\n    /* \"#utility.yul\":1714:2644   */\n  jump(tag_65)\n    /* \"#utility.yul\":1744:2393   */\ntag_73:\n    /* \"#utility.yul\":604:605   */\n  0x00\n    /* \"#utility.yul\":597:611   */\n  dup5\n  dup2\n  mstore\n    /* \"#utility.yul\":641:645   */\n  0x20\n    /* \"#utility.yul\":628:646   */\n  dup2\n  keccak256\n  not(0x1f)\n    /* \"#utility.yul\":1780:1800   */\n  dup6\n  and\n  swap2\n    /* \"#utility.yul\":1898:2120   */\ntag_77:\n    /* \"#utility.yul\":1912:1919   */\n  dup3\n    /* \"#utility.yul\":1909:1910   */\n  dup2\n    /* \"#utility.yul\":1906:1920   */\n  lt\n    /* \"#utility.yul\":1898:2120   */\n  iszero\n  tag_79\n  jumpi\n    /* \"#utility.yul\":1994:2013   */\n  dup8\n  dup6\n  add\n    /* \"#utility.yul\":1988:2014   */\n  mload\n    /* \"#utility.yul\":1973:2015   */\n  dup3\n  sstore\n    /* \"#utility.yul\":2101:2105   */\n  0x20\n    /* \"#utility.yul\":2086:2106   */\n  swap5\n  dup6\n  add\n  swap5\n    /* \"#utility.yul\":2054:2055   */\n  0x01\n    /* \"#utility.yul\":2042:2056   */\n  swap1\n  swap3\n  add\n  swap2\n    /* \"#utility.yul\":1928:1940   */\n  add\n    /* \"#utility.yul\":1898:2120   */\n  jump(tag_77)\ntag_79:\n    /* \"#utility.yul\":1902:1905   */\n  pop\n    /* \"#utility.yul\":2148:2154   */\n  dup5\n    /* \"#utility.yul\":2139:2146   */\n  dup3\n    /* \"#utility.yul\":2136:2155   */\n  lt\n    /* \"#utility.yul\":2133:2334   */\n  iszero\n  tag_80\n  jumpi\n    /* \"#utility.yul\":2209:2228   */\n  dup7\n  dup5\n  add\n    /* \"#utility.yul\":2203:2229   */\n  mload\n  not(0x00)\n    /* \"#utility.yul\":2292:2293   */\n  0x03\n    /* \"#utility.yul\":2288:2302   */\n  dup8\n  swap1\n  shl\n    /* \"#utility.yul\":2304:2307   */\n  0xf8\n    /* \"#utility.yul\":2284:2308   */\n  and\n    /* \"#utility.yul\":2280:2317   */\n  shr\n    /* \"#utility.yul\":2276:2318   */\n  not\n    /* \"#utility.yul\":2261:2319   */\n  and\n    /* \"#utility.yul\":2246:2320   */\n  dup2\n  sstore\n    /* \"#utility.yul\":2133:2334   */\ntag_80:\n  pop\n  pop\n  pop\n  pop\n    /* \"#utility.yul\":2380:2381   */\n  0x01\n    /* \"#utility.yul\":2364:2378   */\n  swap1\n  dup2\n  shl\n    /* \"#utility.yul\":2360:2382   */\n  add\n    /* \"#utility.yul\":2347:2383   */\n  swap1\n  sstore\n  pop\n    /* \"#utility.yul\":1351:2650   */\n  jump\t// out\n    /* \"#utility.yul\":2863:2990   */\ntag_51:\n    /* \"#utility.yul\":2924:2934   */\n  0x4e487b71\n    /* \"#utility.yul\":2919:2922   */\n  0xe0\n    /* \"#utility.yul\":2915:2935   */\n  shl\n    /* \"#utility.yul\":2912:2913   */\n  0x00\n    /* \"#utility.yul\":2905:2936   */\n  mstore\n    /* \"#utility.yul\":2955:2959   */\n  0x11\n    /* \"#utility.yul\":2952:2953   */\n  0x04\n    /* \"#utility.yul\":2945:2960   */\n  mstore\n    /* \"#utility.yul\":2979:2983   */\n  0x24\n    /* \"#utility.yul\":2976:2977   */\n  0x00\n    /* \"#utility.yul\":2969:2984   */\n  revert\n    /* \"#utility.yul\":2995:3370   */\ntag_52:\n    /* \"#utility.yul\":3083:3084   */\n  0x01\n    /* \"#utility.yul\":3101:3106   */\n  dup2\n    /* \"#utility.yul\":3115:3364   */\ntag_84:\n    /* \"#utility.yul\":3136:3137   */\n  0x01\n    /* \"#utility.yul\":3126:3134   */\n  dup5\n    /* \"#utility.yul\":3123:3138   */\n  gt\n    /* \"#utility.yul\":3115:3364   */\n  iszero\n  tag_86\n  jumpi\n    /* \"#utility.yul\":3186:3190   */\n  dup1\n    /* \"#utility.yul\":3181:3184   */\n  dup6\n    /* \"#utility.yul\":3177:3191   */\n  div\n    /* \"#utility.yul\":3171:3175   */\n  dup2\n    /* \"#utility.yul\":3168:3192   */\n  gt\n    /* \"#utility.yul\":3165:3215   */\n  iszero\n  tag_88\n  jumpi\n    /* \"#utility.yul\":3195:3213   */\n  tag_88\n  tag_51\n  jump\t// in\ntag_88:\n    /* \"#utility.yul\":3245:3246   */\n  0x01\n    /* \"#utility.yul\":3235:3243   */\n  dup5\n    /* \"#utility.yul\":3231:3247   */\n  and\n    /* \"#utility.yul\":3228:3277   */\n  iszero\n  tag_89\n  jumpi\n    /* \"#utility.yul\":3259:3275   */\n  swap1\n  dup2\n  mul\n  swap1\n    /* \"#utility.yul\":3228:3277   */\ntag_89:\n    /* \"#utility.yul\":3342:3343   */\n  0x01\n    /* \"#utility.yul\":3338:3354   */\n  swap4\n  swap1\n  swap4\n  shr\n  swap3\n    /* \"#utility.yul\":3298:3313   */\n  dup1\n  mul\n    /* \"#utility.yul\":3115:3364   */\n  jump(tag_84)\ntag_86:\n    /* \"#utility.yul\":2995:3370   */\n  swap4\n  pop\n  swap4\n  swap2\n  pop\n  pop\n  jump\t// out\n    /* \"#utility.yul\":3375:4277   */\ntag_53:\n    /* \"#utility.yul\":3424:3429   */\n  0x00\n    /* \"#utility.yul\":3454:3462   */\n  dup3\n    /* \"#utility.yul\":3444:3524   */\n  tag_91\n  jumpi\n  pop\n    /* \"#utility.yul\":3495:3496   */\n  0x01\n    /* \"#utility.yul\":3509:3514   */\n  jump(tag_90)\n    /* \"#utility.yul\":3444:3524   */\ntag_91:\n    /* \"#utility.yul\":3543:3547   */\n  dup2\n    /* \"#utility.yul\":3533:3609   */\n  tag_92\n  jumpi\n  pop\n    /* \"#utility.yul\":3580:3581   */\n  0x00\n    /* \"#utility.yul\":3594:3599   */\n  jump(tag_90)\n    /* \"#utility.yul\":3533:3609   */\ntag_92:\n    /* \"#utility.yul\":3625:3629   */\n  dup2\n    /* \"#utility.yul\":3643:3644   */\n  0x01\n    /* \"#utility.yul\":3638:3697   */\n  dup2\n  eq\n  tag_94\n  jumpi\n    /* \"#utility.yul\":3711:3712   */\n  0x02\n    /* \"#utility.yul\":3706:3880   */\n  dup2\n  eq\n  tag_95\n  jumpi\n    /* \"#utility.yul\":3618:3880   */\n  jump(tag_93)\n    /* \"#utility.yul\":3638:3697   */\ntag_94:\n    /* \"#utility.yul\":3668:3669   */\n  0x01\n    /* \"#utility.yul\":3659:3669   */\n  swap2\n  pop\n    /* \"#utility.yul\":3682:3687   */\n  pop\n  jump(tag_90)\n    /* \"#utility.yul\":3706:3880   */\ntag_95:\n    /* \"#utility.yul\":3743:3746   */\n  0xff\n    /* \"#utility.yul\":3733:3741   */\n  dup5\n    /* \"#utility.yul\":3730:3747   */\n  gt\n    /* \"#utility.yul\":3727:3770   */\n  iszero\n  tag_97\n  jumpi\n    /* \"#utility.yul\":3750:3768   */\n  tag_97\n  tag_51\n  jump\t// in\ntag_97:\n  pop\n  pop\n    /* \"#utility.yul\":3806:3807   */\n  0x01\n    /* \"#utility.yul\":3792:3808   */\n  dup3\n  shl\n    /* \"#utility.yul\":3865:3870   */\n  jump(tag_90)\n    /* \"#utility.yul\":3618:3880   */\ntag_93:\n  pop\n    /* \"#utility.yul\":3964:3966   */\n  0x20\n    /* \"#utility.yul\":3954:3962   */\n  dup4\n    /* \"#utility.yul\":3951:3967   */\n  lt\n    /* \"#utility.yul\":3945:3948   */\n  0x0133\n    /* \"#utility.yul\":3939:3943   */\n  dup4\n    /* \"#utility.yul\":3936:3949   */\n  lt\n    /* \"#utility.yul\":3932:3968   */\n  and\n    /* \"#utility.yul\":3926:3928   */\n  0x4e\n    /* \"#utility.yul\":3916:3924   */\n  dup5\n    /* \"#utility.yul\":3913:3929   */\n  lt\n    /* \"#utility.yul\":3908:3910   */\n  0x0b\n    /* \"#utility.yul\":3902:3906   */\n  dup5\n    /* \"#utility.yul\":3899:3911   */\n  lt\n    /* \"#utility.yul\":3895:3930   */\n  and\n    /* \"#utility.yul\":3892:3969   */\n  or\n    /* \"#utility.yul\":3889:4092   */\n  iszero\n  tag_98\n  jumpi\n  pop\n    /* \"#utility.yul\":4001:4020   */\n  dup2\n  dup2\n  exp\n    /* \"#utility.yul\":4077:4082   */\n  jump(tag_90)\n    /* \"#utility.yul\":3889:4092   */\ntag_98:\n    /* \"#utility.yul\":4124:4166   */\n  tag_99\n  not(0x00)\n    /* \"#utility.yul\":4149:4157   */\n  dup5\n    /* \"#utility.yul\":4143:4147   */\n  dup5\n    /* \"#utility.yul\":4124:4166   */\n  tag_52\n  jump\t// in\ntag_99:\n    /* \"#utility.yul\":4202:4208   */\n  dup1\n    /* \"#utility.yul\":4198:4199   */\n  0x00\n    /* \"#utility.yul\":4194:4200   */\n  not\n    /* \"#utility.yul\":4190:4209   */\n  div\n    /* \"#utility.yul\":4181:4188   */\n  dup3\n    /* \"#utility.yul\":4178:4210   */\n  gt\n    /* \"#utility.yul\":4175:4233   */\n  iszero\n  tag_101\n  jumpi\n    /* \"#utility.yul\":4213:4231   */\n  tag_101\n  tag_51\n  jump\t// in\ntag_101:\n    /* \"#utility.yul\":4251:4271   */\n  mul\n  swap1\n  pop\n    /* \"#utility.yul\":3375:4277   */\ntag_90:\n  swap3\n  swap2\n  pop\n  pop\n  jump\t// out\n    /* \"#utility.yul\":4282:4422   */\ntag_21:\n    /* \"#utility.yul\":4340:4345   */\n  0x00\n    /* \"#utility.yul\":4369:4416   */\n  tag_103\n    /* \"#utility.yul\":4410:4414   */\n  0xff\n    /* \"#utility.yul\":4400:4408   */\n  dup5\n    /* \"#utility.yul\":4396:4415   */\n  and\n    /* \"#utility.yul\":4390:4394   */\n  dup4\n    /* \"#utility.yul\":4369:4416   */\n  tag_53\n  jump\t// in\ntag_103:\n    /* \"#utility.yul\":4360:4416   */\n  swap4\n    /* \"#utility.yul\":4282:4422   */\n  swap3\n  pop\n  pop\n  pop\n  jump\t// out\n    /* \"#utility.yul\":4427:4595   */\ntag_23:\n    /* \"#utility.yul\":4500:4509   */\n  dup1\n  dup3\n  mul\n    /* \"#utility.yul\":4531:4540   */\n  dup2\n  iszero\n    /* \"#utility.yul\":4548:4563   */\n  dup3\n  dup3\n  div\n    /* \"#utility.yul\":4542:4564   */\n  dup5\n  eq\n    /* \"#utility.yul\":4528:4565   */\n  or\n    /* \"#utility.yul\":4518:4589   */\n  tag_90\n  jumpi\n    /* \"#utility.yul\":4569:4587   */\n  tag_90\n  tag_51\n  jump\t// in\n    /* \"#utility.yul\":4600:4725   */\ntag_37:\n    /* \"#utility.yul\":4665:4674   */\n  dup1\n  dup3\n  add\n    /* \"#utility.yul\":4686:4696   */\n  dup1\n  dup3\n  gt\n    /* \"#utility.yul\":4683:4719   */\n  iszero\n  tag_90\n  jumpi\n    /* \"#utility.yul\":4699:4717   */\n  tag_90\n  tag_51\n  jump\t// in\n    /* \"#utility.yul\":5080:5257   */\ntag_54:\n    /* \"tests/MyToken_test.sol\":142:699  contract AdventureTimeTokenTest is AdventureTimeToken {... */\n  dataSize(sub_0)\n  dup1\n  dataOffset(sub_0)\n  0x00\n  codecopy\n  0x00\n  return\nstop\n\nsub_0: assembly {\n        /* \"tests/MyToken_test.sol\":142:699  contract AdventureTimeTokenTest is AdventureTimeToken {... */\n      mstore(0x40, 0x80)\n      callvalue\n      dup1\n      iszero\n      tag_1\n      jumpi\n      0x00\n      dup1\n      revert\n    tag_1:\n      pop\n      jumpi(tag_2, lt(calldatasize, 0x04))\n      shr(0xe0, calldataload(0x00))\n      dup1\n      0x715018a6\n      gt\n      tag_16\n      jumpi\n      dup1\n      0xa9059cbb\n      gt\n      tag_17\n      jumpi\n      dup1\n      0xa9059cbb\n      eq\n      tag_12\n      jumpi\n      dup1\n      0xdc881d1c\n      eq\n      tag_13\n      jumpi\n      dup1\n      0xdd62ed3e\n      eq\n      tag_14\n      jumpi\n      dup1\n      0xf2fde38b\n      eq\n      tag_15\n      jumpi\n      0x00\n      dup1\n      revert\n    tag_17:\n      dup1\n      0x715018a6\n      eq\n      tag_9\n      jumpi\n      dup1\n      0x8da5cb5b\n      eq\n      tag_10\n      jumpi\n      dup1\n      0x95d89b41\n      eq\n      tag_11\n      jumpi\n      0x00\n      dup1\n      revert\n    tag_16:\n      dup1\n      0x06fdde03\n      eq\n      tag_3\n      jumpi\n      dup1\n      0x095ea7b3\n      eq\n      tag_4\n      jumpi\n      dup1\n      0x18160ddd\n      eq\n      tag_5\n      jumpi\n      dup1\n      0x23b872dd\n      eq\n      tag_6\n      jumpi\n      dup1\n      0x313ce567\n      eq\n      tag_7\n      jumpi\n      dup1\n      0x70a08231\n      eq\n      tag_8\n      jumpi\n    tag_2:\n      0x00\n      dup1\n      revert\n        /* \"@openzeppelin/contracts/token/ERC20/ERC20.sol\":1779:1868  function name() public view virtual returns (string memory) {... */\n    tag_3:\n      tag_18\n      tag_19\n      jump\t// in\n    tag_18:\n      mload(0x40)\n      tag_20\n      swap2\n      swap1\n      tag_21\n      jump\t// in\n    tag_20:\n      mload(0x40)\n      dup1\n      swap2\n      sub\n      swap1\n      return\n        /* \"@openzeppelin/contracts/token/ERC20/ERC20.sol\":3998:4184  function approve(address spender, uint256 value) public virtual returns (bool) {... */\n    tag_4:\n      tag_22\n      tag_23\n      calldatasize\n      0x04\n      tag_24\n      jump\t// in\n    tag_23:\n      tag_25\n      jump\t// in\n    tag_22:\n      mload(0x40)\n        /* \"#utility.yul\":1181:1195   */\n      swap1\n      iszero\n        /* \"#utility.yul\":1174:1196   */\n      iszero\n        /* \"#utility.yul\":1156:1197   */\n      dup2\n      mstore\n        /* \"#utility.yul\":1144:1146   */\n      0x20\n        /* \"#utility.yul\":1129:1147   */\n      add\n        /* \"@openzeppelin/contracts/token/ERC20/ERC20.sol\":3998:4184  function approve(address spender, uint256 value) public virtual returns (bool) {... */\n      tag_20\n        /* \"#utility.yul\":1016:1203   */\n      jump\n        /* \"@openzeppelin/contracts/token/ERC20/ERC20.sol\":2849:2946  function totalSupply() public view virtual returns (uint256) {... */\n    tag_5:\n        /* \"@openzeppelin/contracts/token/ERC20/ERC20.sol\":2927:2939  _totalSupply */\n      sload(0x02)\n        /* \"@openzeppelin/contracts/token/ERC20/ERC20.sol\":2849:2946  function totalSupply() public view virtual returns (uint256) {... */\n    tag_28:\n      mload(0x40)\n        /* \"#utility.yul\":1354:1379   */\n      swap1\n      dup2\n      mstore\n        /* \"#utility.yul\":1342:1344   */\n      0x20\n        /* \"#utility.yul\":1327:1345   */\n      add\n        /* \"@openzeppelin/contracts/token/ERC20/ERC20.sol\":2849:2946  function totalSupply() public view virtual returns (uint256) {... */\n      tag_20\n        /* \"#utility.yul\":1208:1385   */\n      jump\n        /* \"@openzeppelin/contracts/token/ERC20/ERC20.sol\":4776:5020  function transferFrom(address from, address to, uint256 value) public virtual returns (bool) {... */\n    tag_6:\n      tag_22\n      tag_33\n      calldatasize\n      0x04\n      tag_34\n      jump\t// in\n    tag_33:\n      tag_35\n      jump\t// in\n        /* \"@openzeppelin/contracts/token/ERC20/ERC20.sol\":2707:2789  function decimals() public view virtual returns (uint8) {... */\n    tag_7:\n      mload(0x40)\n        /* \"@openzeppelin/contracts/token/ERC20/ERC20.sol\":2780:2782  18 */\n      0x12\n        /* \"#utility.yul\":1911:1947   */\n      dup2\n      mstore\n        /* \"#utility.yul\":1899:1901   */\n      0x20\n        /* \"#utility.yul\":1884:1902   */\n      add\n        /* \"@openzeppelin/contracts/token/ERC20/ERC20.sol\":2707:2789  function decimals() public view virtual returns (uint8) {... */\n      tag_20\n        /* \"#utility.yul\":1769:1953   */\n      jump\n        /* \"@openzeppelin/contracts/token/ERC20/ERC20.sol\":3004:3120  function balanceOf(address account) public view virtual returns (uint256) {... */\n    tag_8:\n      tag_28\n      tag_42\n      calldatasize\n      0x04\n      tag_43\n      jump\t// in\n    tag_42:\n      sub(shl(0xa0, 0x01), 0x01)\n        /* \"@openzeppelin/contracts/token/ERC20/ERC20.sol\":3095:3113  _balances[account] */\n      and\n        /* \"@openzeppelin/contracts/token/ERC20/ERC20.sol\":3069:3076  uint256 */\n      0x00\n        /* \"@openzeppelin/contracts/token/ERC20/ERC20.sol\":3095:3113  _balances[account] */\n      swap1\n      dup2\n      mstore\n      0x20\n      dup2\n      swap1\n      mstore\n      0x40\n      swap1\n      keccak256\n      sload\n      swap1\n        /* \"@openzeppelin/contracts/token/ERC20/ERC20.sol\":3004:3120  function balanceOf(address account) public view virtual returns (uint256) {... */\n      jump\n        /* \"@openzeppelin/contracts/access/Ownable.sol\":2293:2394  function renounceOwnership() public virtual onlyOwner {... */\n    tag_9:\n      tag_46\n      tag_47\n      jump\t// in\n    tag_46:\n      stop\n        /* \"@openzeppelin/contracts/access/Ownable.sol\":1638:1723  function owner() public view virtual returns (address) {... */\n    tag_10:\n        /* \"@openzeppelin/contracts/access/Ownable.sol\":1710:1716  _owner */\n      sload(0x05)\n        /* \"@openzeppelin/contracts/access/Ownable.sol\":1638:1723  function owner() public view virtual returns (address) {... */\n      mload(0x40)\n      sub(shl(0xa0, 0x01), 0x01)\n        /* \"@openzeppelin/contracts/access/Ownable.sol\":1710:1716  _owner */\n      swap1\n      swap2\n      and\n        /* \"#utility.yul\":2295:2346   */\n      dup2\n      mstore\n        /* \"#utility.yul\":2283:2285   */\n      0x20\n        /* \"#utility.yul\":2268:2286   */\n      add\n        /* \"@openzeppelin/contracts/access/Ownable.sol\":1638:1723  function owner() public view virtual returns (address) {... */\n      tag_20\n        /* \"#utility.yul\":2149:2352   */\n      jump\n        /* \"@openzeppelin/contracts/token/ERC20/ERC20.sol\":1981:2074  function symbol() public view virtual returns (string memory) {... */\n    tag_11:\n      tag_18\n      tag_53\n      jump\t// in\n        /* \"@openzeppelin/contracts/token/ERC20/ERC20.sol\":3315:3493  function transfer(address to, uint256 value) public virtual returns (bool) {... */\n    tag_12:\n      tag_22\n      tag_56\n      calldatasize\n      0x04\n      tag_24\n      jump\t// in\n    tag_56:\n      tag_57\n      jump\t// in\n        /* \"tests/MyToken_test.sol\":313:697  function testTokenInitialValues() public {... */\n    tag_13:\n      tag_46\n      tag_60\n      jump\t// in\n        /* \"@openzeppelin/contracts/token/ERC20/ERC20.sol\":3551:3691  function allowance(address owner, address spender) public view virtual returns (uint256) {... */\n    tag_14:\n      tag_28\n      tag_62\n      calldatasize\n      0x04\n      tag_63\n      jump\t// in\n    tag_62:\n      sub(shl(0xa0, 0x01), 0x01)\n        /* \"@openzeppelin/contracts/token/ERC20/ERC20.sol\":3657:3675  _allowances[owner] */\n      swap2\n      dup3\n      and\n        /* \"@openzeppelin/contracts/token/ERC20/ERC20.sol\":3631:3638  uint256 */\n      0x00\n        /* \"@openzeppelin/contracts/token/ERC20/ERC20.sol\":3657:3675  _allowances[owner] */\n      swap1\n      dup2\n      mstore\n        /* \"@openzeppelin/contracts/token/ERC20/ERC20.sol\":3657:3668  _allowances */\n      0x01\n        /* \"@openzeppelin/contracts/token/ERC20/ERC20.sol\":3657:3675  _allowances[owner] */\n      0x20\n      swap1\n      dup2\n      mstore\n      0x40\n      dup1\n      dup4\n      keccak256\n        /* \"@openzeppelin/contracts/token/ERC20/ERC20.sol\":3657:3684  _allowances[owner][spender] */\n      swap4\n      swap1\n      swap5\n      and\n      dup3\n      mstore\n      swap2\n      swap1\n      swap2\n      mstore\n      keccak256\n      sload\n      swap1\n        /* \"@openzeppelin/contracts/token/ERC20/ERC20.sol\":3551:3691  function allowance(address owner, address spender) public view virtual returns (uint256) {... */\n      jump\n        /* \"@openzeppelin/contracts/access/Ownable.sol\":2543:2758  function transferOwnership(address newOwner) public virtual onlyOwner {... */\n    tag_15:\n      tag_46\n      tag_67\n      calldatasize\n      0x04\n      tag_43\n      jump\t// in\n    tag_67:\n      tag_68\n      jump\t// in\n        /* \"@openzeppelin/contracts/token/ERC20/ERC20.sol\":1779:1868  function name() public view virtual returns (string memory) {... */\n    tag_19:\n        /* \"@openzeppelin/contracts/token/ERC20/ERC20.sol\":1824:1837  string memory */\n      0x60\n        /* \"@openzeppelin/contracts/token/ERC20/ERC20.sol\":1856:1861  _name */\n      0x03\n        /* \"@openzeppelin/contracts/token/ERC20/ERC20.sol\":1849:1861  return _name */\n      dup1\n      sload\n      tag_70\n      swap1\n      tag_71\n      jump\t// in\n    tag_70:\n      dup1\n      0x1f\n      add\n      0x20\n      dup1\n      swap2\n      div\n      mul\n      0x20\n      add\n      mload(0x40)\n      swap1\n      dup2\n      add\n      0x40\n      mstore\n      dup1\n      swap3\n      swap2\n      swap1\n      dup2\n      dup2\n      mstore\n      0x20\n      add\n      dup3\n      dup1\n      sload\n      tag_72\n      swap1\n      tag_71\n      jump\t// in\n    tag_72:\n      dup1\n      iszero\n      tag_73\n      jumpi\n      dup1\n      0x1f\n      lt\n      tag_74\n      jumpi\n      0x0100\n      dup1\n      dup4\n      sload\n      div\n      mul\n      dup4\n      mstore\n      swap2\n      0x20\n      add\n      swap2\n      jump(tag_73)\n    tag_74:\n      dup3\n      add\n      swap2\n      swap1\n      0x00\n      mstore\n      keccak256(0x00, 0x20)\n      swap1\n    tag_75:\n      dup2\n      sload\n      dup2\n      mstore\n      swap1\n      0x01\n      add\n      swap1\n      0x20\n      add\n      dup1\n      dup4\n      gt\n      tag_75\n      jumpi\n      dup3\n      swap1\n      sub\n      0x1f\n      and\n      dup3\n      add\n      swap2\n    tag_73:\n      pop\n      pop\n      pop\n      pop\n      pop\n      swap1\n      pop\n        /* \"@openzeppelin/contracts/token/ERC20/ERC20.sol\":1779:1868  function name() public view virtual returns (string memory) {... */\n      swap1\n      jump\t// out\n        /* \"@openzeppelin/contracts/token/ERC20/ERC20.sol\":3998:4184  function approve(address spender, uint256 value) public virtual returns (bool) {... */\n    tag_25:\n        /* \"@openzeppelin/contracts/token/ERC20/ERC20.sol\":4071:4075  bool */\n      0x00\n        /* \"@openzeppelin/contracts/utils/Context.sol\":735:745  msg.sender */\n      caller\n        /* \"@openzeppelin/contracts/token/ERC20/ERC20.sol\":4125:4156  _approve(owner, spender, value) */\n      tag_79\n        /* \"@openzeppelin/contracts/utils/Context.sol\":735:745  msg.sender */\n      dup2\n        /* \"@openzeppelin/contracts/token/ERC20/ERC20.sol\":4141:4148  spender */\n      dup6\n        /* \"@openzeppelin/contracts/token/ERC20/ERC20.sol\":4150:4155  value */\n      dup6\n        /* \"@openzeppelin/contracts/token/ERC20/ERC20.sol\":4125:4133  _approve */\n      tag_80\n        /* \"@openzeppelin/contracts/token/ERC20/ERC20.sol\":4125:4156  _approve(owner, spender, value) */\n      jump\t// in\n    tag_79:\n        /* \"@openzeppelin/contracts/token/ERC20/ERC20.sol\":4173:4177  true */\n      0x01\n        /* \"@openzeppelin/contracts/token/ERC20/ERC20.sol\":4166:4177  return true */\n      swap2\n      pop\n      pop\n        /* \"@openzeppelin/contracts/token/ERC20/ERC20.sol\":3998:4184  function approve(address spender, uint256 value) public virtual returns (bool) {... */\n    tag_76:\n      swap3\n      swap2\n      pop\n      pop\n      jump\t// out\n        /* \"@openzeppelin/contracts/token/ERC20/ERC20.sol\":4776:5020  function transferFrom(address from, address to, uint256 value) public virtual returns (bool) {... */\n    tag_35:\n        /* \"@openzeppelin/contracts/token/ERC20/ERC20.sol\":4863:4867  bool */\n      0x00\n        /* \"@openzeppelin/contracts/utils/Context.sol\":735:745  msg.sender */\n      caller\n        /* \"@openzeppelin/contracts/token/ERC20/ERC20.sol\":4919:4956  _spendAllowance(from, spender, value) */\n      tag_84\n        /* \"@openzeppelin/contracts/token/ERC20/ERC20.sol\":4935:4939  from */\n      dup6\n        /* \"@openzeppelin/contracts/utils/Context.sol\":735:745  msg.sender */\n      dup3\n        /* \"@openzeppelin/contracts/token/ERC20/ERC20.sol\":4950:4955  value */\n      dup6\n        /* \"@openzeppelin/contracts/token/ERC20/ERC20.sol\":4919:4934  _spendAllowance */\n      tag_85\n        /* \"@openzeppelin/contracts/token/ERC20/ERC20.sol\":4919:4956  _spendAllowance(from, spender, value) */\n      jump\t// in\n    tag_84:\n        /* \"@openzeppelin/contracts/token/ERC20/ERC20.sol\":4966:4992  _transfer(from, to, value) */\n      tag_86\n        /* \"@openzeppelin/contracts/token/ERC20/ERC20.sol\":4976:4980  from */\n      dup6\n        /* \"@openzeppelin/contracts/token/ERC20/ERC20.sol\":4982:4984  to */\n      dup6\n        /* \"@openzeppelin/contracts/token/ERC20/ERC20.sol\":4986:4991  value */\n      dup6\n        /* \"@openzeppelin/contracts/token/ERC20/ERC20.sol\":4966:4975  _transfer */\n      tag_87\n        /* \"@openzeppelin/contracts/token/ERC20/ERC20.sol\":4966:4992  _transfer(from, to, value) */\n      jump\t// in\n    tag_86:\n      pop\n        /* \"@openzeppelin/contracts/token/ERC20/ERC20.sol\":5009:5013  true */\n      0x01\n      swap5\n        /* \"@openzeppelin/contracts/token/ERC20/ERC20.sol\":4776:5020  function transferFrom(address from, address to, uint256 value) public virtual returns (bool) {... */\n      swap4\n      pop\n      pop\n      pop\n      pop\n      jump\t// out\n        /* \"@openzeppelin/contracts/access/Ownable.sol\":2293:2394  function renounceOwnership() public virtual onlyOwner {... */\n    tag_47:\n        /* \"@openzeppelin/contracts/access/Ownable.sol\":1531:1544  _checkOwner() */\n      tag_91\n        /* \"@openzeppelin/contracts/access/Ownable.sol\":1531:1542  _checkOwner */\n      tag_92\n        /* \"@openzeppelin/contracts/access/Ownable.sol\":1531:1544  _checkOwner() */\n      jump\t// in\n    tag_91:\n        /* \"@openzeppelin/contracts/access/Ownable.sol\":2357:2387  _transferOwnership(address(0)) */\n      tag_94\n        /* \"@openzeppelin/contracts/access/Ownable.sol\":2384:2385  0 */\n      0x00\n        /* \"@openzeppelin/contracts/access/Ownable.sol\":2357:2375  _transferOwnership */\n      tag_95\n        /* \"@openzeppelin/contracts/access/Ownable.sol\":2357:2387  _transferOwnership(address(0)) */\n      jump\t// in\n    tag_94:\n        /* \"@openzeppelin/contracts/access/Ownable.sol\":2293:2394  function renounceOwnership() public virtual onlyOwner {... */\n      jump\t// out\n        /* \"@openzeppelin/contracts/token/ERC20/ERC20.sol\":1981:2074  function symbol() public view virtual returns (string memory) {... */\n    tag_53:\n        /* \"@openzeppelin/contracts/token/ERC20/ERC20.sol\":2028:2041  string memory */\n      0x60\n        /* \"@openzeppelin/contracts/token/ERC20/ERC20.sol\":2060:2067  _symbol */\n      0x04\n        /* \"@openzeppelin/contracts/token/ERC20/ERC20.sol\":2053:2067  return _symbol */\n      dup1\n      sload\n      tag_70\n      swap1\n      tag_71\n      jump\t// in\n        /* \"@openzeppelin/contracts/token/ERC20/ERC20.sol\":3315:3493  function transfer(address to, uint256 value) public virtual returns (bool) {... */\n    tag_57:\n        /* \"@openzeppelin/contracts/token/ERC20/ERC20.sol\":3384:3388  bool */\n      0x00\n        /* \"@openzeppelin/contracts/utils/Context.sol\":735:745  msg.sender */\n      caller\n        /* \"@openzeppelin/contracts/token/ERC20/ERC20.sol\":3438:3465  _transfer(owner, to, value) */\n      tag_79\n        /* \"@openzeppelin/contracts/utils/Context.sol\":735:745  msg.sender */\n      dup2\n        /* \"@openzeppelin/contracts/token/ERC20/ERC20.sol\":3455:3457  to */\n      dup6\n        /* \"@openzeppelin/contracts/token/ERC20/ERC20.sol\":3459:3464  value */\n      dup6\n        /* \"@openzeppelin/contracts/token/ERC20/ERC20.sol\":3438:3447  _transfer */\n      tag_87\n        /* \"@openzeppelin/contracts/token/ERC20/ERC20.sol\":3438:3465  _transfer(owner, to, value) */\n      jump\t// in\n        /* \"tests/MyToken_test.sol\":313:697  function testTokenInitialValues() public {... */\n    tag_60:\n        /* \"tests/MyToken_test.sol\":364:370  Assert */\n      linkerSymbol(\"acbfb1c35000d78352310b16a054a6b1066124b9c6f054b10c085f549bff80c6\")\n        /* \"tests/MyToken_test.sol\":364:376  Assert.equal */\n      0xe8c2cb16\n        /* \"tests/MyToken_test.sol\":377:383  name() */\n      tag_107\n        /* \"tests/MyToken_test.sol\":377:381  name */\n      tag_19\n        /* \"tests/MyToken_test.sol\":377:383  name() */\n      jump\t// in\n    tag_107:\n        /* \"tests/MyToken_test.sol\":364:434  Assert.equal(name(), \"AdventureTimeToken\", \"Token name did not match\") */\n      mload(0x40)\n      dup3\n      0xffffffff\n      and\n      0xe0\n      shl\n      dup2\n      mstore\n      0x04\n      add\n      tag_108\n      swap2\n      swap1\n      tag_109\n      jump\t// in\n    tag_108:\n      0x20\n      mload(0x40)\n      dup1\n      dup4\n      sub\n      dup2\n      dup7\n      gas\n      delegatecall\n      iszero\n      dup1\n      iszero\n      tag_111\n      jumpi\n      returndatasize\n      0x00\n      dup1\n      returndatacopy\n      revert(0x00, returndatasize)\n    tag_111:\n      pop\n      pop\n      pop\n      pop\n      mload(0x40)\n      returndatasize\n      not(0x1f)\n      0x1f\n      dup3\n      add\n      and\n      dup3\n      add\n      dup1\n      0x40\n      mstore\n      pop\n      dup2\n      add\n      swap1\n      tag_112\n      swap2\n      swap1\n      tag_113\n      jump\t// in\n    tag_112:\n      pop\n        /* \"tests/MyToken_test.sol\":444:450  Assert */\n      linkerSymbol(\"acbfb1c35000d78352310b16a054a6b1066124b9c6f054b10c085f549bff80c6\")\n        /* \"tests/MyToken_test.sol\":444:456  Assert.equal */\n      0xe8c2cb16\n        /* \"tests/MyToken_test.sol\":457:465  symbol() */\n      tag_114\n        /* \"tests/MyToken_test.sol\":457:463  symbol */\n      tag_53\n        /* \"tests/MyToken_test.sol\":457:465  symbol() */\n      jump\t// in\n    tag_114:\n        /* \"tests/MyToken_test.sol\":444:505  Assert.equal(symbol(), \"ATIME\", \"Token symbol did not match\") */\n      mload(0x40)\n      dup3\n      0xffffffff\n      and\n      0xe0\n      shl\n      dup2\n      mstore\n      0x04\n      add\n      tag_115\n      swap2\n      swap1\n      tag_116\n      jump\t// in\n    tag_115:\n      0x20\n      mload(0x40)\n      dup1\n      dup4\n      sub\n      dup2\n      dup7\n      gas\n      delegatecall\n      iszero\n      dup1\n      iszero\n      tag_118\n      jumpi\n      returndatasize\n      0x00\n      dup1\n      returndatacopy\n      revert(0x00, returndatasize)\n    tag_118:\n      pop\n      pop\n      pop\n      pop\n      mload(0x40)\n      returndatasize\n      not(0x1f)\n      0x1f\n      dup3\n      add\n      and\n      dup3\n      add\n      dup1\n      0x40\n      mstore\n      pop\n      dup2\n      add\n      swap1\n      tag_119\n      swap2\n      swap1\n      tag_113\n      jump\t// in\n    tag_119:\n      pop\n        /* \"tests/MyToken_test.sol\":515:521  Assert */\n      linkerSymbol(\"acbfb1c35000d78352310b16a054a6b1066124b9c6f054b10c085f549bff80c6\")\n        /* \"tests/MyToken_test.sol\":515:527  Assert.equal */\n      0xabcd7960\n        /* \"@openzeppelin/contracts/token/ERC20/ERC20.sol\":2780:2782  18 */\n      0x12\n        /* \"tests/MyToken_test.sol\":515:575  Assert.equal(decimals(), 18, \"Token decimals did not match\") */\n      mload(0x40)\n      not(sub(shl(0xe0, 0x01), 0x01))\n      0xe0\n      dup5\n      swap1\n      shl\n      and\n      dup2\n      mstore\n        /* \"#utility.yul\":5120:5124   */\n      0xff\n        /* \"#utility.yul\":5108:5125   */\n      swap1\n      swap2\n      and\n        /* \"tests/MyToken_test.sol\":515:575  Assert.equal(decimals(), 18, \"Token decimals did not match\") */\n      0x04\n      dup3\n      add\n        /* \"#utility.yul\":5090:5126   */\n      mstore\n        /* \"tests/MyToken_test.sol\":540:542  18 */\n      0x12\n        /* \"#utility.yul\":5142:5160   */\n      0x24\n      dup3\n      add\n        /* \"#utility.yul\":5135:5169   */\n      mstore\n        /* \"#utility.yul\":5205:5207   */\n      0x60\n        /* \"#utility.yul\":5185:5203   */\n      0x44\n      dup3\n      add\n        /* \"#utility.yul\":5178:5208   */\n      mstore\n        /* \"#utility.yul\":5244:5246   */\n      0x1c\n        /* \"#utility.yul\":5224:5242   */\n      0x64\n      dup3\n      add\n        /* \"#utility.yul\":5217:5247   */\n      mstore\n        /* \"#utility.yul\":5284:5314   */\n      0x546f6b656e20646563696d616c7320646964206e6f74206d6174636800000000\n        /* \"#utility.yul\":5263:5282   */\n      0x84\n      dup3\n      add\n        /* \"#utility.yul\":5256:5315   */\n      mstore\n        /* \"#utility.yul\":5332:5351   */\n      0xa4\n      add\n        /* \"tests/MyToken_test.sol\":515:575  Assert.equal(decimals(), 18, \"Token decimals did not match\") */\n      0x20\n      mload(0x40)\n      dup1\n      dup4\n      sub\n      dup2\n      dup7\n      gas\n      delegatecall\n      iszero\n      dup1\n      iszero\n      tag_124\n      jumpi\n      returndatasize\n      0x00\n      dup1\n      returndatacopy\n      revert(0x00, returndatasize)\n    tag_124:\n      pop\n      pop\n      pop\n      pop\n      mload(0x40)\n      returndatasize\n      not(0x1f)\n      0x1f\n      dup3\n      add\n      and\n      dup3\n      add\n      dup1\n      0x40\n      mstore\n      pop\n      dup2\n      add\n      swap1\n      tag_125\n      swap2\n      swap1\n      tag_113\n      jump\t// in\n    tag_125:\n      pop\n        /* \"tests/MyToken_test.sol\":585:591  Assert */\n      linkerSymbol(\"acbfb1c35000d78352310b16a054a6b1066124b9c6f054b10c085f549bff80c6\")\n        /* \"tests/MyToken_test.sol\":585:597  Assert.equal */\n      0xabcd7960\n        /* \"tests/MyToken_test.sol\":598:611  totalSupply() */\n      tag_126\n        /* \"@openzeppelin/contracts/token/ERC20/ERC20.sol\":2927:2939  _totalSupply */\n      sload(0x02)\n      swap1\n        /* \"@openzeppelin/contracts/token/ERC20/ERC20.sol\":2849:2946  function totalSupply() public view virtual returns (uint256) {... */\n      jump\n        /* \"tests/MyToken_test.sol\":598:611  totalSupply() */\n    tag_126:\n        /* \"tests/MyToken_test.sol\":624:640  10 ** decimals() */\n      tag_128\n        /* \"@openzeppelin/contracts/token/ERC20/ERC20.sol\":2780:2782  18 */\n      0x12\n        /* \"tests/MyToken_test.sol\":624:626  10 */\n      0x0a\n        /* \"tests/MyToken_test.sol\":624:640  10 ** decimals() */\n      tag_129\n      jump\t// in\n    tag_128:\n        /* \"tests/MyToken_test.sol\":613:641  1000000 * (10 ** decimals()) */\n      tag_130\n      swap1\n        /* \"tests/MyToken_test.sol\":613:620  1000000 */\n      0x0f4240\n        /* \"tests/MyToken_test.sol\":613:641  1000000 * (10 ** decimals()) */\n      tag_131\n      jump\t// in\n    tag_130:\n        /* \"tests/MyToken_test.sol\":585:690  Assert.equal(totalSupply(), 1000000 * (10 ** decimals()), \"Token supply should match the initial supply\") */\n      mload(0x40)\n      not(sub(shl(0xe0, 0x01), 0x01))\n      0xe0\n      dup6\n      swap1\n      shl\n      and\n      dup2\n      mstore\n      0x04\n      dup2\n      add\n        /* \"#utility.yul\":7347:7372   */\n      swap3\n      swap1\n      swap3\n      mstore\n        /* \"#utility.yul\":7388:7406   */\n      0x24\n      dup3\n      add\n        /* \"#utility.yul\":7381:7415   */\n      mstore\n        /* \"#utility.yul\":7451:7453   */\n      0x60\n        /* \"#utility.yul\":7431:7449   */\n      0x44\n      dup3\n      add\n        /* \"#utility.yul\":7424:7454   */\n      mstore\n        /* \"#utility.yul\":7490:7492   */\n      0x2c\n        /* \"#utility.yul\":7470:7488   */\n      0x64\n      dup3\n      add\n        /* \"#utility.yul\":7463:7493   */\n      mstore\n        /* \"#utility.yul\":7530:7564   */\n      0x546f6b656e20737570706c792073686f756c64206d617463682074686520696e\n        /* \"#utility.yul\":7509:7528   */\n      0x84\n      dup3\n      add\n        /* \"#utility.yul\":7502:7565   */\n      mstore\n      shl(0xa0, 0x697469616c20737570706c79)\n        /* \"#utility.yul\":7581:7600   */\n      0xa4\n      dup3\n      add\n        /* \"#utility.yul\":7574:7617   */\n      mstore\n        /* \"#utility.yul\":7634:7653   */\n      0xc4\n      add\n        /* \"tests/MyToken_test.sol\":585:690  Assert.equal(totalSupply(), 1000000 * (10 ** decimals()), \"Token supply should match the initial supply\") */\n      0x20\n      mload(0x40)\n      dup1\n      dup4\n      sub\n      dup2\n      dup7\n      gas\n      delegatecall\n      iszero\n      dup1\n      iszero\n      tag_135\n      jumpi\n      returndatasize\n      0x00\n      dup1\n      returndatacopy\n      revert(0x00, returndatasize)\n    tag_135:\n      pop\n      pop\n      pop\n      pop\n      mload(0x40)\n      returndatasize\n      not(0x1f)\n      0x1f\n      dup3\n      add\n      and\n      dup3\n      add\n      dup1\n      0x40\n      mstore\n      pop\n      dup2\n      add\n      swap1\n      tag_136\n      swap2\n      swap1\n      tag_113\n      jump\t// in\n    tag_136:\n      pop\n        /* \"tests/MyToken_test.sol\":313:697  function testTokenInitialValues() public {... */\n      jump\t// out\n        /* \"@openzeppelin/contracts/access/Ownable.sol\":2543:2758  function transferOwnership(address newOwner) public virtual onlyOwner {... */\n    tag_68:\n        /* \"@openzeppelin/contracts/access/Ownable.sol\":1531:1544  _checkOwner() */\n      tag_139\n        /* \"@openzeppelin/contracts/access/Ownable.sol\":1531:1542  _checkOwner */\n      tag_92\n        /* \"@openzeppelin/contracts/access/Ownable.sol\":1531:1544  _checkOwner() */\n      jump\t// in\n    tag_139:\n      sub(shl(0xa0, 0x01), 0x01)\n        /* \"@openzeppelin/contracts/access/Ownable.sol\":2627:2649  newOwner == address(0) */\n      dup2\n      and\n        /* \"@openzeppelin/contracts/access/Ownable.sol\":2623:2714  if (newOwner == address(0)) {... */\n      tag_141\n      jumpi\n        /* \"@openzeppelin/contracts/access/Ownable.sol\":2672:2703  OwnableInvalidOwner(address(0)) */\n      mload(0x40)\n      shl(0xe0, 0x1e4fbdf7)\n      dup2\n      mstore\n        /* \"@openzeppelin/contracts/access/Ownable.sol\":2700:2701  0 */\n      0x00\n        /* \"@openzeppelin/contracts/access/Ownable.sol\":2672:2703  OwnableInvalidOwner(address(0)) */\n      0x04\n      dup3\n      add\n        /* \"#utility.yul\":2295:2346   */\n      mstore\n        /* \"#utility.yul\":2268:2286   */\n      0x24\n      add\n        /* \"@openzeppelin/contracts/access/Ownable.sol\":2672:2703  OwnableInvalidOwner(address(0)) */\n    tag_142:\n      mload(0x40)\n      dup1\n      swap2\n      sub\n      swap1\n      revert\n        /* \"@openzeppelin/contracts/access/Ownable.sol\":2623:2714  if (newOwner == address(0)) {... */\n    tag_141:\n        /* \"@openzeppelin/contracts/access/Ownable.sol\":2723:2751  _transferOwnership(newOwner) */\n      tag_136\n        /* \"@openzeppelin/contracts/access/Ownable.sol\":2742:2750  newOwner */\n      dup2\n        /* \"@openzeppelin/contracts/access/Ownable.sol\":2723:2741  _transferOwnership */\n      tag_95\n        /* \"@openzeppelin/contracts/access/Ownable.sol\":2723:2751  _transferOwnership(newOwner) */\n      jump\t// in\n        /* \"@openzeppelin/contracts/token/ERC20/ERC20.sol\":8726:8854  function _approve(address owner, address spender, uint256 value) internal {... */\n    tag_80:\n        /* \"@openzeppelin/contracts/token/ERC20/ERC20.sol\":8810:8847  _approve(owner, spender, value, true) */\n      tag_146\n        /* \"@openzeppelin/contracts/token/ERC20/ERC20.sol\":8819:8824  owner */\n      dup4\n        /* \"@openzeppelin/contracts/token/ERC20/ERC20.sol\":8826:8833  spender */\n      dup4\n        /* \"@openzeppelin/contracts/token/ERC20/ERC20.sol\":8835:8840  value */\n      dup4\n        /* \"@openzeppelin/contracts/token/ERC20/ERC20.sol\":8842:8846  true */\n      0x01\n        /* \"@openzeppelin/contracts/token/ERC20/ERC20.sol\":8810:8818  _approve */\n      tag_147\n        /* \"@openzeppelin/contracts/token/ERC20/ERC20.sol\":8810:8847  _approve(owner, spender, value, true) */\n      jump\t// in\n    tag_146:\n        /* \"@openzeppelin/contracts/token/ERC20/ERC20.sol\":8726:8854  function _approve(address owner, address spender, uint256 value) internal {... */\n      pop\n      pop\n      pop\n      jump\t// out\n        /* \"@openzeppelin/contracts/token/ERC20/ERC20.sol\":10415:10892  function _spendAllowance(address owner, address spender, uint256 value) internal virtual {... */\n    tag_85:\n      sub(shl(0xa0, 0x01), 0x01)\n        /* \"@openzeppelin/contracts/token/ERC20/ERC20.sol\":3657:3675  _allowances[owner] */\n      dup4\n      dup2\n      and\n        /* \"@openzeppelin/contracts/token/ERC20/ERC20.sol\":10514:10538  uint256 currentAllowance */\n      0x00\n        /* \"@openzeppelin/contracts/token/ERC20/ERC20.sol\":3657:3675  _allowances[owner] */\n      swap1\n      dup2\n      mstore\n        /* \"@openzeppelin/contracts/token/ERC20/ERC20.sol\":3657:3668  _allowances */\n      0x01\n        /* \"@openzeppelin/contracts/token/ERC20/ERC20.sol\":3657:3675  _allowances[owner] */\n      0x20\n      swap1\n      dup2\n      mstore\n      0x40\n      dup1\n      dup4\n      keccak256\n        /* \"@openzeppelin/contracts/token/ERC20/ERC20.sol\":3657:3684  _allowances[owner][spender] */\n      swap4\n      dup7\n      and\n      dup4\n      mstore\n      swap3\n      swap1\n      mstore\n      keccak256\n      sload\n      not(0x00)\n        /* \"@openzeppelin/contracts/token/ERC20/ERC20.sol\":10580:10617  currentAllowance != type(uint256).max */\n      dup2\n      eq\n        /* \"@openzeppelin/contracts/token/ERC20/ERC20.sol\":10576:10886  if (currentAllowance != type(uint256).max) {... */\n      tag_154\n      jumpi\n        /* \"@openzeppelin/contracts/token/ERC20/ERC20.sol\":10656:10661  value */\n      dup2\n        /* \"@openzeppelin/contracts/token/ERC20/ERC20.sol\":10637:10653  currentAllowance */\n      dup2\n        /* \"@openzeppelin/contracts/token/ERC20/ERC20.sol\":10637:10661  currentAllowance < value */\n      lt\n        /* \"@openzeppelin/contracts/token/ERC20/ERC20.sol\":10633:10763  if (currentAllowance < value) {... */\n      iszero\n      tag_151\n      jumpi\n        /* \"@openzeppelin/contracts/token/ERC20/ERC20.sol\":10688:10748  ERC20InsufficientAllowance(spender, currentAllowance, value) */\n      mload(0x40)\n      shl(0xe1, 0x7dc7a0d9)\n      dup2\n      mstore\n      sub(shl(0xa0, 0x01), 0x01)\n        /* \"#utility.yul\":7884:7916   */\n      dup5\n      and\n        /* \"@openzeppelin/contracts/token/ERC20/ERC20.sol\":10688:10748  ERC20InsufficientAllowance(spender, currentAllowance, value) */\n      0x04\n      dup3\n      add\n        /* \"#utility.yul\":7866:7917   */\n      mstore\n        /* \"#utility.yul\":7933:7951   */\n      0x24\n      dup2\n      add\n        /* \"#utility.yul\":7926:7960   */\n      dup3\n      swap1\n      mstore\n        /* \"#utility.yul\":7976:7994   */\n      0x44\n      dup2\n      add\n        /* \"#utility.yul\":7969:8003   */\n      dup4\n      swap1\n      mstore\n        /* \"#utility.yul\":7839:7857   */\n      0x64\n      add\n        /* \"@openzeppelin/contracts/token/ERC20/ERC20.sol\":10688:10748  ERC20InsufficientAllowance(spender, currentAllowance, value) */\n      tag_142\n        /* \"#utility.yul\":7664:8009   */\n      jump\n        /* \"@openzeppelin/contracts/token/ERC20/ERC20.sol\":10633:10763  if (currentAllowance < value) {... */\n    tag_151:\n        /* \"@openzeppelin/contracts/token/ERC20/ERC20.sol\":10804:10861  _approve(owner, spender, currentAllowance - value, false) */\n      tag_154\n        /* \"@openzeppelin/contracts/token/ERC20/ERC20.sol\":10813:10818  owner */\n      dup5\n        /* \"@openzeppelin/contracts/token/ERC20/ERC20.sol\":10820:10827  spender */\n      dup5\n        /* \"@openzeppelin/contracts/token/ERC20/ERC20.sol\":10848:10853  value */\n      dup5\n        /* \"@openzeppelin/contracts/token/ERC20/ERC20.sol\":10829:10845  currentAllowance */\n      dup5\n        /* \"@openzeppelin/contracts/token/ERC20/ERC20.sol\":10829:10853  currentAllowance - value */\n      sub\n        /* \"@openzeppelin/contracts/token/ERC20/ERC20.sol\":10855:10860  false */\n      0x00\n        /* \"@openzeppelin/contracts/token/ERC20/ERC20.sol\":10804:10812  _approve */\n      tag_147\n        /* \"@openzeppelin/contracts/token/ERC20/ERC20.sol\":10804:10861  _approve(owner, spender, currentAllowance - value, false) */\n      jump\t// in\n    tag_154:\n        /* \"@openzeppelin/contracts/token/ERC20/ERC20.sol\":10504:10892  {... */\n      pop\n        /* \"@openzeppelin/contracts/token/ERC20/ERC20.sol\":10415:10892  function _spendAllowance(address owner, address spender, uint256 value) internal virtual {... */\n      pop\n      pop\n      pop\n      jump\t// out\n        /* \"@openzeppelin/contracts/token/ERC20/ERC20.sol\":5393:5693  function _transfer(address from, address to, uint256 value) internal {... */\n    tag_87:\n      sub(shl(0xa0, 0x01), 0x01)\n        /* \"@openzeppelin/contracts/token/ERC20/ERC20.sol\":5476:5494  from == address(0) */\n      dup4\n      and\n        /* \"@openzeppelin/contracts/token/ERC20/ERC20.sol\":5472:5558  if (from == address(0)) {... */\n      tag_156\n      jumpi\n        /* \"@openzeppelin/contracts/token/ERC20/ERC20.sol\":5517:5547  ERC20InvalidSender(address(0)) */\n      mload(0x40)\n      shl(0xe1, 0x4b637e8f)\n      dup2\n      mstore\n        /* \"@openzeppelin/contracts/token/ERC20/ERC20.sol\":5544:5545  0 */\n      0x00\n        /* \"@openzeppelin/contracts/token/ERC20/ERC20.sol\":5517:5547  ERC20InvalidSender(address(0)) */\n      0x04\n      dup3\n      add\n        /* \"#utility.yul\":2295:2346   */\n      mstore\n        /* \"#utility.yul\":2268:2286   */\n      0x24\n      add\n        /* \"@openzeppelin/contracts/token/ERC20/ERC20.sol\":5517:5547  ERC20InvalidSender(address(0)) */\n      tag_142\n        /* \"#utility.yul\":2149:2352   */\n      jump\n        /* \"@openzeppelin/contracts/token/ERC20/ERC20.sol\":5472:5558  if (from == address(0)) {... */\n    tag_156:\n      sub(shl(0xa0, 0x01), 0x01)\n        /* \"@openzeppelin/contracts/token/ERC20/ERC20.sol\":5571:5587  to == address(0) */\n      dup3\n      and\n        /* \"@openzeppelin/contracts/token/ERC20/ERC20.sol\":5567:5653  if (to == address(0)) {... */\n      tag_158\n      jumpi\n        /* \"@openzeppelin/contracts/token/ERC20/ERC20.sol\":5610:5642  ERC20InvalidReceiver(address(0)) */\n      mload(0x40)\n      shl(0xe0, 0xec442f05)\n      dup2\n      mstore\n        /* \"@openzeppelin/contracts/token/ERC20/ERC20.sol\":5639:5640  0 */\n      0x00\n        /* \"@openzeppelin/contracts/token/ERC20/ERC20.sol\":5610:5642  ERC20InvalidReceiver(address(0)) */\n      0x04\n      dup3\n      add\n        /* \"#utility.yul\":2295:2346   */\n      mstore\n        /* \"#utility.yul\":2268:2286   */\n      0x24\n      add\n        /* \"@openzeppelin/contracts/token/ERC20/ERC20.sol\":5610:5642  ERC20InvalidReceiver(address(0)) */\n      tag_142\n        /* \"#utility.yul\":2149:2352   */\n      jump\n        /* \"@openzeppelin/contracts/token/ERC20/ERC20.sol\":5567:5653  if (to == address(0)) {... */\n    tag_158:\n        /* \"@openzeppelin/contracts/token/ERC20/ERC20.sol\":5662:5686  _update(from, to, value) */\n      tag_146\n        /* \"@openzeppelin/contracts/token/ERC20/ERC20.sol\":5670:5674  from */\n      dup4\n        /* \"@openzeppelin/contracts/token/ERC20/ERC20.sol\":5676:5678  to */\n      dup4\n        /* \"@openzeppelin/contracts/token/ERC20/ERC20.sol\":5680:5685  value */\n      dup4\n        /* \"@openzeppelin/contracts/token/ERC20/ERC20.sol\":5662:5669  _update */\n      tag_161\n        /* \"@openzeppelin/contracts/token/ERC20/ERC20.sol\":5662:5686  _update(from, to, value) */\n      jump\t// in\n        /* \"@openzeppelin/contracts/access/Ownable.sol\":1796:1958  function _checkOwner() internal view virtual {... */\n    tag_92:\n        /* \"@openzeppelin/contracts/access/Ownable.sol\":1710:1716  _owner */\n      and(sub(shl(0xa0, 0x01), 0x01), sload(0x05))\n        /* \"@openzeppelin/contracts/utils/Context.sol\":735:745  msg.sender */\n      caller\n        /* \"@openzeppelin/contracts/access/Ownable.sol\":1855:1878  owner() != _msgSender() */\n      eq\n        /* \"@openzeppelin/contracts/access/Ownable.sol\":1851:1952  if (owner() != _msgSender()) {... */\n      tag_94\n      jumpi\n        /* \"@openzeppelin/contracts/access/Ownable.sol\":1901:1941  OwnableUnauthorizedAccount(_msgSender()) */\n      mload(0x40)\n      shl(0xe0, 0x118cdaa7)\n      dup2\n      mstore\n        /* \"@openzeppelin/contracts/utils/Context.sol\":735:745  msg.sender */\n      caller\n        /* \"@openzeppelin/contracts/access/Ownable.sol\":1901:1941  OwnableUnauthorizedAccount(_msgSender()) */\n      0x04\n      dup3\n      add\n        /* \"#utility.yul\":2295:2346   */\n      mstore\n        /* \"#utility.yul\":2268:2286   */\n      0x24\n      add\n        /* \"@openzeppelin/contracts/access/Ownable.sol\":1901:1941  OwnableUnauthorizedAccount(_msgSender()) */\n      tag_142\n        /* \"#utility.yul\":2149:2352   */\n      jump\n        /* \"@openzeppelin/contracts/access/Ownable.sol\":2912:3099  function _transferOwnership(address newOwner) internal virtual {... */\n    tag_95:\n        /* \"@openzeppelin/contracts/access/Ownable.sol\":3004:3010  _owner */\n      0x05\n      dup1\n      sload\n      sub(shl(0xa0, 0x01), 0x01)\n        /* \"@openzeppelin/contracts/access/Ownable.sol\":3020:3037  _owner = newOwner */\n      dup4\n      dup2\n      and\n      not(sub(shl(0xa0, 0x01), 0x01))\n      dup4\n      and\n      dup2\n      or\n      swap1\n      swap4\n      sstore\n        /* \"@openzeppelin/contracts/access/Ownable.sol\":3052:3092  OwnershipTransferred(oldOwner, newOwner) */\n      mload(0x40)\n        /* \"@openzeppelin/contracts/access/Ownable.sol\":3004:3010  _owner */\n      swap2\n      and\n      swap2\n        /* \"@openzeppelin/contracts/access/Ownable.sol\":3020:3037  _owner = newOwner */\n      swap1\n        /* \"@openzeppelin/contracts/access/Ownable.sol\":3004:3010  _owner */\n      dup3\n      swap1\n        /* \"@openzeppelin/contracts/access/Ownable.sol\":3052:3092  OwnershipTransferred(oldOwner, newOwner) */\n      0x8be0079c531659141344cd1fd0a4f28419497f9722a3daafe3b4186f6b6457e0\n      swap1\n        /* \"@openzeppelin/contracts/access/Ownable.sol\":2985:3001  address oldOwner */\n      0x00\n      swap1\n        /* \"@openzeppelin/contracts/access/Ownable.sol\":3052:3092  OwnershipTransferred(oldOwner, newOwner) */\n      log3\n        /* \"@openzeppelin/contracts/access/Ownable.sol\":2975:3099  {... */\n      pop\n        /* \"@openzeppelin/contracts/access/Ownable.sol\":2912:3099  function _transferOwnership(address newOwner) internal virtual {... */\n      pop\n      jump\t// out\n        /* \"@openzeppelin/contracts/token/ERC20/ERC20.sol\":9701:10133  function _approve(address owner, address spender, uint256 value, bool emitEvent) internal virtual {... */\n    tag_147:\n      sub(shl(0xa0, 0x01), 0x01)\n        /* \"@openzeppelin/contracts/token/ERC20/ERC20.sol\":9813:9832  owner == address(0) */\n      dup5\n      and\n        /* \"@openzeppelin/contracts/token/ERC20/ERC20.sol\":9809:9898  if (owner == address(0)) {... */\n      tag_170\n      jumpi\n        /* \"@openzeppelin/contracts/token/ERC20/ERC20.sol\":9855:9887  ERC20InvalidApprover(address(0)) */\n      mload(0x40)\n      shl(0xe0, 0xe602df05)\n      dup2\n      mstore\n        /* \"@openzeppelin/contracts/token/ERC20/ERC20.sol\":9884:9885  0 */\n      0x00\n        /* \"@openzeppelin/contracts/token/ERC20/ERC20.sol\":9855:9887  ERC20InvalidApprover(address(0)) */\n      0x04\n      dup3\n      add\n        /* \"#utility.yul\":2295:2346   */\n      mstore\n        /* \"#utility.yul\":2268:2286   */\n      0x24\n      add\n        /* \"@openzeppelin/contracts/token/ERC20/ERC20.sol\":9855:9887  ERC20InvalidApprover(address(0)) */\n      tag_142\n        /* \"#utility.yul\":2149:2352   */\n      jump\n        /* \"@openzeppelin/contracts/token/ERC20/ERC20.sol\":9809:9898  if (owner == address(0)) {... */\n    tag_170:\n      sub(shl(0xa0, 0x01), 0x01)\n        /* \"@openzeppelin/contracts/token/ERC20/ERC20.sol\":9911:9932  spender == address(0) */\n      dup4\n      and\n        /* \"@openzeppelin/contracts/token/ERC20/ERC20.sol\":9907:9997  if (spender == address(0)) {... */\n      tag_172\n      jumpi\n        /* \"@openzeppelin/contracts/token/ERC20/ERC20.sol\":9955:9986  ERC20InvalidSpender(address(0)) */\n      mload(0x40)\n      shl(0xe1, 0x4a1406b1)\n      dup2\n      mstore\n        /* \"@openzeppelin/contracts/token/ERC20/ERC20.sol\":9983:9984  0 */\n      0x00\n        /* \"@openzeppelin/contracts/token/ERC20/ERC20.sol\":9955:9986  ERC20InvalidSpender(address(0)) */\n      0x04\n      dup3\n      add\n        /* \"#utility.yul\":2295:2346   */\n      mstore\n        /* \"#utility.yul\":2268:2286   */\n      0x24\n      add\n        /* \"@openzeppelin/contracts/token/ERC20/ERC20.sol\":9955:9986  ERC20InvalidSpender(address(0)) */\n      tag_142\n        /* \"#utility.yul\":2149:2352   */\n      jump\n        /* \"@openzeppelin/contracts/token/ERC20/ERC20.sol\":9907:9997  if (spender == address(0)) {... */\n    tag_172:\n      sub(shl(0xa0, 0x01), 0x01)\n        /* \"@openzeppelin/contracts/token/ERC20/ERC20.sol\":10006:10024  _allowances[owner] */\n      dup1\n      dup6\n      and\n      0x00\n      swap1\n      dup2\n      mstore\n        /* \"@openzeppelin/contracts/token/ERC20/ERC20.sol\":10006:10017  _allowances */\n      0x01\n        /* \"@openzeppelin/contracts/token/ERC20/ERC20.sol\":10006:10024  _allowances[owner] */\n      0x20\n      swap1\n      dup2\n      mstore\n      0x40\n      dup1\n      dup4\n      keccak256\n        /* \"@openzeppelin/contracts/token/ERC20/ERC20.sol\":10006:10033  _allowances[owner][spender] */\n      swap4\n      dup8\n      and\n      dup4\n      mstore\n      swap3\n      swap1\n      mstore\n      keccak256\n        /* \"@openzeppelin/contracts/token/ERC20/ERC20.sol\":10006:10041  _allowances[owner][spender] = value */\n      dup3\n      swap1\n      sstore\n        /* \"@openzeppelin/contracts/token/ERC20/ERC20.sol\":10051:10127  if (emitEvent) {... */\n      dup1\n      iszero\n      tag_154\n      jumpi\n        /* \"@openzeppelin/contracts/token/ERC20/ERC20.sol\":10101:10108  spender */\n      dup3\n      sub(shl(0xa0, 0x01), 0x01)\n        /* \"@openzeppelin/contracts/token/ERC20/ERC20.sol\":10085:10116  Approval(owner, spender, value) */\n      and\n        /* \"@openzeppelin/contracts/token/ERC20/ERC20.sol\":10094:10099  owner */\n      dup5\n      sub(shl(0xa0, 0x01), 0x01)\n        /* \"@openzeppelin/contracts/token/ERC20/ERC20.sol\":10085:10116  Approval(owner, spender, value) */\n      and\n      0x8c5be1e5ebec7d5bd14f71427d1e84f3dd0314c0f7b2291e5b200ac8c7c3b925\n        /* \"@openzeppelin/contracts/token/ERC20/ERC20.sol\":10110:10115  value */\n      dup5\n        /* \"@openzeppelin/contracts/token/ERC20/ERC20.sol\":10085:10116  Approval(owner, spender, value) */\n      mload(0x40)\n      tag_175\n      swap2\n        /* \"#utility.yul\":1354:1379   */\n      dup2\n      mstore\n        /* \"#utility.yul\":1342:1344   */\n      0x20\n        /* \"#utility.yul\":1327:1345   */\n      add\n      swap1\n        /* \"#utility.yul\":1208:1385   */\n      jump\n        /* \"@openzeppelin/contracts/token/ERC20/ERC20.sol\":10085:10116  Approval(owner, spender, value) */\n    tag_175:\n      mload(0x40)\n      dup1\n      swap2\n      sub\n      swap1\n      log3\n        /* \"@openzeppelin/contracts/token/ERC20/ERC20.sol\":9701:10133  function _approve(address owner, address spender, uint256 value, bool emitEvent) internal virtual {... */\n      pop\n      pop\n      pop\n      pop\n      jump\t// out\n        /* \"@openzeppelin/contracts/token/ERC20/ERC20.sol\":6008:7115  function _update(address from, address to, uint256 value) internal virtual {... */\n    tag_161:\n      sub(shl(0xa0, 0x01), 0x01)\n        /* \"@openzeppelin/contracts/token/ERC20/ERC20.sol\":6097:6115  from == address(0) */\n      dup4\n      and\n        /* \"@openzeppelin/contracts/token/ERC20/ERC20.sol\":6093:6633  if (from == address(0)) {... */\n      tag_177\n      jumpi\n        /* \"@openzeppelin/contracts/token/ERC20/ERC20.sol\":6249:6254  value */\n      dup1\n        /* \"@openzeppelin/contracts/token/ERC20/ERC20.sol\":6233:6245  _totalSupply */\n      0x02\n      0x00\n        /* \"@openzeppelin/contracts/token/ERC20/ERC20.sol\":6233:6254  _totalSupply += value */\n      dup3\n      dup3\n      sload\n      tag_178\n      swap2\n      swap1\n      tag_179\n      jump\t// in\n    tag_178:\n      swap1\n      swap2\n      sstore\n      pop\n        /* \"@openzeppelin/contracts/token/ERC20/ERC20.sol\":6093:6633  if (from == address(0)) {... */\n      tag_180\n      swap1\n      pop\n      jump\n    tag_177:\n      sub(shl(0xa0, 0x01), 0x01)\n        /* \"@openzeppelin/contracts/token/ERC20/ERC20.sol\":6307:6322  _balances[from] */\n      dup4\n      and\n        /* \"@openzeppelin/contracts/token/ERC20/ERC20.sol\":6285:6304  uint256 fromBalance */\n      0x00\n        /* \"@openzeppelin/contracts/token/ERC20/ERC20.sol\":6307:6322  _balances[from] */\n      swap1\n      dup2\n      mstore\n      0x20\n      dup2\n      swap1\n      mstore\n      0x40\n      swap1\n      keccak256\n      sload\n        /* \"@openzeppelin/contracts/token/ERC20/ERC20.sol\":6340:6359  fromBalance < value */\n      dup2\n      dup2\n      lt\n        /* \"@openzeppelin/contracts/token/ERC20/ERC20.sol\":6336:6451  if (fromBalance < value) {... */\n      iszero\n      tag_181\n      jumpi\n        /* \"@openzeppelin/contracts/token/ERC20/ERC20.sol\":6386:6436  ERC20InsufficientBalance(from, fromBalance, value) */\n      mload(0x40)\n      shl(0xe2, 0x391434e3)\n      dup2\n      mstore\n      sub(shl(0xa0, 0x01), 0x01)\n        /* \"#utility.yul\":7884:7916   */\n      dup6\n      and\n        /* \"@openzeppelin/contracts/token/ERC20/ERC20.sol\":6386:6436  ERC20InsufficientBalance(from, fromBalance, value) */\n      0x04\n      dup3\n      add\n        /* \"#utility.yul\":7866:7917   */\n      mstore\n        /* \"#utility.yul\":7933:7951   */\n      0x24\n      dup2\n      add\n        /* \"#utility.yul\":7926:7960   */\n      dup3\n      swap1\n      mstore\n        /* \"#utility.yul\":7976:7994   */\n      0x44\n      dup2\n      add\n        /* \"#utility.yul\":7969:8003   */\n      dup4\n      swap1\n      mstore\n        /* \"#utility.yul\":7839:7857   */\n      0x64\n      add\n        /* \"@openzeppelin/contracts/token/ERC20/ERC20.sol\":6386:6436  ERC20InsufficientBalance(from, fromBalance, value) */\n      tag_142\n        /* \"#utility.yul\":7664:8009   */\n      jump\n        /* \"@openzeppelin/contracts/token/ERC20/ERC20.sol\":6336:6451  if (fromBalance < value) {... */\n    tag_181:\n      sub(shl(0xa0, 0x01), 0x01)\n        /* \"@openzeppelin/contracts/token/ERC20/ERC20.sol\":6571:6586  _balances[from] */\n      dup5\n      and\n        /* \"@openzeppelin/contracts/token/ERC20/ERC20.sol\":6571:6580  _balances */\n      0x00\n        /* \"@openzeppelin/contracts/token/ERC20/ERC20.sol\":6571:6586  _balances[from] */\n      swap1\n      dup2\n      mstore\n      0x20\n      dup2\n      swap1\n      mstore\n      0x40\n      swap1\n      keccak256\n        /* \"@openzeppelin/contracts/token/ERC20/ERC20.sol\":6589:6608  fromBalance - value */\n      swap1\n      dup3\n      swap1\n      sub\n        /* \"@openzeppelin/contracts/token/ERC20/ERC20.sol\":6571:6608  _balances[from] = fromBalance - value */\n      swap1\n      sstore\n        /* \"@openzeppelin/contracts/token/ERC20/ERC20.sol\":6093:6633  if (from == address(0)) {... */\n    tag_180:\n      sub(shl(0xa0, 0x01), 0x01)\n        /* \"@openzeppelin/contracts/token/ERC20/ERC20.sol\":6647:6663  to == address(0) */\n      dup3\n      and\n        /* \"@openzeppelin/contracts/token/ERC20/ERC20.sol\":6643:7068  if (to == address(0)) {... */\n      tag_183\n      jumpi\n        /* \"@openzeppelin/contracts/token/ERC20/ERC20.sol\":6810:6822  _totalSupply */\n      0x02\n        /* \"@openzeppelin/contracts/token/ERC20/ERC20.sol\":6810:6831  _totalSupply -= value */\n      dup1\n      sload\n      dup3\n      swap1\n      sub\n      swap1\n      sstore\n        /* \"@openzeppelin/contracts/token/ERC20/ERC20.sol\":6643:7068  if (to == address(0)) {... */\n      jump(tag_184)\n    tag_183:\n      sub(shl(0xa0, 0x01), 0x01)\n        /* \"@openzeppelin/contracts/token/ERC20/ERC20.sol\":7021:7034  _balances[to] */\n      dup3\n      and\n        /* \"@openzeppelin/contracts/token/ERC20/ERC20.sol\":7021:7030  _balances */\n      0x00\n        /* \"@openzeppelin/contracts/token/ERC20/ERC20.sol\":7021:7034  _balances[to] */\n      swap1\n      dup2\n      mstore\n      0x20\n      dup2\n      swap1\n      mstore\n      0x40\n      swap1\n      keccak256\n        /* \"@openzeppelin/contracts/token/ERC20/ERC20.sol\":7021:7043  _balances[to] += value */\n      dup1\n      sload\n      dup3\n      add\n      swap1\n      sstore\n        /* \"@openzeppelin/contracts/token/ERC20/ERC20.sol\":6643:7068  if (to == address(0)) {... */\n    tag_184:\n        /* \"@openzeppelin/contracts/token/ERC20/ERC20.sol\":7098:7100  to */\n      dup2\n      sub(shl(0xa0, 0x01), 0x01)\n        /* \"@openzeppelin/contracts/token/ERC20/ERC20.sol\":7083:7108  Transfer(from, to, value) */\n      and\n        /* \"@openzeppelin/contracts/token/ERC20/ERC20.sol\":7092:7096  from */\n      dup4\n      sub(shl(0xa0, 0x01), 0x01)\n        /* \"@openzeppelin/contracts/token/ERC20/ERC20.sol\":7083:7108  Transfer(from, to, value) */\n      and\n      0xddf252ad1be2c89b69c2b068fc378daa952ba7f163c4a11628f55a4df523b3ef\n        /* \"@openzeppelin/contracts/token/ERC20/ERC20.sol\":7102:7107  value */\n      dup4\n        /* \"@openzeppelin/contracts/token/ERC20/ERC20.sol\":7083:7108  Transfer(from, to, value) */\n      mload(0x40)\n      tag_185\n      swap2\n        /* \"#utility.yul\":1354:1379   */\n      dup2\n      mstore\n        /* \"#utility.yul\":1342:1344   */\n      0x20\n        /* \"#utility.yul\":1327:1345   */\n      add\n      swap1\n        /* \"#utility.yul\":1208:1385   */\n      jump\n        /* \"@openzeppelin/contracts/token/ERC20/ERC20.sol\":7083:7108  Transfer(from, to, value) */\n    tag_185:\n      mload(0x40)\n      dup1\n      swap2\n      sub\n      swap1\n      log3\n        /* \"@openzeppelin/contracts/token/ERC20/ERC20.sol\":6008:7115  function _update(address from, address to, uint256 value) internal virtual {... */\n      pop\n      pop\n      pop\n      jump\t// out\n        /* \"#utility.yul\":14:303   */\n    tag_186:\n        /* \"#utility.yul\":56:59   */\n      0x00\n        /* \"#utility.yul\":94:99   */\n      dup2\n        /* \"#utility.yul\":88:100   */\n      mload\n        /* \"#utility.yul\":121:127   */\n      dup1\n        /* \"#utility.yul\":116:119   */\n      dup5\n        /* \"#utility.yul\":109:128   */\n      mstore\n        /* \"#utility.yul\":177:183   */\n      dup1\n        /* \"#utility.yul\":170:174   */\n      0x20\n        /* \"#utility.yul\":163:168   */\n      dup5\n        /* \"#utility.yul\":159:175   */\n      add\n        /* \"#utility.yul\":152:156   */\n      0x20\n        /* \"#utility.yul\":147:150   */\n      dup7\n        /* \"#utility.yul\":143:157   */\n      add\n        /* \"#utility.yul\":137:184   */\n      mcopy\n        /* \"#utility.yul\":229:230   */\n      0x00\n        /* \"#utility.yul\":222:226   */\n      0x20\n        /* \"#utility.yul\":213:219   */\n      dup3\n        /* \"#utility.yul\":208:211   */\n      dup7\n        /* \"#utility.yul\":204:220   */\n      add\n        /* \"#utility.yul\":200:227   */\n      add\n        /* \"#utility.yul\":193:231   */\n      mstore\n        /* \"#utility.yul\":292:296   */\n      0x20\n        /* \"#utility.yul\":285:287   */\n      0x1f\n        /* \"#utility.yul\":281:288   */\n      not\n        /* \"#utility.yul\":276:278   */\n      0x1f\n        /* \"#utility.yul\":268:274   */\n      dup4\n        /* \"#utility.yul\":264:279   */\n      add\n        /* \"#utility.yul\":260:289   */\n      and\n        /* \"#utility.yul\":255:258   */\n      dup6\n        /* \"#utility.yul\":251:290   */\n      add\n        /* \"#utility.yul\":247:297   */\n      add\n        /* \"#utility.yul\":240:297   */\n      swap2\n      pop\n      pop\n        /* \"#utility.yul\":14:303   */\n      swap3\n      swap2\n      pop\n      pop\n      jump\t// out\n        /* \"#utility.yul\":308:528   */\n    tag_21:\n        /* \"#utility.yul\":457:459   */\n      0x20\n        /* \"#utility.yul\":446:455   */\n      dup2\n        /* \"#utility.yul\":439:460   */\n      mstore\n        /* \"#utility.yul\":420:424   */\n      0x00\n        /* \"#utility.yul\":477:522   */\n      tag_194\n        /* \"#utility.yul\":518:520   */\n      0x20\n        /* \"#utility.yul\":507:516   */\n      dup4\n        /* \"#utility.yul\":503:521   */\n      add\n        /* \"#utility.yul\":495:501   */\n      dup5\n        /* \"#utility.yul\":477:522   */\n      tag_186\n      jump\t// in\n    tag_194:\n        /* \"#utility.yul\":469:522   */\n      swap4\n        /* \"#utility.yul\":308:528   */\n      swap3\n      pop\n      pop\n      pop\n      jump\t// out\n        /* \"#utility.yul\":533:706   */\n    tag_187:\n        /* \"#utility.yul\":601:621   */\n      dup1\n      calldataload\n      sub(shl(0xa0, 0x01), 0x01)\n        /* \"#utility.yul\":650:681   */\n      dup2\n      and\n        /* \"#utility.yul\":640:682   */\n      dup2\n      eq\n        /* \"#utility.yul\":630:700   */\n      tag_196\n      jumpi\n        /* \"#utility.yul\":696:697   */\n      0x00\n        /* \"#utility.yul\":693:694   */\n      dup1\n        /* \"#utility.yul\":686:698   */\n      revert\n        /* \"#utility.yul\":630:700   */\n    tag_196:\n        /* \"#utility.yul\":533:706   */\n      swap2\n      swap1\n      pop\n      jump\t// out\n        /* \"#utility.yul\":711:1011   */\n    tag_24:\n        /* \"#utility.yul\":779:785   */\n      0x00\n        /* \"#utility.yul\":787:793   */\n      dup1\n        /* \"#utility.yul\":840:842   */\n      0x40\n        /* \"#utility.yul\":828:837   */\n      dup4\n        /* \"#utility.yul\":819:826   */\n      dup6\n        /* \"#utility.yul\":815:838   */\n      sub\n        /* \"#utility.yul\":811:843   */\n      slt\n        /* \"#utility.yul\":808:860   */\n      iszero\n      tag_198\n      jumpi\n        /* \"#utility.yul\":856:857   */\n      0x00\n        /* \"#utility.yul\":853:854   */\n      dup1\n        /* \"#utility.yul\":846:858   */\n      revert\n        /* \"#utility.yul\":808:860   */\n    tag_198:\n        /* \"#utility.yul\":879:908   */\n      tag_199\n        /* \"#utility.yul\":898:907   */\n      dup4\n        /* \"#utility.yul\":879:908   */\n      tag_187\n      jump\t// in\n    tag_199:\n        /* \"#utility.yul\":869:908   */\n      swap5\n        /* \"#utility.yul\":977:979   */\n      0x20\n        /* \"#utility.yul\":962:980   */\n      swap4\n      swap1\n      swap4\n      add\n        /* \"#utility.yul\":949:981   */\n      calldataload\n      swap4\n      pop\n      pop\n      pop\n        /* \"#utility.yul\":711:1011   */\n      jump\t// out\n        /* \"#utility.yul\":1390:1764   */\n    tag_34:\n        /* \"#utility.yul\":1467:1473   */\n      0x00\n        /* \"#utility.yul\":1475:1481   */\n      dup1\n        /* \"#utility.yul\":1483:1489   */\n      0x00\n        /* \"#utility.yul\":1536:1538   */\n      0x60\n        /* \"#utility.yul\":1524:1533   */\n      dup5\n        /* \"#utility.yul\":1515:1522   */\n      dup7\n        /* \"#utility.yul\":1511:1534   */\n      sub\n        /* \"#utility.yul\":1507:1539   */\n      slt\n        /* \"#utility.yul\":1504:1556   */\n      iszero\n      tag_203\n      jumpi\n        /* \"#utility.yul\":1552:1553   */\n      0x00\n        /* \"#utility.yul\":1549:1550   */\n      dup1\n        /* \"#utility.yul\":1542:1554   */\n      revert\n        /* \"#utility.yul\":1504:1556   */\n    tag_203:\n        /* \"#utility.yul\":1575:1604   */\n      tag_204\n        /* \"#utility.yul\":1594:1603   */\n      dup5\n        /* \"#utility.yul\":1575:1604   */\n      tag_187\n      jump\t// in\n    tag_204:\n        /* \"#utility.yul\":1565:1604   */\n      swap3\n      pop\n        /* \"#utility.yul\":1623:1661   */\n      tag_205\n        /* \"#utility.yul\":1657:1659   */\n      0x20\n        /* \"#utility.yul\":1646:1655   */\n      dup6\n        /* \"#utility.yul\":1642:1660   */\n      add\n        /* \"#utility.yul\":1623:1661   */\n      tag_187\n      jump\t// in\n    tag_205:\n        /* \"#utility.yul\":1390:1764   */\n      swap3\n      swap6\n        /* \"#utility.yul\":1613:1661   */\n      swap3\n      swap5\n      pop\n      pop\n      pop\n        /* \"#utility.yul\":1730:1732   */\n      0x40\n        /* \"#utility.yul\":1715:1733   */\n      swap2\n      swap1\n      swap2\n      add\n        /* \"#utility.yul\":1702:1734   */\n      calldataload\n      swap1\n        /* \"#utility.yul\":1390:1764   */\n      jump\t// out\n        /* \"#utility.yul\":1958:2144   */\n    tag_43:\n        /* \"#utility.yul\":2017:2023   */\n      0x00\n        /* \"#utility.yul\":2070:2072   */\n      0x20\n        /* \"#utility.yul\":2058:2067   */\n      dup3\n        /* \"#utility.yul\":2049:2056   */\n      dup5\n        /* \"#utility.yul\":2045:2068   */\n      sub\n        /* \"#utility.yul\":2041:2073   */\n      slt\n        /* \"#utility.yul\":2038:2090   */\n      iszero\n      tag_208\n      jumpi\n        /* \"#utility.yul\":2086:2087   */\n      0x00\n        /* \"#utility.yul\":2083:2084   */\n      dup1\n        /* \"#utility.yul\":2076:2088   */\n      revert\n        /* \"#utility.yul\":2038:2090   */\n    tag_208:\n        /* \"#utility.yul\":2109:2138   */\n      tag_194\n        /* \"#utility.yul\":2128:2137   */\n      dup3\n        /* \"#utility.yul\":2109:2138   */\n      tag_187\n      jump\t// in\n        /* \"#utility.yul\":2357:2617   */\n    tag_63:\n        /* \"#utility.yul\":2425:2431   */\n      0x00\n        /* \"#utility.yul\":2433:2439   */\n      dup1\n        /* \"#utility.yul\":2486:2488   */\n      0x40\n        /* \"#utility.yul\":2474:2483   */\n      dup4\n        /* \"#utility.yul\":2465:2472   */\n      dup6\n        /* \"#utility.yul\":2461:2484   */\n      sub\n        /* \"#utility.yul\":2457:2489   */\n      slt\n        /* \"#utility.yul\":2454:2506   */\n      iszero\n      tag_212\n      jumpi\n        /* \"#utility.yul\":2502:2503   */\n      0x00\n        /* \"#utility.yul\":2499:2500   */\n      dup1\n        /* \"#utility.yul\":2492:2504   */\n      revert\n        /* \"#utility.yul\":2454:2506   */\n    tag_212:\n        /* \"#utility.yul\":2525:2554   */\n      tag_213\n        /* \"#utility.yul\":2544:2553   */\n      dup4\n        /* \"#utility.yul\":2525:2554   */\n      tag_187\n      jump\t// in\n    tag_213:\n        /* \"#utility.yul\":2515:2554   */\n      swap2\n      pop\n        /* \"#utility.yul\":2573:2611   */\n      tag_214\n        /* \"#utility.yul\":2607:2609   */\n      0x20\n        /* \"#utility.yul\":2596:2605   */\n      dup5\n        /* \"#utility.yul\":2592:2610   */\n      add\n        /* \"#utility.yul\":2573:2611   */\n      tag_187\n      jump\t// in\n    tag_214:\n        /* \"#utility.yul\":2563:2611   */\n      swap1\n      pop\n        /* \"#utility.yul\":2357:2617   */\n      swap3\n      pop\n      swap3\n      swap1\n      pop\n      jump\t// out\n        /* \"#utility.yul\":2622:3002   */\n    tag_71:\n        /* \"#utility.yul\":2701:2702   */\n      0x01\n        /* \"#utility.yul\":2697:2709   */\n      dup2\n      dup2\n      shr\n      swap1\n        /* \"#utility.yul\":2744:2756   */\n      dup3\n      and\n      dup1\n        /* \"#utility.yul\":2765:2826   */\n      tag_216\n      jumpi\n        /* \"#utility.yul\":2819:2823   */\n      0x7f\n        /* \"#utility.yul\":2811:2817   */\n      dup3\n        /* \"#utility.yul\":2807:2824   */\n      and\n        /* \"#utility.yul\":2797:2824   */\n      swap2\n      pop\n        /* \"#utility.yul\":2765:2826   */\n    tag_216:\n        /* \"#utility.yul\":2872:2874   */\n      0x20\n        /* \"#utility.yul\":2864:2870   */\n      dup3\n        /* \"#utility.yul\":2861:2875   */\n      lt\n        /* \"#utility.yul\":2841:2859   */\n      dup2\n        /* \"#utility.yul\":2838:2876   */\n      sub\n        /* \"#utility.yul\":2835:2996   */\n      tag_217\n      jumpi\n        /* \"#utility.yul\":2918:2928   */\n      0x4e487b71\n        /* \"#utility.yul\":2913:2916   */\n      0xe0\n        /* \"#utility.yul\":2909:2929   */\n      shl\n        /* \"#utility.yul\":2906:2907   */\n      0x00\n        /* \"#utility.yul\":2899:2930   */\n      mstore\n        /* \"#utility.yul\":2953:2957   */\n      0x22\n        /* \"#utility.yul\":2950:2951   */\n      0x04\n        /* \"#utility.yul\":2943:2958   */\n      mstore\n        /* \"#utility.yul\":2981:2985   */\n      0x24\n        /* \"#utility.yul\":2978:2979   */\n      0x00\n        /* \"#utility.yul\":2971:2986   */\n      revert\n        /* \"#utility.yul\":2835:2996   */\n    tag_217:\n      pop\n        /* \"#utility.yul\":2622:3002   */\n      swap2\n      swap1\n      pop\n      jump\t// out\n        /* \"#utility.yul\":3007:3781   */\n    tag_109:\n        /* \"#utility.yul\":3366:3368   */\n      0x60\n        /* \"#utility.yul\":3355:3364   */\n      dup2\n        /* \"#utility.yul\":3348:3369   */\n      mstore\n        /* \"#utility.yul\":3329:3333   */\n      0x00\n        /* \"#utility.yul\":3392:3437   */\n      tag_219\n        /* \"#utility.yul\":3433:3435   */\n      0x60\n        /* \"#utility.yul\":3422:3431   */\n      dup4\n        /* \"#utility.yul\":3418:3436   */\n      add\n        /* \"#utility.yul\":3410:3416   */\n      dup5\n        /* \"#utility.yul\":3392:3437   */\n      tag_186\n      jump\t// in\n    tag_219:\n        /* \"#utility.yul\":3468:3477   */\n      dup3\n        /* \"#utility.yul\":3460:3466   */\n      dup2\n        /* \"#utility.yul\":3456:3478   */\n      sub\n        /* \"#utility.yul\":3514:3516   */\n      dup1\n        /* \"#utility.yul\":3509:3511   */\n      0x20\n        /* \"#utility.yul\":3498:3507   */\n      dup6\n        /* \"#utility.yul\":3494:3512   */\n      add\n        /* \"#utility.yul\":3487:3517   */\n      mstore\n        /* \"#utility.yul\":3541:3543   */\n      0x12\n        /* \"#utility.yul\":3533:3539   */\n      dup3\n        /* \"#utility.yul\":3526:3544   */\n      mstore\n      shl(0x71, 0x20b23b32b73a3ab932aa34b6b2aa37b5b2b7)\n        /* \"#utility.yul\":3572:3574   */\n      0x20\n        /* \"#utility.yul\":3564:3570   */\n      dup4\n        /* \"#utility.yul\":3560:3575   */\n      add\n        /* \"#utility.yul\":3553:3598   */\n      mstore\n        /* \"#utility.yul\":3642:3644   */\n      0x40\n        /* \"#utility.yul\":3638:3640   */\n      dup2\n        /* \"#utility.yul\":3634:3645   */\n      add\n        /* \"#utility.yul\":3629:3631   */\n      0x40\n        /* \"#utility.yul\":3618:3627   */\n      dup6\n        /* \"#utility.yul\":3614:3632   */\n      add\n        /* \"#utility.yul\":3607:3646   */\n      mstore\n      pop\n        /* \"#utility.yul\":3679:3681   */\n      0x18\n        /* \"#utility.yul\":3674:3676   */\n      0x40\n        /* \"#utility.yul\":3666:3672   */\n      dup3\n        /* \"#utility.yul\":3662:3677   */\n      add\n        /* \"#utility.yul\":3655:3682   */\n      mstore\n        /* \"#utility.yul\":3715:3741   */\n      0x546f6b656e206e616d6520646964206e6f74206d617463680000000000000000\n        /* \"#utility.yul\":3710:3712   */\n      0x60\n        /* \"#utility.yul\":3702:3708   */\n      dup3\n        /* \"#utility.yul\":3698:3713   */\n      add\n        /* \"#utility.yul\":3691:3742   */\n      mstore\n        /* \"#utility.yul\":3771:3774   */\n      0x80\n        /* \"#utility.yul\":3763:3769   */\n      dup2\n        /* \"#utility.yul\":3759:3775   */\n      add\n        /* \"#utility.yul\":3751:3775   */\n      swap2\n      pop\n      pop\n        /* \"#utility.yul\":3007:3781   */\n      swap3\n      swap2\n      pop\n      pop\n      jump\t// out\n        /* \"#utility.yul\":3786:4063   */\n    tag_113:\n        /* \"#utility.yul\":3853:3859   */\n      0x00\n        /* \"#utility.yul\":3906:3908   */\n      0x20\n        /* \"#utility.yul\":3894:3903   */\n      dup3\n        /* \"#utility.yul\":3885:3892   */\n      dup5\n        /* \"#utility.yul\":3881:3904   */\n      sub\n        /* \"#utility.yul\":3877:3909   */\n      slt\n        /* \"#utility.yul\":3874:3926   */\n      iszero\n      tag_221\n      jumpi\n        /* \"#utility.yul\":3922:3923   */\n      0x00\n        /* \"#utility.yul\":3919:3920   */\n      dup1\n        /* \"#utility.yul\":3912:3924   */\n      revert\n        /* \"#utility.yul\":3874:3926   */\n    tag_221:\n        /* \"#utility.yul\":3954:3963   */\n      dup2\n        /* \"#utility.yul\":3948:3964   */\n      mload\n        /* \"#utility.yul\":4007:4012   */\n      dup1\n        /* \"#utility.yul\":4000:4013   */\n      iszero\n        /* \"#utility.yul\":3993:4014   */\n      iszero\n        /* \"#utility.yul\":3986:3991   */\n      dup2\n        /* \"#utility.yul\":3983:4015   */\n      eq\n        /* \"#utility.yul\":3973:4033   */\n      tag_194\n      jumpi\n        /* \"#utility.yul\":4029:4030   */\n      0x00\n        /* \"#utility.yul\":4026:4027   */\n      dup1\n        /* \"#utility.yul\":4019:4031   */\n      revert\n        /* \"#utility.yul\":4068:4830   */\n    tag_116:\n        /* \"#utility.yul\":4427:4429   */\n      0x60\n        /* \"#utility.yul\":4416:4425   */\n      dup2\n        /* \"#utility.yul\":4409:4430   */\n      mstore\n        /* \"#utility.yul\":4390:4394   */\n      0x00\n        /* \"#utility.yul\":4453:4498   */\n      tag_224\n        /* \"#utility.yul\":4494:4496   */\n      0x60\n        /* \"#utility.yul\":4483:4492   */\n      dup4\n        /* \"#utility.yul\":4479:4497   */\n      add\n        /* \"#utility.yul\":4471:4477   */\n      dup5\n        /* \"#utility.yul\":4453:4498   */\n      tag_186\n      jump\t// in\n    tag_224:\n        /* \"#utility.yul\":4529:4538   */\n      dup3\n        /* \"#utility.yul\":4521:4527   */\n      dup2\n        /* \"#utility.yul\":4517:4539   */\n      sub\n        /* \"#utility.yul\":4575:4577   */\n      dup1\n        /* \"#utility.yul\":4570:4572   */\n      0x20\n        /* \"#utility.yul\":4559:4568   */\n      dup6\n        /* \"#utility.yul\":4555:4573   */\n      add\n        /* \"#utility.yul\":4548:4578   */\n      mstore\n        /* \"#utility.yul\":4602:4603   */\n      0x05\n        /* \"#utility.yul\":4594:4600   */\n      dup3\n        /* \"#utility.yul\":4587:4604   */\n      mstore\n      shl(0xd8, 0x4154494d45)\n        /* \"#utility.yul\":4632:4634   */\n      0x20\n        /* \"#utility.yul\":4624:4630   */\n      dup4\n        /* \"#utility.yul\":4620:4635   */\n      add\n        /* \"#utility.yul\":4613:4645   */\n      mstore\n        /* \"#utility.yul\":4689:4691   */\n      0x40\n        /* \"#utility.yul\":4685:4687   */\n      dup2\n        /* \"#utility.yul\":4681:4692   */\n      add\n        /* \"#utility.yul\":4676:4678   */\n      0x40\n        /* \"#utility.yul\":4665:4674   */\n      dup6\n        /* \"#utility.yul\":4661:4679   */\n      add\n        /* \"#utility.yul\":4654:4693   */\n      mstore\n      pop\n        /* \"#utility.yul\":4726:4728   */\n      0x1a\n        /* \"#utility.yul\":4721:4723   */\n      0x40\n        /* \"#utility.yul\":4713:4719   */\n      dup3\n        /* \"#utility.yul\":4709:4724   */\n      add\n        /* \"#utility.yul\":4702:4729   */\n      mstore\n        /* \"#utility.yul\":4762:4790   */\n      0x546f6b656e2073796d626f6c20646964206e6f74206d61746368000000000000\n        /* \"#utility.yul\":4757:4759   */\n      0x60\n        /* \"#utility.yul\":4749:4755   */\n      dup3\n        /* \"#utility.yul\":4745:4760   */\n      add\n        /* \"#utility.yul\":4738:4791   */\n      mstore\n        /* \"#utility.yul\":4820:4823   */\n      0x80\n        /* \"#utility.yul\":4812:4818   */\n      dup2\n        /* \"#utility.yul\":4808:4824   */\n      add\n        /* \"#utility.yul\":4800:4824   */\n      swap2\n      pop\n      pop\n        /* \"#utility.yul\":4068:4830   */\n      swap3\n      swap2\n      pop\n      pop\n      jump\t// out\n        /* \"#utility.yul\":5362:5489   */\n    tag_188:\n        /* \"#utility.yul\":5423:5433   */\n      0x4e487b71\n        /* \"#utility.yul\":5418:5421   */\n      0xe0\n        /* \"#utility.yul\":5414:5434   */\n      shl\n        /* \"#utility.yul\":5411:5412   */\n      0x00\n        /* \"#utility.yul\":5404:5435   */\n      mstore\n        /* \"#utility.yul\":5454:5458   */\n      0x11\n        /* \"#utility.yul\":5451:5452   */\n      0x04\n        /* \"#utility.yul\":5444:5459   */\n      mstore\n        /* \"#utility.yul\":5478:5482   */\n      0x24\n        /* \"#utility.yul\":5475:5476   */\n      0x00\n        /* \"#utility.yul\":5468:5483   */\n      revert\n        /* \"#utility.yul\":5494:5869   */\n    tag_189:\n        /* \"#utility.yul\":5582:5583   */\n      0x01\n        /* \"#utility.yul\":5600:5605   */\n      dup2\n        /* \"#utility.yul\":5614:5863   */\n    tag_228:\n        /* \"#utility.yul\":5635:5636   */\n      0x01\n        /* \"#utility.yul\":5625:5633   */\n      dup5\n        /* \"#utility.yul\":5622:5637   */\n      gt\n        /* \"#utility.yul\":5614:5863   */\n      iszero\n      tag_230\n      jumpi\n        /* \"#utility.yul\":5685:5689   */\n      dup1\n        /* \"#utility.yul\":5680:5683   */\n      dup6\n        /* \"#utility.yul\":5676:5690   */\n      div\n        /* \"#utility.yul\":5670:5674   */\n      dup2\n        /* \"#utility.yul\":5667:5691   */\n      gt\n        /* \"#utility.yul\":5664:5714   */\n      iszero\n      tag_232\n      jumpi\n        /* \"#utility.yul\":5694:5712   */\n      tag_232\n      tag_188\n      jump\t// in\n    tag_232:\n        /* \"#utility.yul\":5744:5745   */\n      0x01\n        /* \"#utility.yul\":5734:5742   */\n      dup5\n        /* \"#utility.yul\":5730:5746   */\n      and\n        /* \"#utility.yul\":5727:5776   */\n      iszero\n      tag_233\n      jumpi\n        /* \"#utility.yul\":5758:5774   */\n      swap1\n      dup2\n      mul\n      swap1\n        /* \"#utility.yul\":5727:5776   */\n    tag_233:\n        /* \"#utility.yul\":5841:5842   */\n      0x01\n        /* \"#utility.yul\":5837:5853   */\n      swap4\n      swap1\n      swap4\n      shr\n      swap3\n        /* \"#utility.yul\":5797:5812   */\n      dup1\n      mul\n        /* \"#utility.yul\":5614:5863   */\n      jump(tag_228)\n    tag_230:\n        /* \"#utility.yul\":5494:5869   */\n      swap4\n      pop\n      swap4\n      swap2\n      pop\n      pop\n      jump\t// out\n        /* \"#utility.yul\":5874:6776   */\n    tag_190:\n        /* \"#utility.yul\":5923:5928   */\n      0x00\n        /* \"#utility.yul\":5953:5961   */\n      dup3\n        /* \"#utility.yul\":5943:6023   */\n      tag_235\n      jumpi\n      pop\n        /* \"#utility.yul\":5994:5995   */\n      0x01\n        /* \"#utility.yul\":6008:6013   */\n      jump(tag_76)\n        /* \"#utility.yul\":5943:6023   */\n    tag_235:\n        /* \"#utility.yul\":6042:6046   */\n      dup2\n        /* \"#utility.yul\":6032:6108   */\n      tag_236\n      jumpi\n      pop\n        /* \"#utility.yul\":6079:6080   */\n      0x00\n        /* \"#utility.yul\":6093:6098   */\n      jump(tag_76)\n        /* \"#utility.yul\":6032:6108   */\n    tag_236:\n        /* \"#utility.yul\":6124:6128   */\n      dup2\n        /* \"#utility.yul\":6142:6143   */\n      0x01\n        /* \"#utility.yul\":6137:6196   */\n      dup2\n      eq\n      tag_238\n      jumpi\n        /* \"#utility.yul\":6210:6211   */\n      0x02\n        /* \"#utility.yul\":6205:6379   */\n      dup2\n      eq\n      tag_239\n      jumpi\n        /* \"#utility.yul\":6117:6379   */\n      jump(tag_237)\n        /* \"#utility.yul\":6137:6196   */\n    tag_238:\n        /* \"#utility.yul\":6167:6168   */\n      0x01\n        /* \"#utility.yul\":6158:6168   */\n      swap2\n      pop\n        /* \"#utility.yul\":6181:6186   */\n      pop\n      jump(tag_76)\n        /* \"#utility.yul\":6205:6379   */\n    tag_239:\n        /* \"#utility.yul\":6242:6245   */\n      0xff\n        /* \"#utility.yul\":6232:6240   */\n      dup5\n        /* \"#utility.yul\":6229:6246   */\n      gt\n        /* \"#utility.yul\":6226:6269   */\n      iszero\n      tag_241\n      jumpi\n        /* \"#utility.yul\":6249:6267   */\n      tag_241\n      tag_188\n      jump\t// in\n    tag_241:\n      pop\n      pop\n        /* \"#utility.yul\":6305:6306   */\n      0x01\n        /* \"#utility.yul\":6291:6307   */\n      dup3\n      shl\n        /* \"#utility.yul\":6364:6369   */\n      jump(tag_76)\n        /* \"#utility.yul\":6117:6379   */\n    tag_237:\n      pop\n        /* \"#utility.yul\":6463:6465   */\n      0x20\n        /* \"#utility.yul\":6453:6461   */\n      dup4\n        /* \"#utility.yul\":6450:6466   */\n      lt\n        /* \"#utility.yul\":6444:6447   */\n      0x0133\n        /* \"#utility.yul\":6438:6442   */\n      dup4\n        /* \"#utility.yul\":6435:6448   */\n      lt\n        /* \"#utility.yul\":6431:6467   */\n      and\n        /* \"#utility.yul\":6425:6427   */\n      0x4e\n        /* \"#utility.yul\":6415:6423   */\n      dup5\n        /* \"#utility.yul\":6412:6428   */\n      lt\n        /* \"#utility.yul\":6407:6409   */\n      0x0b\n        /* \"#utility.yul\":6401:6405   */\n      dup5\n        /* \"#utility.yul\":6398:6410   */\n      lt\n        /* \"#utility.yul\":6394:6429   */\n      and\n        /* \"#utility.yul\":6391:6468   */\n      or\n        /* \"#utility.yul\":6388:6591   */\n      iszero\n      tag_242\n      jumpi\n      pop\n        /* \"#utility.yul\":6500:6519   */\n      dup2\n      dup2\n      exp\n        /* \"#utility.yul\":6576:6581   */\n      jump(tag_76)\n        /* \"#utility.yul\":6388:6591   */\n    tag_242:\n        /* \"#utility.yul\":6623:6665   */\n      tag_243\n      not(0x00)\n        /* \"#utility.yul\":6648:6656   */\n      dup5\n        /* \"#utility.yul\":6642:6646   */\n      dup5\n        /* \"#utility.yul\":6623:6665   */\n      tag_189\n      jump\t// in\n    tag_243:\n        /* \"#utility.yul\":6701:6707   */\n      dup1\n        /* \"#utility.yul\":6697:6698   */\n      0x00\n        /* \"#utility.yul\":6693:6699   */\n      not\n        /* \"#utility.yul\":6689:6708   */\n      div\n        /* \"#utility.yul\":6680:6687   */\n      dup3\n        /* \"#utility.yul\":6677:6709   */\n      gt\n        /* \"#utility.yul\":6674:6732   */\n      iszero\n      tag_245\n      jumpi\n        /* \"#utility.yul\":6712:6730   */\n      tag_245\n      tag_188\n      jump\t// in\n    tag_245:\n        /* \"#utility.yul\":6750:6770   */\n      mul\n      swap4\n        /* \"#utility.yul\":5874:6776   */\n      swap3\n      pop\n      pop\n      pop\n      jump\t// out\n        /* \"#utility.yul\":6781:6921   */\n    tag_129:\n        /* \"#utility.yul\":6839:6844   */\n      0x00\n        /* \"#utility.yul\":6868:6915   */\n      tag_194\n        /* \"#utility.yul\":6909:6913   */\n      0xff\n        /* \"#utility.yul\":6899:6907   */\n      dup5\n        /* \"#utility.yul\":6895:6914   */\n      and\n        /* \"#utility.yul\":6889:6893   */\n      dup4\n        /* \"#utility.yul\":6868:6915   */\n      tag_190\n      jump\t// in\n        /* \"#utility.yul\":6926:7094   */\n    tag_131:\n        /* \"#utility.yul\":6999:7008   */\n      dup1\n      dup3\n      mul\n        /* \"#utility.yul\":7030:7039   */\n      dup2\n      iszero\n        /* \"#utility.yul\":7047:7062   */\n      dup3\n      dup3\n      div\n        /* \"#utility.yul\":7041:7063   */\n      dup5\n      eq\n        /* \"#utility.yul\":7027:7064   */\n      or\n        /* \"#utility.yul\":7017:7088   */\n      tag_76\n      jumpi\n        /* \"#utility.yul\":7068:7086   */\n      tag_76\n      tag_188\n      jump\t// in\n        /* \"#utility.yul\":8014:8139   */\n    tag_179:\n        /* \"#utility.yul\":8079:8088   */\n      dup1\n      dup3\n      add\n        /* \"#utility.yul\":8100:8110   */\n      dup1\n      dup3\n      gt\n        /* \"#utility.yul\":8097:8133   */\n      iszero\n      tag_76\n      jumpi\n        /* \"#utility.yul\":8113:8131   */\n      tag_76\n      tag_188\n      jump\t// in\n\n    auxdata: 0xa264697066735822122052b1899bdfc34abbf7c88237b4dd9c9f53dbfec5101750bfbcb4e9a0d815964064736f6c634300081a0033\n}\n",
				"bytecode": {
					"linkReferences": {
						"remix_tests.sol": {
							"Assert": [
								{
									"length": 20,
									"start": 2076
								},
								{
									"length": 20,
									"start": 2202
								},
								{
									"length": 20,
									"start": 2328
								},
								{
									"length": 20,
									"start": 2512
								}
							]
						}
					},
					"object": "608060405234801561000f575f80fd5b50620f4240336040518060400160405280601281526020017120b23b32b73a3ab932aa34b6b2aa37b5b2b760711b815250604051806040016040528060058152602001644154494d4560d81b815250816003908161006d9190610321565b50600461007a8282610321565b5050506001600160a01b0381166100ab57604051631e4fbdf760e01b81525f60048201526024015b60405180910390fd5b6100b4816100da565b506100d4336100c56012600a6104d4565b6100cf90846104e9565b61012b565b50610513565b600580546001600160a01b038381166001600160a01b0319831681179093556040519116919082907f8be0079c531659141344cd1fd0a4f28419497f9722a3daafe3b4186f6b6457e0905f90a35050565b6001600160a01b0382166101545760405163ec442f0560e01b81525f60048201526024016100a2565b61015f5f8383610163565b5050565b6001600160a01b03831661018d578060025f8282546101829190610500565b909155506101fd9050565b6001600160a01b0383165f90815260208190526040902054818110156101df5760405163391434e360e21b81526001600160a01b038516600482015260248101829052604481018390526064016100a2565b6001600160a01b0384165f9081526020819052604090209082900390555b6001600160a01b03821661021957600280548290039055610237565b6001600160a01b0382165f9081526020819052604090208054820190555b816001600160a01b0316836001600160a01b03167fddf252ad1be2c89b69c2b068fc378daa952ba7f163c4a11628f55a4df523b3ef8360405161027c91815260200190565b60405180910390a3505050565b634e487b7160e01b5f52604160045260245ffd5b600181811c908216806102b157607f821691505b6020821081036102cf57634e487b7160e01b5f52602260045260245ffd5b50919050565b601f82111561031c57805f5260205f20601f840160051c810160208510156102fa5750805b601f840160051c820191505b81811015610319575f8155600101610306565b50505b505050565b81516001600160401b0381111561033a5761033a610289565b61034e81610348845461029d565b846102d5565b6020601f821160018114610380575f83156103695750848201515b5f19600385901b1c1916600184901b178455610319565b5f84815260208120601f198516915b828110156103af578785015182556020948501946001909201910161038f565b50848210156103cc57868401515f19600387901b60f8161c191681555b50505050600190811b01905550565b634e487b7160e01b5f52601160045260245ffd5b6001815b600184111561042a5780850481111561040e5761040e6103db565b600184161561041c57908102905b60019390931c9280026103f3565b935093915050565b5f82610440575060016104ce565b8161044c57505f6104ce565b8160018114610462576002811461046c57610488565b60019150506104ce565b60ff84111561047d5761047d6103db565b50506001821b6104ce565b5060208310610133831016604e8410600b84101617156104ab575081810a6104ce565b6104b75f1984846103ef565b805f19048211156104ca576104ca6103db565b0290505b92915050565b5f6104e260ff841683610432565b9392505050565b80820281158282048414176104ce576104ce6103db565b808201808211156104ce576104ce6103db565b610cf1806105205f395ff3fe608060405234801561000f575f80fd5b50600436106100cb575f3560e01c8063715018a611610088578063a9059cbb11610063578063a9059cbb14610199578063dc881d1c146101ac578063dd62ed3e146101b4578063f2fde38b146101ec575f80fd5b8063715018a61461016c5780638da5cb5b1461017657806395d89b4114610191575f80fd5b806306fdde03146100cf578063095ea7b3146100ed57806318160ddd1461011057806323b872dd14610122578063313ce5671461013557806370a0823114610144575b5f80fd5b6100d76101ff565b6040516100e49190610966565b60405180910390f35b6101006100fb36600461099a565b61028f565b60405190151581526020016100e4565b6002545b6040519081526020016100e4565b6101006101303660046109c2565b6102a8565b604051601281526020016100e4565b6101146101523660046109fc565b6001600160a01b03165f9081526020819052604090205490565b6101746102cb565b005b6005546040516001600160a01b0390911681526020016100e4565b6100d76102de565b6101006101a736600461099a565b6102ed565b6101746102fa565b6101146101c2366004610a15565b6001600160a01b039182165f90815260016020908152604080832093909416825291909152205490565b6101746101fa3660046109fc565b610599565b60606003805461020e90610a46565b80601f016020809104026020016040519081016040528092919081815260200182805461023a90610a46565b80156102855780601f1061025c57610100808354040283529160200191610285565b820191905f5260205f20905b81548152906001019060200180831161026857829003601f168201915b5050505050905090565b5f3361029c8185856105d8565b60019150505b92915050565b5f336102b58582856105ea565b6102c0858585610665565b506001949350505050565b6102d36106c2565b6102dc5f6106ef565b565b60606004805461020e90610a46565b5f3361029c818585610665565b73__$acbfb1c35000d78352310b16a054a6b106$__63e8c2cb1661031c6101ff565b6040518263ffffffff1660e01b81526004016103389190610a7e565b602060405180830381865af4158015610353573d5f803e3d5ffd5b505050506040513d601f19601f820116820180604052508101906103779190610afc565b5073__$acbfb1c35000d78352310b16a054a6b106$__63e8c2cb1661039a6102de565b6040518263ffffffff1660e01b81526004016103b69190610b1b565b602060405180830381865af41580156103d1573d5f803e3d5ffd5b505050506040513d601f19601f820116820180604052508101906103f59190610afc565b5073__$acbfb1c35000d78352310b16a054a6b106$__63abcd796060126040516001600160e01b031960e084901b16815260ff90911660048201526012602482015260606044820152601c60648201527f546f6b656e20646563696d616c7320646964206e6f74206d6174636800000000608482015260a401602060405180830381865af4158015610489573d5f803e3d5ffd5b505050506040513d601f19601f820116820180604052508101906104ad9190610afc565b5073__$acbfb1c35000d78352310b16a054a6b106$__63abcd79606104d160025490565b6104dd6012600a610c83565b6104ea90620f4240610c91565b6040516001600160e01b031960e085901b1681526004810192909252602482015260606044820152602c60648201527f546f6b656e20737570706c792073686f756c64206d617463682074686520696e60848201526b697469616c20737570706c7960a01b60a482015260c401602060405180830381865af4158015610572573d5f803e3d5ffd5b505050506040513d601f19601f820116820180604052508101906105969190610afc565b50565b6105a16106c2565b6001600160a01b0381166105cf57604051631e4fbdf760e01b81525f60048201526024015b60405180910390fd5b610596816106ef565b6105e58383836001610740565b505050565b6001600160a01b038381165f908152600160209081526040808320938616835292905220545f19811461065f578181101561065157604051637dc7a0d960e11b81526001600160a01b038416600482015260248101829052604481018390526064016105c6565b61065f84848484035f610740565b50505050565b6001600160a01b03831661068e57604051634b637e8f60e11b81525f60048201526024016105c6565b6001600160a01b0382166106b75760405163ec442f0560e01b81525f60048201526024016105c6565b6105e5838383610812565b6005546001600160a01b031633146102dc5760405163118cdaa760e01b81523360048201526024016105c6565b600580546001600160a01b038381166001600160a01b0319831681179093556040519116919082907f8be0079c531659141344cd1fd0a4f28419497f9722a3daafe3b4186f6b6457e0905f90a35050565b6001600160a01b0384166107695760405163e602df0560e01b81525f60048201526024016105c6565b6001600160a01b03831661079257604051634a1406b160e11b81525f60048201526024016105c6565b6001600160a01b038085165f908152600160209081526040808320938716835292905220829055801561065f57826001600160a01b0316846001600160a01b03167f8c5be1e5ebec7d5bd14f71427d1e84f3dd0314c0f7b2291e5b200ac8c7c3b9258460405161080491815260200190565b60405180910390a350505050565b6001600160a01b03831661083c578060025f8282546108319190610ca8565b909155506108ac9050565b6001600160a01b0383165f908152602081905260409020548181101561088e5760405163391434e360e21b81526001600160a01b038516600482015260248101829052604481018390526064016105c6565b6001600160a01b0384165f9081526020819052604090209082900390555b6001600160a01b0382166108c8576002805482900390556108e6565b6001600160a01b0382165f9081526020819052604090208054820190555b816001600160a01b0316836001600160a01b03167fddf252ad1be2c89b69c2b068fc378daa952ba7f163c4a11628f55a4df523b3ef8360405161092b91815260200190565b60405180910390a3505050565b5f81518084528060208401602086015e5f602082860101526020601f19601f83011685010191505092915050565b602081525f6109786020830184610938565b9392505050565b80356001600160a01b0381168114610995575f80fd5b919050565b5f80604083850312156109ab575f80fd5b6109b48361097f565b946020939093013593505050565b5f805f606084860312156109d4575f80fd5b6109dd8461097f565b92506109eb6020850161097f565b929592945050506040919091013590565b5f60208284031215610a0c575f80fd5b6109788261097f565b5f8060408385031215610a26575f80fd5b610a2f8361097f565b9150610a3d6020840161097f565b90509250929050565b600181811c90821680610a5a57607f821691505b602082108103610a7857634e487b7160e01b5f52602260045260245ffd5b50919050565b606081525f610a906060830184610938565b828103806020850152601282527120b23b32b73a3ab932aa34b6b2aa37b5b2b760711b602083015260408101604085015250601860408201527f546f6b656e206e616d6520646964206e6f74206d61746368000000000000000060608201526080810191505092915050565b5f60208284031215610b0c575f80fd5b81518015158114610978575f80fd5b606081525f610b2d6060830184610938565b82810380602085015260058252644154494d4560d81b602083015260408101604085015250601a60408201527f546f6b656e2073796d626f6c20646964206e6f74206d6174636800000000000060608201526080810191505092915050565b634e487b7160e01b5f52601160045260245ffd5b6001815b6001841115610bdb57808504811115610bbf57610bbf610b8c565b6001841615610bcd57908102905b60019390931c928002610ba4565b935093915050565b5f82610bf1575060016102a2565b81610bfd57505f6102a2565b8160018114610c135760028114610c1d57610c39565b60019150506102a2565b60ff841115610c2e57610c2e610b8c565b50506001821b6102a2565b5060208310610133831016604e8410600b8410161715610c5c575081810a6102a2565b610c685f198484610ba0565b805f1904821115610c7b57610c7b610b8c565b029392505050565b5f61097860ff841683610be3565b80820281158282048414176102a2576102a2610b8c565b808201808211156102a2576102a2610b8c56fea264697066735822122052b1899bdfc34abbf7c88237b4dd9c9f53dbfec5101750bfbcb4e9a0d815964064736f6c634300081a0033",
					"opcodes": "PUSH1 0x80 PUSH1 0x40 MSTORE CALLVALUE DUP1 ISZERO PUSH2 0xF JUMPI PUSH0 DUP1 REVERT JUMPDEST POP PUSH3 0xF4240 CALLER PUSH1 0x40 MLOAD DUP1 PUSH1 0x40 ADD PUSH1 0x40 MSTORE DUP1 PUSH1 0x12 DUP2 MSTORE PUSH1 0x20 ADD PUSH18 0x20B23B32B73A3AB932AA34B6B2AA37B5B2B7 PUSH1 0x71 SHL DUP2 MSTORE POP PUSH1 0x40 MLOAD DUP1 PUSH1 0x40 ADD PUSH1 0x40 MSTORE DUP1 PUSH1 0x5 DUP2 MSTORE PUSH1 0x20 ADD PUSH5 0x4154494D45 PUSH1 0xD8 SHL DUP2 MSTORE POP DUP2 PUSH1 0x3 SWAP1 DUP2 PUSH2 0x6D SWAP2 SWAP1 PUSH2 0x321 JUMP JUMPDEST POP PUSH1 0x4 PUSH2 0x7A DUP3 DUP3 PUSH2 0x321 JUMP JUMPDEST POP POP POP PUSH1 0x1 PUSH1 0x1 PUSH1 0xA0 SHL SUB DUP2 AND PUSH2 0xAB JUMPI PUSH1 0x40 MLOAD PUSH4 0x1E4FBDF7 PUSH1 0xE0 SHL DUP2 MSTORE PUSH0 PUSH1 0x4 DUP3 ADD MSTORE PUSH1 0x24 ADD JUMPDEST PUSH1 0x40 MLOAD DUP1 SWAP2 SUB SWAP1 REVERT JUMPDEST PUSH2 0xB4 DUP2 PUSH2 0xDA JUMP JUMPDEST POP PUSH2 0xD4 CALLER PUSH2 0xC5 PUSH1 0x12 PUSH1 0xA PUSH2 0x4D4 JUMP JUMPDEST PUSH2 0xCF SWAP1 DUP5 PUSH2 0x4E9 JUMP JUMPDEST PUSH2 0x12B JUMP JUMPDEST POP PUSH2 0x513 JUMP JUMPDEST PUSH1 0x5 DUP1 SLOAD PUSH1 0x1 PUSH1 0x1 PUSH1 0xA0 SHL SUB DUP4 DUP2 AND PUSH1 0x1 PUSH1 0x1 PUSH1 0xA0 SHL SUB NOT DUP4 AND DUP2 OR SWAP1 SWAP4 SSTORE PUSH1 0x40 MLOAD SWAP2 AND SWAP2 SWAP1 DUP3 SWAP1 PUSH32 0x8BE0079C531659141344CD1FD0A4F28419497F9722A3DAAFE3B4186F6B6457E0 SWAP1 PUSH0 SWAP1 LOG3 POP POP JUMP JUMPDEST PUSH1 0x1 PUSH1 0x1 PUSH1 0xA0 SHL SUB DUP3 AND PUSH2 0x154 JUMPI PUSH1 0x40 MLOAD PUSH4 0xEC442F05 PUSH1 0xE0 SHL DUP2 MSTORE PUSH0 PUSH1 0x4 DUP3 ADD MSTORE PUSH1 0x24 ADD PUSH2 0xA2 JUMP JUMPDEST PUSH2 0x15F PUSH0 DUP4 DUP4 PUSH2 0x163 JUMP JUMPDEST POP POP JUMP JUMPDEST PUSH1 0x1 PUSH1 0x1 PUSH1 0xA0 SHL SUB DUP4 AND PUSH2 0x18D JUMPI DUP1 PUSH1 0x2 PUSH0 DUP3 DUP3 SLOAD PUSH2 0x182 SWAP2 SWAP1 PUSH2 0x500 JUMP JUMPDEST SWAP1 SWAP2 SSTORE POP PUSH2 0x1FD SWAP1 POP JUMP JUMPDEST PUSH1 0x1 PUSH1 0x1 PUSH1 0xA0 SHL SUB DUP4 AND PUSH0 SWAP1 DUP2 MSTORE PUSH1 0x20 DUP2 SWAP1 MSTORE PUSH1 0x40 SWAP1 KECCAK256 SLOAD DUP2 DUP2 LT ISZERO PUSH2 0x1DF JUMPI PUSH1 0x40 MLOAD PUSH4 0x391434E3 PUSH1 0xE2 SHL DUP2 MSTORE PUSH1 0x1 PUSH1 0x1 PUSH1 0xA0 SHL SUB DUP6 AND PUSH1 0x4 DUP3 ADD MSTORE PUSH1 0x24 DUP2 ADD DUP3 SWAP1 MSTORE PUSH1 0x44 DUP2 ADD DUP4 SWAP1 MSTORE PUSH1 0x64 ADD PUSH2 0xA2 JUMP JUMPDEST PUSH1 0x1 PUSH1 0x1 PUSH1 0xA0 SHL SUB DUP5 AND PUSH0 SWAP1 DUP2 MSTORE PUSH1 0x20 DUP2 SWAP1 MSTORE PUSH1 0x40 SWAP1 KECCAK256 SWAP1 DUP3 SWAP1 SUB SWAP1 SSTORE JUMPDEST PUSH1 0x1 PUSH1 0x1 PUSH1 0xA0 SHL SUB DUP3 AND PUSH2 0x219 JUMPI PUSH1 0x2 DUP1 SLOAD DUP3 SWAP1 SUB SWAP1 SSTORE PUSH2 0x237 JUMP JUMPDEST PUSH1 0x1 PUSH1 0x1 PUSH1 0xA0 SHL SUB DUP3 AND PUSH0 SWAP1 DUP2 MSTORE PUSH1 0x20 DUP2 SWAP1 MSTORE PUSH1 0x40 SWAP1 KECCAK256 DUP1 SLOAD DUP3 ADD SWAP1 SSTORE JUMPDEST DUP2 PUSH1 0x1 PUSH1 0x1 PUSH1 0xA0 SHL SUB AND DUP4 PUSH1 0x1 PUSH1 0x1 PUSH1 0xA0 SHL SUB AND PUSH32 0xDDF252AD1BE2C89B69C2B068FC378DAA952BA7F163C4A11628F55A4DF523B3EF DUP4 PUSH1 0x40 MLOAD PUSH2 0x27C SWAP2 DUP2 MSTORE PUSH1 0x20 ADD SWAP1 JUMP JUMPDEST PUSH1 0x40 MLOAD DUP1 SWAP2 SUB SWAP1 LOG3 POP POP POP JUMP JUMPDEST PUSH4 0x4E487B71 PUSH1 0xE0 SHL PUSH0 MSTORE PUSH1 0x41 PUSH1 0x4 MSTORE PUSH1 0x24 PUSH0 REVERT JUMPDEST PUSH1 0x1 DUP2 DUP2 SHR SWAP1 DUP3 AND DUP1 PUSH2 0x2B1 JUMPI PUSH1 0x7F DUP3 AND SWAP2 POP JUMPDEST PUSH1 0x20 DUP3 LT DUP2 SUB PUSH2 0x2CF JUMPI PUSH4 0x4E487B71 PUSH1 0xE0 SHL PUSH0 MSTORE PUSH1 0x22 PUSH1 0x4 MSTORE PUSH1 0x24 PUSH0 REVERT JUMPDEST POP SWAP2 SWAP1 POP JUMP JUMPDEST PUSH1 0x1F DUP3 GT ISZERO PUSH2 0x31C JUMPI DUP1 PUSH0 MSTORE PUSH1 0x20 PUSH0 KECCAK256 PUSH1 0x1F DUP5 ADD PUSH1 0x5 SHR DUP2 ADD PUSH1 0x20 DUP6 LT ISZERO PUSH2 0x2FA JUMPI POP DUP1 JUMPDEST PUSH1 0x1F DUP5 ADD PUSH1 0x5 SHR DUP3 ADD SWAP2 POP JUMPDEST DUP2 DUP2 LT ISZERO PUSH2 0x319 JUMPI PUSH0 DUP2 SSTORE PUSH1 0x1 ADD PUSH2 0x306 JUMP JUMPDEST POP POP JUMPDEST POP POP POP JUMP JUMPDEST DUP2 MLOAD PUSH1 0x1 PUSH1 0x1 PUSH1 0x40 SHL SUB DUP2 GT ISZERO PUSH2 0x33A JUMPI PUSH2 0x33A PUSH2 0x289 JUMP JUMPDEST PUSH2 0x34E DUP2 PUSH2 0x348 DUP5 SLOAD PUSH2 0x29D JUMP JUMPDEST DUP5 PUSH2 0x2D5 JUMP JUMPDEST PUSH1 0x20 PUSH1 0x1F DUP3 GT PUSH1 0x1 DUP2 EQ PUSH2 0x380 JUMPI PUSH0 DUP4 ISZERO PUSH2 0x369 JUMPI POP DUP5 DUP3 ADD MLOAD JUMPDEST PUSH0 NOT PUSH1 0x3 DUP6 SWAP1 SHL SHR NOT AND PUSH1 0x1 DUP5 SWAP1 SHL OR DUP5 SSTORE PUSH2 0x319 JUMP JUMPDEST PUSH0 DUP5 DUP2 MSTORE PUSH1 0x20 DUP2 KECCAK256 PUSH1 0x1F NOT DUP6 AND SWAP2 JUMPDEST DUP3 DUP2 LT ISZERO PUSH2 0x3AF JUMPI DUP8 DUP6 ADD MLOAD DUP3 SSTORE PUSH1 0x20 SWAP5 DUP6 ADD SWAP5 PUSH1 0x1 SWAP1 SWAP3 ADD SWAP2 ADD PUSH2 0x38F JUMP JUMPDEST POP DUP5 DUP3 LT ISZERO PUSH2 0x3CC JUMPI DUP7 DUP5 ADD MLOAD PUSH0 NOT PUSH1 0x3 DUP8 SWAP1 SHL PUSH1 0xF8 AND SHR NOT AND DUP2 SSTORE JUMPDEST POP POP POP POP PUSH1 0x1 SWAP1 DUP2 SHL ADD SWAP1 SSTORE POP JUMP JUMPDEST PUSH4 0x4E487B71 PUSH1 0xE0 SHL PUSH0 MSTORE PUSH1 0x11 PUSH1 0x4 MSTORE PUSH1 0x24 PUSH0 REVERT JUMPDEST PUSH1 0x1 DUP2 JUMPDEST PUSH1 0x1 DUP5 GT ISZERO PUSH2 0x42A JUMPI DUP1 DUP6 DIV DUP2 GT ISZERO PUSH2 0x40E JUMPI PUSH2 0x40E PUSH2 0x3DB JUMP JUMPDEST PUSH1 0x1 DUP5 AND ISZERO PUSH2 0x41C JUMPI SWAP1 DUP2 MUL SWAP1 JUMPDEST PUSH1 0x1 SWAP4 SWAP1 SWAP4 SHR SWAP3 DUP1 MUL PUSH2 0x3F3 JUMP JUMPDEST SWAP4 POP SWAP4 SWAP2 POP POP JUMP JUMPDEST PUSH0 DUP3 PUSH2 0x440 JUMPI POP PUSH1 0x1 PUSH2 0x4CE JUMP JUMPDEST DUP2 PUSH2 0x44C JUMPI POP PUSH0 PUSH2 0x4CE JUMP JUMPDEST DUP2 PUSH1 0x1 DUP2 EQ PUSH2 0x462 JUMPI PUSH1 0x2 DUP2 EQ PUSH2 0x46C JUMPI PUSH2 0x488 JUMP JUMPDEST PUSH1 0x1 SWAP2 POP POP PUSH2 0x4CE JUMP JUMPDEST PUSH1 0xFF DUP5 GT ISZERO PUSH2 0x47D JUMPI PUSH2 0x47D PUSH2 0x3DB JUMP JUMPDEST POP POP PUSH1 0x1 DUP3 SHL PUSH2 0x4CE JUMP JUMPDEST POP PUSH1 0x20 DUP4 LT PUSH2 0x133 DUP4 LT AND PUSH1 0x4E DUP5 LT PUSH1 0xB DUP5 LT AND OR ISZERO PUSH2 0x4AB JUMPI POP DUP2 DUP2 EXP PUSH2 0x4CE JUMP JUMPDEST PUSH2 0x4B7 PUSH0 NOT DUP5 DUP5 PUSH2 0x3EF JUMP JUMPDEST DUP1 PUSH0 NOT DIV DUP3 GT ISZERO PUSH2 0x4CA JUMPI PUSH2 0x4CA PUSH2 0x3DB JUMP JUMPDEST MUL SWAP1 POP JUMPDEST SWAP3 SWAP2 POP POP JUMP JUMPDEST PUSH0 PUSH2 0x4E2 PUSH1 0xFF DUP5 AND DUP4 PUSH2 0x432 JUMP JUMPDEST SWAP4 SWAP3 POP POP POP JUMP JUMPDEST DUP1 DUP3 MUL DUP2 ISZERO DUP3 DUP3 DIV DUP5 EQ OR PUSH2 0x4CE JUMPI PUSH2 0x4CE PUSH2 0x3DB JUMP JUMPDEST DUP1 DUP3 ADD DUP1 DUP3 GT ISZERO PUSH2 0x4CE JUMPI PUSH2 0x4CE PUSH2 0x3DB JUMP JUMPDEST PUSH2 0xCF1 DUP1 PUSH2 0x520 PUSH0 CODECOPY PUSH0 RETURN INVALID PUSH1 0x80 PUSH1 0x40 MSTORE CALLVALUE DUP1 ISZERO PUSH2 0xF JUMPI PUSH0 DUP1 REVERT JUMPDEST POP PUSH1 0x4 CALLDATASIZE LT PUSH2 0xCB JUMPI PUSH0 CALLDATALOAD PUSH1 0xE0 SHR DUP1 PUSH4 0x715018A6 GT PUSH2 0x88 JUMPI DUP1 PUSH4 0xA9059CBB GT PUSH2 0x63 JUMPI DUP1 PUSH4 0xA9059CBB EQ PUSH2 0x199 JUMPI DUP1 PUSH4 0xDC881D1C EQ PUSH2 0x1AC JUMPI DUP1 PUSH4 0xDD62ED3E EQ PUSH2 0x1B4 JUMPI DUP1 PUSH4 0xF2FDE38B EQ PUSH2 0x1EC JUMPI PUSH0 DUP1 REVERT JUMPDEST DUP1 PUSH4 0x715018A6 EQ PUSH2 0x16C JUMPI DUP1 PUSH4 0x8DA5CB5B EQ PUSH2 0x176 JUMPI DUP1 PUSH4 0x95D89B41 EQ PUSH2 0x191 JUMPI PUSH0 DUP1 REVERT JUMPDEST DUP1 PUSH4 0x6FDDE03 EQ PUSH2 0xCF JUMPI DUP1 PUSH4 0x95EA7B3 EQ PUSH2 0xED JUMPI DUP1 PUSH4 0x18160DDD EQ PUSH2 0x110 JUMPI DUP1 PUSH4 0x23B872DD EQ PUSH2 0x122 JUMPI DUP1 PUSH4 0x313CE567 EQ PUSH2 0x135 JUMPI DUP1 PUSH4 0x70A08231 EQ PUSH2 0x144 JUMPI JUMPDEST PUSH0 DUP1 REVERT JUMPDEST PUSH2 0xD7 PUSH2 0x1FF JUMP JUMPDEST PUSH1 0x40 MLOAD PUSH2 0xE4 SWAP2 SWAP1 PUSH2 0x966 JUMP JUMPDEST PUSH1 0x40 MLOAD DUP1 SWAP2 SUB SWAP1 RETURN JUMPDEST PUSH2 0x100 PUSH2 0xFB CALLDATASIZE PUSH1 0x4 PUSH2 0x99A JUMP JUMPDEST PUSH2 0x28F JUMP JUMPDEST PUSH1 0x40 MLOAD SWAP1 ISZERO ISZERO DUP2 MSTORE PUSH1 0x20 ADD PUSH2 0xE4 JUMP JUMPDEST PUSH1 0x2 SLOAD JUMPDEST PUSH1 0x40 MLOAD SWAP1 DUP2 MSTORE PUSH1 0x20 ADD PUSH2 0xE4 JUMP JUMPDEST PUSH2 0x100 PUSH2 0x130 CALLDATASIZE PUSH1 0x4 PUSH2 0x9C2 JUMP JUMPDEST PUSH2 0x2A8 JUMP JUMPDEST PUSH1 0x40 MLOAD PUSH1 0x12 DUP2 MSTORE PUSH1 0x20 ADD PUSH2 0xE4 JUMP JUMPDEST PUSH2 0x114 PUSH2 0x152 CALLDATASIZE PUSH1 0x4 PUSH2 0x9FC JUMP JUMPDEST PUSH1 0x1 PUSH1 0x1 PUSH1 0xA0 SHL SUB AND PUSH0 SWAP1 DUP2 MSTORE PUSH1 0x20 DUP2 SWAP1 MSTORE PUSH1 0x40 SWAP1 KECCAK256 SLOAD SWAP1 JUMP JUMPDEST PUSH2 0x174 PUSH2 0x2CB JUMP JUMPDEST STOP JUMPDEST PUSH1 0x5 SLOAD PUSH1 0x40 MLOAD PUSH1 0x1 PUSH1 0x1 PUSH1 0xA0 SHL SUB SWAP1 SWAP2 AND DUP2 MSTORE PUSH1 0x20 ADD PUSH2 0xE4 JUMP JUMPDEST PUSH2 0xD7 PUSH2 0x2DE JUMP JUMPDEST PUSH2 0x100 PUSH2 0x1A7 CALLDATASIZE PUSH1 0x4 PUSH2 0x99A JUMP JUMPDEST PUSH2 0x2ED JUMP JUMPDEST PUSH2 0x174 PUSH2 0x2FA JUMP JUMPDEST PUSH2 0x114 PUSH2 0x1C2 CALLDATASIZE PUSH1 0x4 PUSH2 0xA15 JUMP JUMPDEST PUSH1 0x1 PUSH1 0x1 PUSH1 0xA0 SHL SUB SWAP2 DUP3 AND PUSH0 SWAP1 DUP2 MSTORE PUSH1 0x1 PUSH1 0x20 SWAP1 DUP2 MSTORE PUSH1 0x40 DUP1 DUP4 KECCAK256 SWAP4 SWAP1 SWAP5 AND DUP3 MSTORE SWAP2 SWAP1 SWAP2 MSTORE KECCAK256 SLOAD SWAP1 JUMP JUMPDEST PUSH2 0x174 PUSH2 0x1FA CALLDATASIZE PUSH1 0x4 PUSH2 0x9FC JUMP JUMPDEST PUSH2 0x599 JUMP JUMPDEST PUSH1 0x60 PUSH1 0x3 DUP1 SLOAD PUSH2 0x20E SWAP1 PUSH2 0xA46 JUMP JUMPDEST DUP1 PUSH1 0x1F ADD PUSH1 0x20 DUP1 SWAP2 DIV MUL PUSH1 0x20 ADD PUSH1 0x40 MLOAD SWAP1 DUP2 ADD PUSH1 0x40 MSTORE DUP1 SWAP3 SWAP2 SWAP1 DUP2 DUP2 MSTORE PUSH1 0x20 ADD DUP3 DUP1 SLOAD PUSH2 0x23A SWAP1 PUSH2 0xA46 JUMP JUMPDEST DUP1 ISZERO PUSH2 0x285 JUMPI DUP1 PUSH1 0x1F LT PUSH2 0x25C JUMPI PUSH2 0x100 DUP1 DUP4 SLOAD DIV MUL DUP4 MSTORE SWAP2 PUSH1 0x20 ADD SWAP2 PUSH2 0x285 JUMP JUMPDEST DUP3 ADD SWAP2 SWAP1 PUSH0 MSTORE PUSH1 0x20 PUSH0 KECCAK256 SWAP1 JUMPDEST DUP2 SLOAD DUP2 MSTORE SWAP1 PUSH1 0x1 ADD SWAP1 PUSH1 0x20 ADD DUP1 DUP4 GT PUSH2 0x268 JUMPI DUP3 SWAP1 SUB PUSH1 0x1F AND DUP3 ADD SWAP2 JUMPDEST POP POP POP POP POP SWAP1 POP SWAP1 JUMP JUMPDEST PUSH0 CALLER PUSH2 0x29C DUP2 DUP6 DUP6 PUSH2 0x5D8 JUMP JUMPDEST PUSH1 0x1 SWAP2 POP POP JUMPDEST SWAP3 SWAP2 POP POP JUMP JUMPDEST PUSH0 CALLER PUSH2 0x2B5 DUP6 DUP3 DUP6 PUSH2 0x5EA JUMP JUMPDEST PUSH2 0x2C0 DUP6 DUP6 DUP6 PUSH2 0x665 JUMP JUMPDEST POP PUSH1 0x1 SWAP5 SWAP4 POP POP POP POP JUMP JUMPDEST PUSH2 0x2D3 PUSH2 0x6C2 JUMP JUMPDEST PUSH2 0x2DC PUSH0 PUSH2 0x6EF JUMP JUMPDEST JUMP JUMPDEST PUSH1 0x60 PUSH1 0x4 DUP1 SLOAD PUSH2 0x20E SWAP1 PUSH2 0xA46 JUMP JUMPDEST PUSH0 CALLER PUSH2 0x29C DUP2 DUP6 DUP6 PUSH2 0x665 JUMP JUMPDEST PUSH20 0x0 PUSH4 0xE8C2CB16 PUSH2 0x31C PUSH2 0x1FF JUMP JUMPDEST PUSH1 0x40 MLOAD DUP3 PUSH4 0xFFFFFFFF AND PUSH1 0xE0 SHL DUP2 MSTORE PUSH1 0x4 ADD PUSH2 0x338 SWAP2 SWAP1 PUSH2 0xA7E JUMP JUMPDEST PUSH1 0x20 PUSH1 0x40 MLOAD DUP1 DUP4 SUB DUP2 DUP7 GAS DELEGATECALL ISZERO DUP1 ISZERO PUSH2 0x353 JUMPI RETURNDATASIZE PUSH0 DUP1 RETURNDATACOPY RETURNDATASIZE PUSH0 REVERT JUMPDEST POP POP POP POP PUSH1 0x40 MLOAD RETURNDATASIZE PUSH1 0x1F NOT PUSH1 0x1F DUP3 ADD AND DUP3 ADD DUP1 PUSH1 0x40 MSTORE POP DUP2 ADD SWAP1 PUSH2 0x377 SWAP2 SWAP1 PUSH2 0xAFC JUMP JUMPDEST POP PUSH20 0x0 PUSH4 0xE8C2CB16 PUSH2 0x39A PUSH2 0x2DE JUMP JUMPDEST PUSH1 0x40 MLOAD DUP3 PUSH4 0xFFFFFFFF AND PUSH1 0xE0 SHL DUP2 MSTORE PUSH1 0x4 ADD PUSH2 0x3B6 SWAP2 SWAP1 PUSH2 0xB1B JUMP JUMPDEST PUSH1 0x20 PUSH1 0x40 MLOAD DUP1 DUP4 SUB DUP2 DUP7 GAS DELEGATECALL ISZERO DUP1 ISZERO PUSH2 0x3D1 JUMPI RETURNDATASIZE PUSH0 DUP1 RETURNDATACOPY RETURNDATASIZE PUSH0 REVERT JUMPDEST POP POP POP POP PUSH1 0x40 MLOAD RETURNDATASIZE PUSH1 0x1F NOT PUSH1 0x1F DUP3 ADD AND DUP3 ADD DUP1 PUSH1 0x40 MSTORE POP DUP2 ADD SWAP1 PUSH2 0x3F5 SWAP2 SWAP1 PUSH2 0xAFC JUMP JUMPDEST POP PUSH20 0x0 PUSH4 0xABCD7960 PUSH1 0x12 PUSH1 0x40 MLOAD PUSH1 0x1 PUSH1 0x1 PUSH1 0xE0 SHL SUB NOT PUSH1 0xE0 DUP5 SWAP1 SHL AND DUP2 MSTORE PUSH1 0xFF SWAP1 SWAP2 AND PUSH1 0x4 DUP3 ADD MSTORE PUSH1 0x12 PUSH1 0x24 DUP3 ADD MSTORE PUSH1 0x60 PUSH1 0x44 DUP3 ADD MSTORE PUSH1 0x1C PUSH1 0x64 DUP3 ADD MSTORE PUSH32 0x546F6B656E20646563696D616C7320646964206E6F74206D6174636800000000 PUSH1 0x84 DUP3 ADD MSTORE PUSH1 0xA4 ADD PUSH1 0x20 PUSH1 0x40 MLOAD DUP1 DUP4 SUB DUP2 DUP7 GAS DELEGATECALL ISZERO DUP1 ISZERO PUSH2 0x489 JUMPI RETURNDATASIZE PUSH0 DUP1 RETURNDATACOPY RETURNDATASIZE PUSH0 REVERT JUMPDEST POP POP POP POP PUSH1 0x40 MLOAD RETURNDATASIZE PUSH1 0x1F NOT PUSH1 0x1F DUP3 ADD AND DUP3 ADD DUP1 PUSH1 0x40 MSTORE POP DUP2 ADD SWAP1 PUSH2 0x4AD SWAP2 SWAP1 PUSH2 0xAFC JUMP JUMPDEST POP PUSH20 0x0 PUSH4 0xABCD7960 PUSH2 0x4D1 PUSH1 0x2 SLOAD SWAP1 JUMP JUMPDEST PUSH2 0x4DD PUSH1 0x12 PUSH1 0xA PUSH2 0xC83 JUMP JUMPDEST PUSH2 0x4EA SWAP1 PUSH3 0xF4240 PUSH2 0xC91 JUMP JUMPDEST PUSH1 0x40 MLOAD PUSH1 0x1 PUSH1 0x1 PUSH1 0xE0 SHL SUB NOT PUSH1 0xE0 DUP6 SWAP1 SHL AND DUP2 MSTORE PUSH1 0x4 DUP2 ADD SWAP3 SWAP1 SWAP3 MSTORE PUSH1 0x24 DUP3 ADD MSTORE PUSH1 0x60 PUSH1 0x44 DUP3 ADD MSTORE PUSH1 0x2C PUSH1 0x64 DUP3 ADD MSTORE PUSH32 0x546F6B656E20737570706C792073686F756C64206D617463682074686520696E PUSH1 0x84 DUP3 ADD MSTORE PUSH12 0x697469616C20737570706C79 PUSH1 0xA0 SHL PUSH1 0xA4 DUP3 ADD MSTORE PUSH1 0xC4 ADD PUSH1 0x20 PUSH1 0x40 MLOAD DUP1 DUP4 SUB DUP2 DUP7 GAS DELEGATECALL ISZERO DUP1 ISZERO PUSH2 0x572 JUMPI RETURNDATASIZE PUSH0 DUP1 RETURNDATACOPY RETURNDATASIZE PUSH0 REVERT JUMPDEST POP POP POP POP PUSH1 0x40 MLOAD RETURNDATASIZE PUSH1 0x1F NOT PUSH1 0x1F DUP3 ADD AND DUP3 ADD DUP1 PUSH1 0x40 MSTORE POP DUP2 ADD SWAP1 PUSH2 0x596 SWAP2 SWAP1 PUSH2 0xAFC JUMP JUMPDEST POP JUMP JUMPDEST PUSH2 0x5A1 PUSH2 0x6C2 JUMP JUMPDEST PUSH1 0x1 PUSH1 0x1 PUSH1 0xA0 SHL SUB DUP2 AND PUSH2 0x5CF JUMPI PUSH1 0x40 MLOAD PUSH4 0x1E4FBDF7 PUSH1 0xE0 SHL DUP2 MSTORE PUSH0 PUSH1 0x4 DUP3 ADD MSTORE PUSH1 0x24 ADD JUMPDEST PUSH1 0x40 MLOAD DUP1 SWAP2 SUB SWAP1 REVERT JUMPDEST PUSH2 0x596 DUP2 PUSH2 0x6EF JUMP JUMPDEST PUSH2 0x5E5 DUP4 DUP4 DUP4 PUSH1 0x1 PUSH2 0x740 JUMP JUMPDEST POP POP POP JUMP JUMPDEST PUSH1 0x1 PUSH1 0x1 PUSH1 0xA0 SHL SUB DUP4 DUP2 AND PUSH0 SWAP1 DUP2 MSTORE PUSH1 0x1 PUSH1 0x20 SWAP1 DUP2 MSTORE PUSH1 0x40 DUP1 DUP4 KECCAK256 SWAP4 DUP7 AND DUP4 MSTORE SWAP3 SWAP1 MSTORE KECCAK256 SLOAD PUSH0 NOT DUP2 EQ PUSH2 0x65F JUMPI DUP2 DUP2 LT ISZERO PUSH2 0x651 JUMPI PUSH1 0x40 MLOAD PUSH4 0x7DC7A0D9 PUSH1 0xE1 SHL DUP2 MSTORE PUSH1 0x1 PUSH1 0x1 PUSH1 0xA0 SHL SUB DUP5 AND PUSH1 0x4 DUP3 ADD MSTORE PUSH1 0x24 DUP2 ADD DUP3 SWAP1 MSTORE PUSH1 0x44 DUP2 ADD DUP4 SWAP1 MSTORE PUSH1 0x64 ADD PUSH2 0x5C6 JUMP JUMPDEST PUSH2 0x65F DUP5 DUP5 DUP5 DUP5 SUB PUSH0 PUSH2 0x740 JUMP JUMPDEST POP POP POP POP JUMP JUMPDEST PUSH1 0x1 PUSH1 0x1 PUSH1 0xA0 SHL SUB DUP4 AND PUSH2 0x68E JUMPI PUSH1 0x40 MLOAD PUSH4 0x4B637E8F PUSH1 0xE1 SHL DUP2 MSTORE PUSH0 PUSH1 0x4 DUP3 ADD MSTORE PUSH1 0x24 ADD PUSH2 0x5C6 JUMP JUMPDEST PUSH1 0x1 PUSH1 0x1 PUSH1 0xA0 SHL SUB DUP3 AND PUSH2 0x6B7 JUMPI PUSH1 0x40 MLOAD PUSH4 0xEC442F05 PUSH1 0xE0 SHL DUP2 MSTORE PUSH0 PUSH1 0x4 DUP3 ADD MSTORE PUSH1 0x24 ADD PUSH2 0x5C6 JUMP JUMPDEST PUSH2 0x5E5 DUP4 DUP4 DUP4 PUSH2 0x812 JUMP JUMPDEST PUSH1 0x5 SLOAD PUSH1 0x1 PUSH1 0x1 PUSH1 0xA0 SHL SUB AND CALLER EQ PUSH2 0x2DC JUMPI PUSH1 0x40 MLOAD PUSH4 0x118CDAA7 PUSH1 0xE0 SHL DUP2 MSTORE CALLER PUSH1 0x4 DUP3 ADD MSTORE PUSH1 0x24 ADD PUSH2 0x5C6 JUMP JUMPDEST PUSH1 0x5 DUP1 SLOAD PUSH1 0x1 PUSH1 0x1 PUSH1 0xA0 SHL SUB DUP4 DUP2 AND PUSH1 0x1 PUSH1 0x1 PUSH1 0xA0 SHL SUB NOT DUP4 AND DUP2 OR SWAP1 SWAP4 SSTORE PUSH1 0x40 MLOAD SWAP2 AND SWAP2 SWAP1 DUP3 SWAP1 PUSH32 0x8BE0079C531659141344CD1FD0A4F28419497F9722A3DAAFE3B4186F6B6457E0 SWAP1 PUSH0 SWAP1 LOG3 POP POP JUMP JUMPDEST PUSH1 0x1 PUSH1 0x1 PUSH1 0xA0 SHL SUB DUP5 AND PUSH2 0x769 JUMPI PUSH1 0x40 MLOAD PUSH4 0xE602DF05 PUSH1 0xE0 SHL DUP2 MSTORE PUSH0 PUSH1 0x4 DUP3 ADD MSTORE PUSH1 0x24 ADD PUSH2 0x5C6 JUMP JUMPDEST PUSH1 0x1 PUSH1 0x1 PUSH1 0xA0 SHL SUB DUP4 AND PUSH2 0x792 JUMPI PUSH1 0x40 MLOAD PUSH4 0x4A1406B1 PUSH1 0xE1 SHL DUP2 MSTORE PUSH0 PUSH1 0x4 DUP3 ADD MSTORE PUSH1 0x24 ADD PUSH2 0x5C6 JUMP JUMPDEST PUSH1 0x1 PUSH1 0x1 PUSH1 0xA0 SHL SUB DUP1 DUP6 AND PUSH0 SWAP1 DUP2 MSTORE PUSH1 0x1 PUSH1 0x20 SWAP1 DUP2 MSTORE PUSH1 0x40 DUP1 DUP4 KECCAK256 SWAP4 DUP8 AND DUP4 MSTORE SWAP3 SWAP1 MSTORE KECCAK256 DUP3 SWAP1 SSTORE DUP1 ISZERO PUSH2 0x65F JUMPI DUP3 PUSH1 0x1 PUSH1 0x1 PUSH1 0xA0 SHL SUB AND DUP5 PUSH1 0x1 PUSH1 0x1 PUSH1 0xA0 SHL SUB AND PUSH32 0x8C5BE1E5EBEC7D5BD14F71427D1E84F3DD0314C0F7B2291E5B200AC8C7C3B925 DUP5 PUSH1 0x40 MLOAD PUSH2 0x804 SWAP2 DUP2 MSTORE PUSH1 0x20 ADD SWAP1 JUMP JUMPDEST PUSH1 0x40 MLOAD DUP1 SWAP2 SUB SWAP1 LOG3 POP POP POP POP JUMP JUMPDEST PUSH1 0x1 PUSH1 0x1 PUSH1 0xA0 SHL SUB DUP4 AND PUSH2 0x83C JUMPI DUP1 PUSH1 0x2 PUSH0 DUP3 DUP3 SLOAD PUSH2 0x831 SWAP2 SWAP1 PUSH2 0xCA8 JUMP JUMPDEST SWAP1 SWAP2 SSTORE POP PUSH2 0x8AC SWAP1 POP JUMP JUMPDEST PUSH1 0x1 PUSH1 0x1 PUSH1 0xA0 SHL SUB DUP4 AND PUSH0 SWAP1 DUP2 MSTORE PUSH1 0x20 DUP2 SWAP1 MSTORE PUSH1 0x40 SWAP1 KECCAK256 SLOAD DUP2 DUP2 LT ISZERO PUSH2 0x88E JUMPI PUSH1 0x40 MLOAD PUSH4 0x391434E3 PUSH1 0xE2 SHL DUP2 MSTORE PUSH1 0x1 PUSH1 0x1 PUSH1 0xA0 SHL SUB DUP6 AND PUSH1 0x4 DUP3 ADD MSTORE PUSH1 0x24 DUP2 ADD DUP3 SWAP1 MSTORE PUSH1 0x44 DUP2 ADD DUP4 SWAP1 MSTORE PUSH1 0x64 ADD PUSH2 0x5C6 JUMP JUMPDEST PUSH1 0x1 PUSH1 0x1 PUSH1 0xA0 SHL SUB DUP5 AND PUSH0 SWAP1 DUP2 MSTORE PUSH1 0x20 DUP2 SWAP1 MSTORE PUSH1 0x40 SWAP1 KECCAK256 SWAP1 DUP3 SWAP1 SUB SWAP1 SSTORE JUMPDEST PUSH1 0x1 PUSH1 0x1 PUSH1 0xA0 SHL SUB DUP3 AND PUSH2 0x8C8 JUMPI PUSH1 0x2 DUP1 SLOAD DUP3 SWAP1 SUB SWAP1 SSTORE PUSH2 0x8E6 JUMP JUMPDEST PUSH1 0x1 PUSH1 0x1 PUSH1 0xA0 SHL SUB DUP3 AND PUSH0 SWAP1 DUP2 MSTORE PUSH1 0x20 DUP2 SWAP1 MSTORE PUSH1 0x40 SWAP1 KECCAK256 DUP1 SLOAD DUP3 ADD SWAP1 SSTORE JUMPDEST DUP2 PUSH1 0x1 PUSH1 0x1 PUSH1 0xA0 SHL SUB AND DUP4 PUSH1 0x1 PUSH1 0x1 PUSH1 0xA0 SHL SUB AND PUSH32 0xDDF252AD1BE2C89B69C2B068FC378DAA952BA7F163C4A11628F55A4DF523B3EF DUP4 PUSH1 0x40 MLOAD PUSH2 0x92B SWAP2 DUP2 MSTORE PUSH1 0x20 ADD SWAP1 JUMP JUMPDEST PUSH1 0x40 MLOAD DUP1 SWAP2 SUB SWAP1 LOG3 POP POP POP JUMP JUMPDEST PUSH0 DUP2 MLOAD DUP1 DUP5 MSTORE DUP1 PUSH1 0x20 DUP5 ADD PUSH1 0x20 DUP7 ADD MCOPY PUSH0 PUSH1 0x20 DUP3 DUP7 ADD ADD MSTORE PUSH1 0x20 PUSH1 0x1F NOT PUSH1 0x1F DUP4 ADD AND DUP6 ADD ADD SWAP2 POP POP SWAP3 SWAP2 POP POP JUMP JUMPDEST PUSH1 0x20 DUP2 MSTORE PUSH0 PUSH2 0x978 PUSH1 0x20 DUP4 ADD DUP5 PUSH2 0x938 JUMP JUMPDEST SWAP4 SWAP3 POP POP POP JUMP JUMPDEST DUP1 CALLDATALOAD PUSH1 0x1 PUSH1 0x1 PUSH1 0xA0 SHL SUB DUP2 AND DUP2 EQ PUSH2 0x995 JUMPI PUSH0 DUP1 REVERT JUMPDEST SWAP2 SWAP1 POP JUMP JUMPDEST PUSH0 DUP1 PUSH1 0x40 DUP4 DUP6 SUB SLT ISZERO PUSH2 0x9AB JUMPI PUSH0 DUP1 REVERT JUMPDEST PUSH2 0x9B4 DUP4 PUSH2 0x97F JUMP JUMPDEST SWAP5 PUSH1 0x20 SWAP4 SWAP1 SWAP4 ADD CALLDATALOAD SWAP4 POP POP POP JUMP JUMPDEST PUSH0 DUP1 PUSH0 PUSH1 0x60 DUP5 DUP7 SUB SLT ISZERO PUSH2 0x9D4 JUMPI PUSH0 DUP1 REVERT JUMPDEST PUSH2 0x9DD DUP5 PUSH2 0x97F JUMP JUMPDEST SWAP3 POP PUSH2 0x9EB PUSH1 0x20 DUP6 ADD PUSH2 0x97F JUMP JUMPDEST SWAP3 SWAP6 SWAP3 SWAP5 POP POP POP PUSH1 0x40 SWAP2 SWAP1 SWAP2 ADD CALLDATALOAD SWAP1 JUMP JUMPDEST PUSH0 PUSH1 0x20 DUP3 DUP5 SUB SLT ISZERO PUSH2 0xA0C JUMPI PUSH0 DUP1 REVERT JUMPDEST PUSH2 0x978 DUP3 PUSH2 0x97F JUMP JUMPDEST PUSH0 DUP1 PUSH1 0x40 DUP4 DUP6 SUB SLT ISZERO PUSH2 0xA26 JUMPI PUSH0 DUP1 REVERT JUMPDEST PUSH2 0xA2F DUP4 PUSH2 0x97F JUMP JUMPDEST SWAP2 POP PUSH2 0xA3D PUSH1 0x20 DUP5 ADD PUSH2 0x97F JUMP JUMPDEST SWAP1 POP SWAP3 POP SWAP3 SWAP1 POP JUMP JUMPDEST PUSH1 0x1 DUP2 DUP2 SHR SWAP1 DUP3 AND DUP1 PUSH2 0xA5A JUMPI PUSH1 0x7F DUP3 AND SWAP2 POP JUMPDEST PUSH1 0x20 DUP3 LT DUP2 SUB PUSH2 0xA78 JUMPI PUSH4 0x4E487B71 PUSH1 0xE0 SHL PUSH0 MSTORE PUSH1 0x22 PUSH1 0x4 MSTORE PUSH1 0x24 PUSH0 REVERT JUMPDEST POP SWAP2 SWAP1 POP JUMP JUMPDEST PUSH1 0x60 DUP2 MSTORE PUSH0 PUSH2 0xA90 PUSH1 0x60 DUP4 ADD DUP5 PUSH2 0x938 JUMP JUMPDEST DUP3 DUP2 SUB DUP1 PUSH1 0x20 DUP6 ADD MSTORE PUSH1 0x12 DUP3 MSTORE PUSH18 0x20B23B32B73A3AB932AA34B6B2AA37B5B2B7 PUSH1 0x71 SHL PUSH1 0x20 DUP4 ADD MSTORE PUSH1 0x40 DUP2 ADD PUSH1 0x40 DUP6 ADD MSTORE POP PUSH1 0x18 PUSH1 0x40 DUP3 ADD MSTORE PUSH32 0x546F6B656E206E616D6520646964206E6F74206D617463680000000000000000 PUSH1 0x60 DUP3 ADD MSTORE PUSH1 0x80 DUP2 ADD SWAP2 POP POP SWAP3 SWAP2 POP POP JUMP JUMPDEST PUSH0 PUSH1 0x20 DUP3 DUP5 SUB SLT ISZERO PUSH2 0xB0C JUMPI PUSH0 DUP1 REVERT JUMPDEST DUP2 MLOAD DUP1 ISZERO ISZERO DUP2 EQ PUSH2 0x978 JUMPI PUSH0 DUP1 REVERT JUMPDEST PUSH1 0x60 DUP2 MSTORE PUSH0 PUSH2 0xB2D PUSH1 0x60 DUP4 ADD DUP5 PUSH2 0x938 JUMP JUMPDEST DUP3 DUP2 SUB DUP1 PUSH1 0x20 DUP6 ADD MSTORE PUSH1 0x5 DUP3 MSTORE PUSH5 0x4154494D45 PUSH1 0xD8 SHL PUSH1 0x20 DUP4 ADD MSTORE PUSH1 0x40 DUP2 ADD PUSH1 0x40 DUP6 ADD MSTORE POP PUSH1 0x1A PUSH1 0x40 DUP3 ADD MSTORE PUSH32 0x546F6B656E2073796D626F6C20646964206E6F74206D61746368000000000000 PUSH1 0x60 DUP3 ADD MSTORE PUSH1 0x80 DUP2 ADD SWAP2 POP POP SWAP3 SWAP2 POP POP JUMP JUMPDEST PUSH4 0x4E487B71 PUSH1 0xE0 SHL PUSH0 MSTORE PUSH1 0x11 PUSH1 0x4 MSTORE PUSH1 0x24 PUSH0 REVERT JUMPDEST PUSH1 0x1 DUP2 JUMPDEST PUSH1 0x1 DUP5 GT ISZERO PUSH2 0xBDB JUMPI DUP1 DUP6 DIV DUP2 GT ISZERO PUSH2 0xBBF JUMPI PUSH2 0xBBF PUSH2 0xB8C JUMP JUMPDEST PUSH1 0x1 DUP5 AND ISZERO PUSH2 0xBCD JUMPI SWAP1 DUP2 MUL SWAP1 JUMPDEST PUSH1 0x1 SWAP4 SWAP1 SWAP4 SHR SWAP3 DUP1 MUL PUSH2 0xBA4 JUMP JUMPDEST SWAP4 POP SWAP4 SWAP2 POP POP JUMP JUMPDEST PUSH0 DUP3 PUSH2 0xBF1 JUMPI POP PUSH1 0x1 PUSH2 0x2A2 JUMP JUMPDEST DUP2 PUSH2 0xBFD JUMPI POP PUSH0 PUSH2 0x2A2 JUMP JUMPDEST DUP2 PUSH1 0x1 DUP2 EQ PUSH2 0xC13 JUMPI PUSH1 0x2 DUP2 EQ PUSH2 0xC1D JUMPI PUSH2 0xC39 JUMP JUMPDEST PUSH1 0x1 SWAP2 POP POP PUSH2 0x2A2 JUMP JUMPDEST PUSH1 0xFF DUP5 GT ISZERO PUSH2 0xC2E JUMPI PUSH2 0xC2E PUSH2 0xB8C JUMP JUMPDEST POP POP PUSH1 0x1 DUP3 SHL PUSH2 0x2A2 JUMP JUMPDEST POP PUSH1 0x20 DUP4 LT PUSH2 0x133 DUP4 LT AND PUSH1 0x4E DUP5 LT PUSH1 0xB DUP5 LT AND OR ISZERO PUSH2 0xC5C JUMPI POP DUP2 DUP2 EXP PUSH2 0x2A2 JUMP JUMPDEST PUSH2 0xC68 PUSH0 NOT DUP5 DUP5 PUSH2 0xBA0 JUMP JUMPDEST DUP1 PUSH0 NOT DIV DUP3 GT ISZERO PUSH2 0xC7B JUMPI PUSH2 0xC7B PUSH2 0xB8C JUMP JUMPDEST MUL SWAP4 SWAP3 POP POP POP JUMP JUMPDEST PUSH0 PUSH2 0x978 PUSH1 0xFF DUP5 AND DUP4 PUSH2 0xBE3 JUMP JUMPDEST DUP1 DUP3 MUL DUP2 ISZERO DUP3 DUP3 DIV DUP5 EQ OR PUSH2 0x2A2 JUMPI PUSH2 0x2A2 PUSH2 0xB8C JUMP JUMPDEST DUP1 DUP3 ADD DUP1 DUP3 GT ISZERO PUSH2 0x2A2 JUMPI PUSH2 0x2A2 PUSH2 0xB8C JUMP INVALID LOG2 PUSH5 0x6970667358 0x22 SLT KECCAK256 MSTORE 0xB1 DUP10 SWAP12 0xDF 0xC3 BLOBBASEFEE 0xBB 0xF7 0xC8 DUP3 CALLDATACOPY 0xB4 0xDD SWAP13 SWAP16 MSTORE8 0xDB INVALID 0xC5 LT OR POP 0xBF 0xBC 0xB4 0xE9 LOG0 0xD8 ISZERO SWAP7 BLOCKHASH PUSH5 0x736F6C6343 STOP ADDMOD BYTE STOP CALLER "
				},
				"gasEstimates": {
					"creation": {
						"codeDepositCost": "662600",
						"executionCost": "infinite",
						"totalCost": "infinite"
					},
					"external": {
						"allowance(address,address)": "infinite",
						"approve(address,uint256)": "24735",
						"balanceOf(address)": "2648",
						"decimals()": "265",
						"name()": "infinite",
						"owner()": "2345",
						"renounceOwnership()": "infinite",
						"symbol()": "infinite",
						"testTokenInitialValues()": "infinite",
						"totalSupply()": "2325",
						"transfer(address,uint256)": "51238",
						"transferFrom(address,address,uint256)": "infinite",
						"transferOwnership(address)": "28421"
					}
				},
				"methodIdentifiers": {
					"allowance(address,address)": "dd62ed3e",
					"approve(address,uint256)": "095ea7b3",
					"balanceOf(address)": "70a08231",
					"decimals()": "313ce567",
					"name()": "06fdde03",
					"owner()": "8da5cb5b",
					"renounceOwnership()": "715018a6",
					"symbol()": "95d89b41",
					"testTokenInitialValues()": "dc881d1c",
					"totalSupply()": "18160ddd",
					"transfer(address,uint256)": "a9059cbb",
					"transferFrom(address,address,uint256)": "23b872dd",
					"transferOwnership(address)": "f2fde38b"
				}
			},
			"storageLayout": {
				"storage": [
					{
						"astId": 307,
						"contract": "tests/MyToken_test.sol:AdventureTimeTokenTest",
						"label": "_balances",
						"offset": 0,
						"slot": "0",
						"type": "t_mapping(t_address,t_uint256)"
					},
					{
						"astId": 313,
						"contract": "tests/MyToken_test.sol:AdventureTimeTokenTest",
						"label": "_allowances",
						"offset": 0,
						"slot": "1",
						"type": "t_mapping(t_address,t_mapping(t_address,t_uint256))"
					},
					{
						"astId": 315,
						"contract": "tests/MyToken_test.sol:AdventureTimeTokenTest",
						"label": "_totalSupply",
						"offset": 0,
						"slot": "2",
						"type": "t_uint256"
					},
					{
						"astId": 317,
						"contract": "tests/MyToken_test.sol:AdventureTimeTokenTest",
						"label": "_name",
						"offset": 0,
						"slot": "3",
						"type": "t_string_storage"
					},
					{
						"astId": 319,
						"contract": "tests/MyToken_test.sol:AdventureTimeTokenTest",
						"label": "_symbol",
						"offset": 0,
						"slot": "4",
						"type": "t_string_storage"
					},
					{
						"astId": 8,
						"contract": "tests/MyToken_test.sol:AdventureTimeTokenTest",
						"label": "_owner",
						"offset": 0,
						"slot": "5",
						"type": "t_address"
					}
				],
				"types": {
					"t_address": {
						"encoding": "inplace",
						"label": "address",
						"numberOfBytes": "20"
					},
					"t_mapping(t_address,t_mapping(t_address,t_uint256))": {
						"encoding": "mapping",
						"key": "t_address",
						"label": "mapping(address => mapping(address => uint256))",
						"numberOfBytes": "32",
						"value": "t_mapping(t_address,t_uint256)"
					},
					"t_mapping(t_address,t_uint256)": {
						"encoding": "mapping",
						"key": "t_address",
						"label": "mapping(address => uint256)",
						"numberOfBytes": "32",
						"value": "t_uint256"
					},
					"t_string_storage": {
						"encoding": "bytes",
						"label": "string",
						"numberOfBytes": "32"
					},
					"t_uint256": {
						"encoding": "inplace",
						"label": "uint256",
						"numberOfBytes": "32"
					}
				}
			},
			"userdoc": {
				"kind": "user",
				"methods": {},
				"version": 1
			}
		}
	}
}